{
	"contracts/MyArray.sol": {
		"MyMapping": {
			"abi": [
				{
					"inputs": [],
					"stateMutability": "nonpayable",
					"type": "constructor"
				},
				{
					"inputs": [
						{
							"internalType": "uint256",
							"name": "_id",
							"type": "uint256"
						},
						{
							"internalType": "string",
							"name": "_title",
							"type": "string"
						},
						{
							"internalType": "string",
							"name": "_author",
							"type": "string"
						}
					],
					"name": "addBooks",
					"outputs": [],
					"stateMutability": "nonpayable",
					"type": "function"
				},
				{
					"inputs": [
						{
							"internalType": "uint256",
							"name": "",
							"type": "uint256"
						}
					],
					"name": "books",
					"outputs": [
						{
							"internalType": "string",
							"name": "title",
							"type": "string"
						},
						{
							"internalType": "string",
							"name": "author",
							"type": "string"
						}
					],
					"stateMutability": "view",
					"type": "function"
				},
				{
					"inputs": [
						{
							"internalType": "uint256",
							"name": "",
							"type": "uint256"
						}
					],
					"name": "names",
					"outputs": [
						{
							"internalType": "string",
							"name": "",
							"type": "string"
						}
					],
					"stateMutability": "view",
					"type": "function"
				}
			],
			"devdoc": {
				"kind": "dev",
				"methods": {},
				"version": 1
			},
			"evm": {
				"assembly": "    /* \"contracts/MyArray.sol\":57:532  contract MyMapping {... */\n  mstore(0x40, 0x80)\n    /* \"contracts/MyArray.sol\":187:290  constructor() {... */\n  callvalue\n  dup1\n  iszero\n  tag_1\n  jumpi\n  0x00\n  dup1\n  revert\ntag_1:\n  pop\n    /* \"contracts/MyArray.sol\":211:228  names[1] = \"Adam\" */\n  mload(0x40)\n  dup1\n  0x40\n  add\n  0x40\n  mstore\n  dup1\n  0x04\n  dup2\n  mstore\n  0x20\n  add\n  0x4164616d00000000000000000000000000000000000000000000000000000000\n  dup2\n  mstore\n  pop\n    /* \"contracts/MyArray.sol\":211:216  names */\n  0x00\n    /* \"contracts/MyArray.sol\":211:219  names[1] */\n  dup1\n    /* \"contracts/MyArray.sol\":217:218  1 */\n  0x01\n    /* \"contracts/MyArray.sol\":211:219  names[1] */\n  dup2\n  mstore\n  0x20\n  add\n  swap1\n  dup2\n  mstore\n  0x20\n  add\n  0x00\n  keccak256\n    /* \"contracts/MyArray.sol\":211:228  names[1] = \"Adam\" */\n  swap1\n  dup2\n  tag_4\n  swap2\n  swap1\n  tag_5\n  jump\t// in\ntag_4:\n  pop\n    /* \"contracts/MyArray.sol\":238:256  names[2] = \"Bruce\" */\n  mload(0x40)\n  dup1\n  0x40\n  add\n  0x40\n  mstore\n  dup1\n  0x05\n  dup2\n  mstore\n  0x20\n  add\n  0x4272756365000000000000000000000000000000000000000000000000000000\n  dup2\n  mstore\n  pop\n    /* \"contracts/MyArray.sol\":238:243  names */\n  0x00\n    /* \"contracts/MyArray.sol\":238:246  names[2] */\n  dup1\n    /* \"contracts/MyArray.sol\":244:245  2 */\n  0x02\n    /* \"contracts/MyArray.sol\":238:246  names[2] */\n  dup2\n  mstore\n  0x20\n  add\n  swap1\n  dup2\n  mstore\n  0x20\n  add\n  0x00\n  keccak256\n    /* \"contracts/MyArray.sol\":238:256  names[2] = \"Bruce\" */\n  swap1\n  dup2\n  tag_6\n  swap2\n  swap1\n  tag_5\n  jump\t// in\ntag_6:\n  pop\n    /* \"contracts/MyArray.sol\":266:283  names[3] = \"Carl\" */\n  mload(0x40)\n  dup1\n  0x40\n  add\n  0x40\n  mstore\n  dup1\n  0x04\n  dup2\n  mstore\n  0x20\n  add\n  0x4361726c00000000000000000000000000000000000000000000000000000000\n  dup2\n  mstore\n  pop\n    /* \"contracts/MyArray.sol\":266:271  names */\n  0x00\n    /* \"contracts/MyArray.sol\":266:274  names[3] */\n  dup1\n    /* \"contracts/MyArray.sol\":272:273  3 */\n  0x03\n    /* \"contracts/MyArray.sol\":266:274  names[3] */\n  dup2\n  mstore\n  0x20\n  add\n  swap1\n  dup2\n  mstore\n  0x20\n  add\n  0x00\n  keccak256\n    /* \"contracts/MyArray.sol\":266:283  names[3] = \"Carl\" */\n  swap1\n  dup2\n  tag_7\n  swap2\n  swap1\n  tag_5\n  jump\t// in\ntag_7:\n  pop\n    /* \"contracts/MyArray.sol\":57:532  contract MyMapping {... */\n  jump(tag_8)\n    /* \"#utility.yul\":7:106   */\ntag_9:\n    /* \"#utility.yul\":59:65   */\n  0x00\n    /* \"#utility.yul\":93:98   */\n  dup2\n    /* \"#utility.yul\":87:99   */\n  mload\n    /* \"#utility.yul\":77:99   */\n  swap1\n  pop\n    /* \"#utility.yul\":7:106   */\n  swap2\n  swap1\n  pop\n  jump\t// out\n    /* \"#utility.yul\":112:292   */\ntag_10:\n    /* \"#utility.yul\":160:237   */\n  0x4e487b7100000000000000000000000000000000000000000000000000000000\n    /* \"#utility.yul\":157:158   */\n  0x00\n    /* \"#utility.yul\":150:238   */\n  mstore\n    /* \"#utility.yul\":257:261   */\n  0x41\n    /* \"#utility.yul\":254:255   */\n  0x04\n    /* \"#utility.yul\":247:262   */\n  mstore\n    /* \"#utility.yul\":281:285   */\n  0x24\n    /* \"#utility.yul\":278:279   */\n  0x00\n    /* \"#utility.yul\":271:286   */\n  revert\n    /* \"#utility.yul\":298:478   */\ntag_11:\n    /* \"#utility.yul\":346:423   */\n  0x4e487b7100000000000000000000000000000000000000000000000000000000\n    /* \"#utility.yul\":343:344   */\n  0x00\n    /* \"#utility.yul\":336:424   */\n  mstore\n    /* \"#utility.yul\":443:447   */\n  0x22\n    /* \"#utility.yul\":440:441   */\n  0x04\n    /* \"#utility.yul\":433:448   */\n  mstore\n    /* \"#utility.yul\":467:471   */\n  0x24\n    /* \"#utility.yul\":464:465   */\n  0x00\n    /* \"#utility.yul\":457:472   */\n  revert\n    /* \"#utility.yul\":484:804   */\ntag_12:\n    /* \"#utility.yul\":528:534   */\n  0x00\n    /* \"#utility.yul\":565:566   */\n  0x02\n    /* \"#utility.yul\":559:563   */\n  dup3\n    /* \"#utility.yul\":555:567   */\n  div\n    /* \"#utility.yul\":545:567   */\n  swap1\n  pop\n    /* \"#utility.yul\":612:613   */\n  0x01\n    /* \"#utility.yul\":606:610   */\n  dup3\n    /* \"#utility.yul\":602:614   */\n  and\n    /* \"#utility.yul\":633:651   */\n  dup1\n    /* \"#utility.yul\":623:704   */\n  tag_34\n  jumpi\n    /* \"#utility.yul\":689:693   */\n  0x7f\n    /* \"#utility.yul\":681:687   */\n  dup3\n    /* \"#utility.yul\":677:694   */\n  and\n    /* \"#utility.yul\":667:694   */\n  swap2\n  pop\n    /* \"#utility.yul\":623:704   */\ntag_34:\n    /* \"#utility.yul\":751:753   */\n  0x20\n    /* \"#utility.yul\":743:749   */\n  dup3\n    /* \"#utility.yul\":740:754   */\n  lt\n    /* \"#utility.yul\":720:738   */\n  dup2\n    /* \"#utility.yul\":717:755   */\n  sub\n    /* \"#utility.yul\":714:798   */\n  tag_35\n  jumpi\n    /* \"#utility.yul\":770:788   */\n  tag_36\n  tag_11\n  jump\t// in\ntag_36:\n    /* \"#utility.yul\":714:798   */\ntag_35:\n    /* \"#utility.yul\":535:804   */\n  pop\n    /* \"#utility.yul\":484:804   */\n  swap2\n  swap1\n  pop\n  jump\t// out\n    /* \"#utility.yul\":810:951   */\ntag_13:\n    /* \"#utility.yul\":859:863   */\n  0x00\n    /* \"#utility.yul\":882:885   */\n  dup2\n    /* \"#utility.yul\":874:885   */\n  swap1\n  pop\n    /* \"#utility.yul\":905:908   */\n  dup2\n    /* \"#utility.yul\":902:903   */\n  0x00\n    /* \"#utility.yul\":895:909   */\n  mstore\n    /* \"#utility.yul\":939:943   */\n  0x20\n    /* \"#utility.yul\":936:937   */\n  0x00\n    /* \"#utility.yul\":926:944   */\n  keccak256\n    /* \"#utility.yul\":918:944   */\n  swap1\n  pop\n    /* \"#utility.yul\":810:951   */\n  swap2\n  swap1\n  pop\n  jump\t// out\n    /* \"#utility.yul\":957:1050   */\ntag_14:\n    /* \"#utility.yul\":994:1000   */\n  0x00\n    /* \"#utility.yul\":1041:1043   */\n  0x20\n    /* \"#utility.yul\":1036:1038   */\n  0x1f\n    /* \"#utility.yul\":1029:1034   */\n  dup4\n    /* \"#utility.yul\":1025:1039   */\n  add\n    /* \"#utility.yul\":1021:1044   */\n  div\n    /* \"#utility.yul\":1011:1044   */\n  swap1\n  pop\n    /* \"#utility.yul\":957:1050   */\n  swap2\n  swap1\n  pop\n  jump\t// out\n    /* \"#utility.yul\":1056:1163   */\ntag_15:\n    /* \"#utility.yul\":1100:1108   */\n  0x00\n    /* \"#utility.yul\":1150:1155   */\n  dup3\n    /* \"#utility.yul\":1144:1148   */\n  dup3\n    /* \"#utility.yul\":1140:1156   */\n  shl\n    /* \"#utility.yul\":1119:1156   */\n  swap1\n  pop\n    /* \"#utility.yul\":1056:1163   */\n  swap3\n  swap2\n  pop\n  pop\n  jump\t// out\n    /* \"#utility.yul\":1169:1562   */\ntag_16:\n    /* \"#utility.yul\":1238:1244   */\n  0x00\n    /* \"#utility.yul\":1288:1289   */\n  0x08\n    /* \"#utility.yul\":1276:1286   */\n  dup4\n    /* \"#utility.yul\":1272:1290   */\n  mul\n    /* \"#utility.yul\":1311:1408   */\n  tag_41\n    /* \"#utility.yul\":1341:1407   */\n  0xffffffffffffffffffffffffffffffffffffffffffffffffffffffffffffffff\n    /* \"#utility.yul\":1330:1339   */\n  dup3\n    /* \"#utility.yul\":1311:1408   */\n  tag_15\n  jump\t// in\ntag_41:\n    /* \"#utility.yul\":1429:1468   */\n  tag_42\n    /* \"#utility.yul\":1459:1467   */\n  dup7\n    /* \"#utility.yul\":1448:1457   */\n  dup4\n    /* \"#utility.yul\":1429:1468   */\n  tag_15\n  jump\t// in\ntag_42:\n    /* \"#utility.yul\":1417:1468   */\n  swap6\n  pop\n    /* \"#utility.yul\":1501:1505   */\n  dup1\n    /* \"#utility.yul\":1497:1506   */\n  not\n    /* \"#utility.yul\":1490:1495   */\n  dup5\n    /* \"#utility.yul\":1486:1507   */\n  and\n    /* \"#utility.yul\":1477:1507   */\n  swap4\n  pop\n    /* \"#utility.yul\":1550:1554   */\n  dup1\n    /* \"#utility.yul\":1540:1548   */\n  dup7\n    /* \"#utility.yul\":1536:1555   */\n  and\n    /* \"#utility.yul\":1529:1534   */\n  dup5\n    /* \"#utility.yul\":1526:1556   */\n  or\n    /* \"#utility.yul\":1516:1556   */\n  swap3\n  pop\n    /* \"#utility.yul\":1245:1562   */\n  pop\n  pop\n    /* \"#utility.yul\":1169:1562   */\n  swap4\n  swap3\n  pop\n  pop\n  pop\n  jump\t// out\n    /* \"#utility.yul\":1568:1645   */\ntag_17:\n    /* \"#utility.yul\":1605:1612   */\n  0x00\n    /* \"#utility.yul\":1634:1639   */\n  dup2\n    /* \"#utility.yul\":1623:1639   */\n  swap1\n  pop\n    /* \"#utility.yul\":1568:1645   */\n  swap2\n  swap1\n  pop\n  jump\t// out\n    /* \"#utility.yul\":1651:1711   */\ntag_18:\n    /* \"#utility.yul\":1679:1682   */\n  0x00\n    /* \"#utility.yul\":1700:1705   */\n  dup2\n    /* \"#utility.yul\":1693:1705   */\n  swap1\n  pop\n    /* \"#utility.yul\":1651:1711   */\n  swap2\n  swap1\n  pop\n  jump\t// out\n    /* \"#utility.yul\":1717:1859   */\ntag_19:\n    /* \"#utility.yul\":1767:1776   */\n  0x00\n    /* \"#utility.yul\":1800:1853   */\n  tag_46\n    /* \"#utility.yul\":1818:1852   */\n  tag_47\n    /* \"#utility.yul\":1827:1851   */\n  tag_48\n    /* \"#utility.yul\":1845:1850   */\n  dup5\n    /* \"#utility.yul\":1827:1851   */\n  tag_17\n  jump\t// in\ntag_48:\n    /* \"#utility.yul\":1818:1852   */\n  tag_18\n  jump\t// in\ntag_47:\n    /* \"#utility.yul\":1800:1853   */\n  tag_17\n  jump\t// in\ntag_46:\n    /* \"#utility.yul\":1787:1853   */\n  swap1\n  pop\n    /* \"#utility.yul\":1717:1859   */\n  swap2\n  swap1\n  pop\n  jump\t// out\n    /* \"#utility.yul\":1865:1940   */\ntag_20:\n    /* \"#utility.yul\":1908:1911   */\n  0x00\n    /* \"#utility.yul\":1929:1934   */\n  dup2\n    /* \"#utility.yul\":1922:1934   */\n  swap1\n  pop\n    /* \"#utility.yul\":1865:1940   */\n  swap2\n  swap1\n  pop\n  jump\t// out\n    /* \"#utility.yul\":1946:2215   */\ntag_21:\n    /* \"#utility.yul\":2056:2095   */\n  tag_51\n    /* \"#utility.yul\":2087:2094   */\n  dup4\n    /* \"#utility.yul\":2056:2095   */\n  tag_19\n  jump\t// in\ntag_51:\n    /* \"#utility.yul\":2117:2208   */\n  tag_52\n    /* \"#utility.yul\":2166:2207   */\n  tag_53\n    /* \"#utility.yul\":2190:2206   */\n  dup3\n    /* \"#utility.yul\":2166:2207   */\n  tag_20\n  jump\t// in\ntag_53:\n    /* \"#utility.yul\":2158:2164   */\n  dup5\n    /* \"#utility.yul\":2151:2155   */\n  dup5\n    /* \"#utility.yul\":2145:2156   */\n  sload\n    /* \"#utility.yul\":2117:2208   */\n  tag_16\n  jump\t// in\ntag_52:\n    /* \"#utility.yul\":2111:2115   */\n  dup3\n    /* \"#utility.yul\":2104:2209   */\n  sstore\n    /* \"#utility.yul\":2022:2215   */\n  pop\n    /* \"#utility.yul\":1946:2215   */\n  pop\n  pop\n  pop\n  jump\t// out\n    /* \"#utility.yul\":2221:2294   */\ntag_22:\n    /* \"#utility.yul\":2266:2269   */\n  0x00\n    /* \"#utility.yul\":2221:2294   */\n  swap1\n  jump\t// out\n    /* \"#utility.yul\":2300:2489   */\ntag_23:\n    /* \"#utility.yul\":2377:2409   */\n  tag_56\n  tag_22\n  jump\t// in\ntag_56:\n    /* \"#utility.yul\":2418:2483   */\n  tag_57\n    /* \"#utility.yul\":2476:2482   */\n  dup2\n    /* \"#utility.yul\":2468:2474   */\n  dup5\n    /* \"#utility.yul\":2462:2466   */\n  dup5\n    /* \"#utility.yul\":2418:2483   */\n  tag_21\n  jump\t// in\ntag_57:\n    /* \"#utility.yul\":2353:2489   */\n  pop\n    /* \"#utility.yul\":2300:2489   */\n  pop\n  pop\n  jump\t// out\n    /* \"#utility.yul\":2495:2681   */\ntag_24:\n    /* \"#utility.yul\":2555:2675   */\ntag_59:\n    /* \"#utility.yul\":2572:2575   */\n  dup2\n    /* \"#utility.yul\":2565:2570   */\n  dup2\n    /* \"#utility.yul\":2562:2576   */\n  lt\n    /* \"#utility.yul\":2555:2675   */\n  iszero\n  tag_61\n  jumpi\n    /* \"#utility.yul\":2626:2665   */\n  tag_62\n    /* \"#utility.yul\":2663:2664   */\n  0x00\n    /* \"#utility.yul\":2656:2661   */\n  dup3\n    /* \"#utility.yul\":2626:2665   */\n  tag_23\n  jump\t// in\ntag_62:\n    /* \"#utility.yul\":2599:2600   */\n  0x01\n    /* \"#utility.yul\":2592:2597   */\n  dup2\n    /* \"#utility.yul\":2588:2601   */\n  add\n    /* \"#utility.yul\":2579:2601   */\n  swap1\n  pop\n    /* \"#utility.yul\":2555:2675   */\n  jump(tag_59)\ntag_61:\n    /* \"#utility.yul\":2495:2681   */\n  pop\n  pop\n  jump\t// out\n    /* \"#utility.yul\":2687:3230   */\ntag_25:\n    /* \"#utility.yul\":2788:2790   */\n  0x1f\n    /* \"#utility.yul\":2783:2786   */\n  dup3\n    /* \"#utility.yul\":2780:2791   */\n  gt\n    /* \"#utility.yul\":2777:3223   */\n  iszero\n  tag_64\n  jumpi\n    /* \"#utility.yul\":2822:2860   */\n  tag_65\n    /* \"#utility.yul\":2854:2859   */\n  dup2\n    /* \"#utility.yul\":2822:2860   */\n  tag_13\n  jump\t// in\ntag_65:\n    /* \"#utility.yul\":2906:2935   */\n  tag_66\n    /* \"#utility.yul\":2924:2934   */\n  dup5\n    /* \"#utility.yul\":2906:2935   */\n  tag_14\n  jump\t// in\ntag_66:\n    /* \"#utility.yul\":2896:2904   */\n  dup2\n    /* \"#utility.yul\":2892:2936   */\n  add\n    /* \"#utility.yul\":3089:3091   */\n  0x20\n    /* \"#utility.yul\":3077:3087   */\n  dup6\n    /* \"#utility.yul\":3074:3092   */\n  lt\n    /* \"#utility.yul\":3071:3120   */\n  iszero\n  tag_67\n  jumpi\n    /* \"#utility.yul\":3110:3118   */\n  dup2\n    /* \"#utility.yul\":3095:3118   */\n  swap1\n  pop\n    /* \"#utility.yul\":3071:3120   */\ntag_67:\n    /* \"#utility.yul\":3133:3213   */\n  tag_68\n    /* \"#utility.yul\":3189:3211   */\n  tag_69\n    /* \"#utility.yul\":3207:3210   */\n  dup6\n    /* \"#utility.yul\":3189:3211   */\n  tag_14\n  jump\t// in\ntag_69:\n    /* \"#utility.yul\":3179:3187   */\n  dup4\n    /* \"#utility.yul\":3175:3212   */\n  add\n    /* \"#utility.yul\":3162:3173   */\n  dup3\n    /* \"#utility.yul\":3133:3213   */\n  tag_24\n  jump\t// in\ntag_68:\n    /* \"#utility.yul\":2792:3223   */\n  pop\n  pop\n    /* \"#utility.yul\":2777:3223   */\ntag_64:\n    /* \"#utility.yul\":2687:3230   */\n  pop\n  pop\n  pop\n  jump\t// out\n    /* \"#utility.yul\":3236:3353   */\ntag_26:\n    /* \"#utility.yul\":3290:3298   */\n  0x00\n    /* \"#utility.yul\":3340:3345   */\n  dup3\n    /* \"#utility.yul\":3334:3338   */\n  dup3\n    /* \"#utility.yul\":3330:3346   */\n  shr\n    /* \"#utility.yul\":3309:3346   */\n  swap1\n  pop\n    /* \"#utility.yul\":3236:3353   */\n  swap3\n  swap2\n  pop\n  pop\n  jump\t// out\n    /* \"#utility.yul\":3359:3528   */\ntag_27:\n    /* \"#utility.yul\":3403:3409   */\n  0x00\n    /* \"#utility.yul\":3436:3487   */\n  tag_72\n    /* \"#utility.yul\":3484:3485   */\n  0x00\n    /* \"#utility.yul\":3480:3486   */\n  not\n    /* \"#utility.yul\":3472:3477   */\n  dup5\n    /* \"#utility.yul\":3469:3470   */\n  0x08\n    /* \"#utility.yul\":3465:3478   */\n  mul\n    /* \"#utility.yul\":3436:3487   */\n  tag_26\n  jump\t// in\ntag_72:\n    /* \"#utility.yul\":3432:3488   */\n  not\n    /* \"#utility.yul\":3517:3521   */\n  dup1\n    /* \"#utility.yul\":3511:3515   */\n  dup4\n    /* \"#utility.yul\":3507:3522   */\n  and\n    /* \"#utility.yul\":3497:3522   */\n  swap2\n  pop\n    /* \"#utility.yul\":3410:3528   */\n  pop\n    /* \"#utility.yul\":3359:3528   */\n  swap3\n  swap2\n  pop\n  pop\n  jump\t// out\n    /* \"#utility.yul\":3533:3828   */\ntag_28:\n    /* \"#utility.yul\":3609:3613   */\n  0x00\n    /* \"#utility.yul\":3755:3784   */\n  tag_74\n    /* \"#utility.yul\":3780:3783   */\n  dup4\n    /* \"#utility.yul\":3774:3778   */\n  dup4\n    /* \"#utility.yul\":3755:3784   */\n  tag_27\n  jump\t// in\ntag_74:\n    /* \"#utility.yul\":3747:3784   */\n  swap2\n  pop\n    /* \"#utility.yul\":3817:3820   */\n  dup3\n    /* \"#utility.yul\":3814:3815   */\n  0x02\n    /* \"#utility.yul\":3810:3821   */\n  mul\n    /* \"#utility.yul\":3804:3808   */\n  dup3\n    /* \"#utility.yul\":3801:3822   */\n  or\n    /* \"#utility.yul\":3793:3822   */\n  swap1\n  pop\n    /* \"#utility.yul\":3533:3828   */\n  swap3\n  swap2\n  pop\n  pop\n  jump\t// out\n    /* \"#utility.yul\":3833:5228   */\ntag_5:\n    /* \"#utility.yul\":3950:3987   */\n  tag_76\n    /* \"#utility.yul\":3983:3986   */\n  dup3\n    /* \"#utility.yul\":3950:3987   */\n  tag_9\n  jump\t// in\ntag_76:\n    /* \"#utility.yul\":4052:4070   */\n  0xffffffffffffffff\n    /* \"#utility.yul\":4044:4050   */\n  dup2\n    /* \"#utility.yul\":4041:4071   */\n  gt\n    /* \"#utility.yul\":4038:4094   */\n  iszero\n  tag_77\n  jumpi\n    /* \"#utility.yul\":4074:4092   */\n  tag_78\n  tag_10\n  jump\t// in\ntag_78:\n    /* \"#utility.yul\":4038:4094   */\ntag_77:\n    /* \"#utility.yul\":4118:4156   */\n  tag_79\n    /* \"#utility.yul\":4150:4154   */\n  dup3\n    /* \"#utility.yul\":4144:4155   */\n  sload\n    /* \"#utility.yul\":4118:4156   */\n  tag_12\n  jump\t// in\ntag_79:\n    /* \"#utility.yul\":4203:4270   */\n  tag_80\n    /* \"#utility.yul\":4263:4269   */\n  dup3\n    /* \"#utility.yul\":4255:4261   */\n  dup3\n    /* \"#utility.yul\":4249:4253   */\n  dup6\n    /* \"#utility.yul\":4203:4270   */\n  tag_25\n  jump\t// in\ntag_80:\n    /* \"#utility.yul\":4297:4298   */\n  0x00\n    /* \"#utility.yul\":4321:4325   */\n  0x20\n    /* \"#utility.yul\":4308:4325   */\n  swap1\n  pop\n    /* \"#utility.yul\":4353:4355   */\n  0x1f\n    /* \"#utility.yul\":4345:4351   */\n  dup4\n    /* \"#utility.yul\":4342:4356   */\n  gt\n    /* \"#utility.yul\":4370:4371   */\n  0x01\n    /* \"#utility.yul\":4365:4983   */\n  dup2\n  eq\n  tag_82\n  jumpi\n    /* \"#utility.yul\":5027:5028   */\n  0x00\n    /* \"#utility.yul\":5044:5050   */\n  dup5\n    /* \"#utility.yul\":5041:5118   */\n  iszero\n  tag_83\n  jumpi\n    /* \"#utility.yul\":5093:5102   */\n  dup3\n    /* \"#utility.yul\":5088:5091   */\n  dup8\n    /* \"#utility.yul\":5084:5103   */\n  add\n    /* \"#utility.yul\":5078:5104   */\n  mload\n    /* \"#utility.yul\":5069:5104   */\n  swap1\n  pop\n    /* \"#utility.yul\":5041:5118   */\ntag_83:\n    /* \"#utility.yul\":5144:5211   */\n  tag_84\n    /* \"#utility.yul\":5204:5210   */\n  dup6\n    /* \"#utility.yul\":5197:5202   */\n  dup3\n    /* \"#utility.yul\":5144:5211   */\n  tag_28\n  jump\t// in\ntag_84:\n    /* \"#utility.yul\":5138:5142   */\n  dup7\n    /* \"#utility.yul\":5131:5212   */\n  sstore\n    /* \"#utility.yul\":5000:5222   */\n  pop\n    /* \"#utility.yul\":4335:5222   */\n  jump(tag_81)\n    /* \"#utility.yul\":4365:4983   */\ntag_82:\n    /* \"#utility.yul\":4417:4421   */\n  0x1f\n    /* \"#utility.yul\":4413:4422   */\n  not\n    /* \"#utility.yul\":4405:4411   */\n  dup5\n    /* \"#utility.yul\":4401:4423   */\n  and\n    /* \"#utility.yul\":4451:4488   */\n  tag_85\n    /* \"#utility.yul\":4483:4487   */\n  dup7\n    /* \"#utility.yul\":4451:4488   */\n  tag_13\n  jump\t// in\ntag_85:\n    /* \"#utility.yul\":4510:4511   */\n  0x00\n    /* \"#utility.yul\":4524:4732   */\ntag_86:\n    /* \"#utility.yul\":4538:4545   */\n  dup3\n    /* \"#utility.yul\":4535:4536   */\n  dup2\n    /* \"#utility.yul\":4532:4546   */\n  lt\n    /* \"#utility.yul\":4524:4732   */\n  iszero\n  tag_88\n  jumpi\n    /* \"#utility.yul\":4617:4626   */\n  dup5\n    /* \"#utility.yul\":4612:4615   */\n  dup10\n    /* \"#utility.yul\":4608:4627   */\n  add\n    /* \"#utility.yul\":4602:4628   */\n  mload\n    /* \"#utility.yul\":4594:4600   */\n  dup3\n    /* \"#utility.yul\":4587:4629   */\n  sstore\n    /* \"#utility.yul\":4668:4669   */\n  0x01\n    /* \"#utility.yul\":4660:4666   */\n  dup3\n    /* \"#utility.yul\":4656:4670   */\n  add\n    /* \"#utility.yul\":4646:4670   */\n  swap2\n  pop\n    /* \"#utility.yul\":4715:4717   */\n  0x20\n    /* \"#utility.yul\":4704:4713   */\n  dup6\n    /* \"#utility.yul\":4700:4718   */\n  add\n    /* \"#utility.yul\":4687:4718   */\n  swap5\n  pop\n    /* \"#utility.yul\":4561:4565   */\n  0x20\n    /* \"#utility.yul\":4558:4559   */\n  dup2\n    /* \"#utility.yul\":4554:4566   */\n  add\n    /* \"#utility.yul\":4549:4566   */\n  swap1\n  pop\n    /* \"#utility.yul\":4524:4732   */\n  jump(tag_86)\ntag_88:\n    /* \"#utility.yul\":4760:4766   */\n  dup7\n    /* \"#utility.yul\":4751:4758   */\n  dup4\n    /* \"#utility.yul\":4748:4767   */\n  lt\n    /* \"#utility.yul\":4745:4924   */\n  iszero\n  tag_89\n  jumpi\n    /* \"#utility.yul\":4818:4827   */\n  dup5\n    /* \"#utility.yul\":4813:4816   */\n  dup10\n    /* \"#utility.yul\":4809:4828   */\n  add\n    /* \"#utility.yul\":4803:4829   */\n  mload\n    /* \"#utility.yul\":4861:4909   */\n  tag_90\n    /* \"#utility.yul\":4903:4907   */\n  0x1f\n    /* \"#utility.yul\":4895:4901   */\n  dup10\n    /* \"#utility.yul\":4891:4908   */\n  and\n    /* \"#utility.yul\":4880:4889   */\n  dup3\n    /* \"#utility.yul\":4861:4909   */\n  tag_27\n  jump\t// in\ntag_90:\n    /* \"#utility.yul\":4853:4859   */\n  dup4\n    /* \"#utility.yul\":4846:4910   */\n  sstore\n    /* \"#utility.yul\":4768:4924   */\n  pop\n    /* \"#utility.yul\":4745:4924   */\ntag_89:\n    /* \"#utility.yul\":4970:4971   */\n  0x01\n    /* \"#utility.yul\":4966:4967   */\n  0x02\n    /* \"#utility.yul\":4958:4964   */\n  dup9\n    /* \"#utility.yul\":4954:4968   */\n  mul\n    /* \"#utility.yul\":4950:4972   */\n  add\n    /* \"#utility.yul\":4944:4948   */\n  dup9\n    /* \"#utility.yul\":4937:4973   */\n  sstore\n    /* \"#utility.yul\":4372:4983   */\n  pop\n  pop\n  pop\n    /* \"#utility.yul\":4335:5222   */\ntag_81:\n  pop\n    /* \"#utility.yul\":3925:5228   */\n  pop\n  pop\n  pop\n    /* \"#utility.yul\":3833:5228   */\n  pop\n  pop\n  jump\t// out\n    /* \"contracts/MyArray.sol\":57:532  contract MyMapping {... */\ntag_8:\n  dataSize(sub_0)\n  dup1\n  dataOffset(sub_0)\n  0x00\n  codecopy\n  0x00\n  return\nstop\n\nsub_0: assembly {\n        /* \"contracts/MyArray.sol\":57:532  contract MyMapping {... */\n      mstore(0x40, 0x80)\n      callvalue\n      dup1\n      iszero\n      tag_1\n      jumpi\n      0x00\n      dup1\n      revert\n    tag_1:\n      pop\n      jumpi(tag_2, lt(calldatasize, 0x04))\n      shr(0xe0, calldataload(0x00))\n      dup1\n      0x306c5a2d\n      eq\n      tag_3\n      jumpi\n      dup1\n      0x4622ab03\n      eq\n      tag_4\n      jumpi\n      dup1\n      0x68744046\n      eq\n      tag_5\n      jumpi\n    tag_2:\n      0x00\n      dup1\n      revert\n        /* \"contracts/MyArray.sol\":366:530  function addBooks(... */\n    tag_3:\n      tag_6\n      0x04\n      dup1\n      calldatasize\n      sub\n      dup2\n      add\n      swap1\n      tag_7\n      swap2\n      swap1\n      tag_8\n      jump\t// in\n    tag_7:\n      tag_9\n      jump\t// in\n    tag_6:\n      stop\n        /* \"contracts/MyArray.sol\":98:137  mapping(uint256 => string) public names */\n    tag_4:\n      tag_10\n      0x04\n      dup1\n      calldatasize\n      sub\n      dup2\n      add\n      swap1\n      tag_11\n      swap2\n      swap1\n      tag_12\n      jump\t// in\n    tag_11:\n      tag_13\n      jump\t// in\n    tag_10:\n      mload(0x40)\n      tag_14\n      swap2\n      swap1\n      tag_15\n      jump\t// in\n    tag_14:\n      mload(0x40)\n      dup1\n      swap2\n      sub\n      swap1\n      return\n        /* \"contracts/MyArray.sol\":143:180  mapping(uint256 => Book) public books */\n    tag_5:\n      tag_16\n      0x04\n      dup1\n      calldatasize\n      sub\n      dup2\n      add\n      swap1\n      tag_17\n      swap2\n      swap1\n      tag_12\n      jump\t// in\n    tag_17:\n      tag_18\n      jump\t// in\n    tag_16:\n      mload(0x40)\n      tag_19\n      swap3\n      swap2\n      swap1\n      tag_20\n      jump\t// in\n    tag_19:\n      mload(0x40)\n      dup1\n      swap2\n      sub\n      swap1\n      return\n        /* \"contracts/MyArray.sol\":366:530  function addBooks(... */\n    tag_9:\n        /* \"contracts/MyArray.sol\":502:523  Book(_title, _author) */\n      mload(0x40)\n      dup1\n      0x40\n      add\n      0x40\n      mstore\n      dup1\n        /* \"contracts/MyArray.sol\":507:513  _title */\n      dup4\n        /* \"contracts/MyArray.sol\":502:523  Book(_title, _author) */\n      dup2\n      mstore\n      0x20\n      add\n        /* \"contracts/MyArray.sol\":515:522  _author */\n      dup3\n        /* \"contracts/MyArray.sol\":502:523  Book(_title, _author) */\n      dup2\n      mstore\n      pop\n        /* \"contracts/MyArray.sol\":489:494  books */\n      0x01\n        /* \"contracts/MyArray.sol\":489:499  books[_id] */\n      0x00\n        /* \"contracts/MyArray.sol\":495:498  _id */\n      dup6\n        /* \"contracts/MyArray.sol\":489:499  books[_id] */\n      dup2\n      mstore\n      0x20\n      add\n      swap1\n      dup2\n      mstore\n      0x20\n      add\n      0x00\n      keccak256\n        /* \"contracts/MyArray.sol\":489:523  books[_id] = Book(_title, _author) */\n      0x00\n      dup3\n      add\n      mload\n      dup2\n      0x00\n      add\n      swap1\n      dup2\n      tag_22\n      swap2\n      swap1\n      tag_23\n      jump\t// in\n    tag_22:\n      pop\n      0x20\n      dup3\n      add\n      mload\n      dup2\n      0x01\n      add\n      swap1\n      dup2\n      tag_24\n      swap2\n      swap1\n      tag_23\n      jump\t// in\n    tag_24:\n      pop\n      swap1\n      pop\n      pop\n        /* \"contracts/MyArray.sol\":366:530  function addBooks(... */\n      pop\n      pop\n      pop\n      jump\t// out\n        /* \"contracts/MyArray.sol\":98:137  mapping(uint256 => string) public names */\n    tag_13:\n      mstore(0x20, 0x00)\n      dup1\n      0x00\n      mstore\n      keccak256(0x00, 0x40)\n      0x00\n      swap2\n      pop\n      swap1\n      pop\n      dup1\n      sload\n      tag_25\n      swap1\n      tag_26\n      jump\t// in\n    tag_25:\n      dup1\n      0x1f\n      add\n      0x20\n      dup1\n      swap2\n      div\n      mul\n      0x20\n      add\n      mload(0x40)\n      swap1\n      dup2\n      add\n      0x40\n      mstore\n      dup1\n      swap3\n      swap2\n      swap1\n      dup2\n      dup2\n      mstore\n      0x20\n      add\n      dup3\n      dup1\n      sload\n      tag_27\n      swap1\n      tag_26\n      jump\t// in\n    tag_27:\n      dup1\n      iszero\n      tag_28\n      jumpi\n      dup1\n      0x1f\n      lt\n      tag_29\n      jumpi\n      0x0100\n      dup1\n      dup4\n      sload\n      div\n      mul\n      dup4\n      mstore\n      swap2\n      0x20\n      add\n      swap2\n      jump(tag_28)\n    tag_29:\n      dup3\n      add\n      swap2\n      swap1\n      0x00\n      mstore\n      keccak256(0x00, 0x20)\n      swap1\n    tag_30:\n      dup2\n      sload\n      dup2\n      mstore\n      swap1\n      0x01\n      add\n      swap1\n      0x20\n      add\n      dup1\n      dup4\n      gt\n      tag_30\n      jumpi\n      dup3\n      swap1\n      sub\n      0x1f\n      and\n      dup3\n      add\n      swap2\n    tag_28:\n      pop\n      pop\n      pop\n      pop\n      pop\n      dup2\n      jump\t// out\n        /* \"contracts/MyArray.sol\":143:180  mapping(uint256 => Book) public books */\n    tag_18:\n      mstore(0x20, 0x01)\n      dup1\n      0x00\n      mstore\n      keccak256(0x00, 0x40)\n      0x00\n      swap2\n      pop\n      swap1\n      pop\n      dup1\n      0x00\n      add\n      dup1\n      sload\n      tag_31\n      swap1\n      tag_26\n      jump\t// in\n    tag_31:\n      dup1\n      0x1f\n      add\n      0x20\n      dup1\n      swap2\n      div\n      mul\n      0x20\n      add\n      mload(0x40)\n      swap1\n      dup2\n      add\n      0x40\n      mstore\n      dup1\n      swap3\n      swap2\n      swap1\n      dup2\n      dup2\n      mstore\n      0x20\n      add\n      dup3\n      dup1\n      sload\n      tag_32\n      swap1\n      tag_26\n      jump\t// in\n    tag_32:\n      dup1\n      iszero\n      tag_33\n      jumpi\n      dup1\n      0x1f\n      lt\n      tag_34\n      jumpi\n      0x0100\n      dup1\n      dup4\n      sload\n      div\n      mul\n      dup4\n      mstore\n      swap2\n      0x20\n      add\n      swap2\n      jump(tag_33)\n    tag_34:\n      dup3\n      add\n      swap2\n      swap1\n      0x00\n      mstore\n      keccak256(0x00, 0x20)\n      swap1\n    tag_35:\n      dup2\n      sload\n      dup2\n      mstore\n      swap1\n      0x01\n      add\n      swap1\n      0x20\n      add\n      dup1\n      dup4\n      gt\n      tag_35\n      jumpi\n      dup3\n      swap1\n      sub\n      0x1f\n      and\n      dup3\n      add\n      swap2\n    tag_33:\n      pop\n      pop\n      pop\n      pop\n      pop\n      swap1\n      dup1\n      0x01\n      add\n      dup1\n      sload\n      tag_36\n      swap1\n      tag_26\n      jump\t// in\n    tag_36:\n      dup1\n      0x1f\n      add\n      0x20\n      dup1\n      swap2\n      div\n      mul\n      0x20\n      add\n      mload(0x40)\n      swap1\n      dup2\n      add\n      0x40\n      mstore\n      dup1\n      swap3\n      swap2\n      swap1\n      dup2\n      dup2\n      mstore\n      0x20\n      add\n      dup3\n      dup1\n      sload\n      tag_37\n      swap1\n      tag_26\n      jump\t// in\n    tag_37:\n      dup1\n      iszero\n      tag_38\n      jumpi\n      dup1\n      0x1f\n      lt\n      tag_39\n      jumpi\n      0x0100\n      dup1\n      dup4\n      sload\n      div\n      mul\n      dup4\n      mstore\n      swap2\n      0x20\n      add\n      swap2\n      jump(tag_38)\n    tag_39:\n      dup3\n      add\n      swap2\n      swap1\n      0x00\n      mstore\n      keccak256(0x00, 0x20)\n      swap1\n    tag_40:\n      dup2\n      sload\n      dup2\n      mstore\n      swap1\n      0x01\n      add\n      swap1\n      0x20\n      add\n      dup1\n      dup4\n      gt\n      tag_40\n      jumpi\n      dup3\n      swap1\n      sub\n      0x1f\n      and\n      dup3\n      add\n      swap2\n    tag_38:\n      pop\n      pop\n      pop\n      pop\n      pop\n      swap1\n      pop\n      dup3\n      jump\t// out\n        /* \"#utility.yul\":7:82   */\n    tag_41:\n        /* \"#utility.yul\":40:46   */\n      0x00\n        /* \"#utility.yul\":73:75   */\n      0x40\n        /* \"#utility.yul\":67:76   */\n      mload\n        /* \"#utility.yul\":57:76   */\n      swap1\n      pop\n        /* \"#utility.yul\":7:82   */\n      swap1\n      jump\t// out\n        /* \"#utility.yul\":88:205   */\n    tag_42:\n        /* \"#utility.yul\":197:198   */\n      0x00\n        /* \"#utility.yul\":194:195   */\n      dup1\n        /* \"#utility.yul\":187:199   */\n      revert\n        /* \"#utility.yul\":211:328   */\n    tag_43:\n        /* \"#utility.yul\":320:321   */\n      0x00\n        /* \"#utility.yul\":317:318   */\n      dup1\n        /* \"#utility.yul\":310:322   */\n      revert\n        /* \"#utility.yul\":334:411   */\n    tag_44:\n        /* \"#utility.yul\":371:378   */\n      0x00\n        /* \"#utility.yul\":400:405   */\n      dup2\n        /* \"#utility.yul\":389:405   */\n      swap1\n      pop\n        /* \"#utility.yul\":334:411   */\n      swap2\n      swap1\n      pop\n      jump\t// out\n        /* \"#utility.yul\":417:539   */\n    tag_45:\n        /* \"#utility.yul\":490:514   */\n      tag_83\n        /* \"#utility.yul\":508:513   */\n      dup2\n        /* \"#utility.yul\":490:514   */\n      tag_44\n      jump\t// in\n    tag_83:\n        /* \"#utility.yul\":483:488   */\n      dup2\n        /* \"#utility.yul\":480:515   */\n      eq\n        /* \"#utility.yul\":470:533   */\n      tag_84\n      jumpi\n        /* \"#utility.yul\":529:530   */\n      0x00\n        /* \"#utility.yul\":526:527   */\n      dup1\n        /* \"#utility.yul\":519:531   */\n      revert\n        /* \"#utility.yul\":470:533   */\n    tag_84:\n        /* \"#utility.yul\":417:539   */\n      pop\n      jump\t// out\n        /* \"#utility.yul\":545:684   */\n    tag_46:\n        /* \"#utility.yul\":591:596   */\n      0x00\n        /* \"#utility.yul\":629:635   */\n      dup2\n        /* \"#utility.yul\":616:636   */\n      calldataload\n        /* \"#utility.yul\":607:636   */\n      swap1\n      pop\n        /* \"#utility.yul\":645:678   */\n      tag_86\n        /* \"#utility.yul\":672:677   */\n      dup2\n        /* \"#utility.yul\":645:678   */\n      tag_45\n      jump\t// in\n    tag_86:\n        /* \"#utility.yul\":545:684   */\n      swap3\n      swap2\n      pop\n      pop\n      jump\t// out\n        /* \"#utility.yul\":690:807   */\n    tag_47:\n        /* \"#utility.yul\":799:800   */\n      0x00\n        /* \"#utility.yul\":796:797   */\n      dup1\n        /* \"#utility.yul\":789:801   */\n      revert\n        /* \"#utility.yul\":813:930   */\n    tag_48:\n        /* \"#utility.yul\":922:923   */\n      0x00\n        /* \"#utility.yul\":919:920   */\n      dup1\n        /* \"#utility.yul\":912:924   */\n      revert\n        /* \"#utility.yul\":936:1038   */\n    tag_49:\n        /* \"#utility.yul\":977:983   */\n      0x00\n        /* \"#utility.yul\":1028:1030   */\n      0x1f\n        /* \"#utility.yul\":1024:1031   */\n      not\n        /* \"#utility.yul\":1019:1021   */\n      0x1f\n        /* \"#utility.yul\":1012:1017   */\n      dup4\n        /* \"#utility.yul\":1008:1022   */\n      add\n        /* \"#utility.yul\":1004:1032   */\n      and\n        /* \"#utility.yul\":994:1032   */\n      swap1\n      pop\n        /* \"#utility.yul\":936:1038   */\n      swap2\n      swap1\n      pop\n      jump\t// out\n        /* \"#utility.yul\":1044:1224   */\n    tag_50:\n        /* \"#utility.yul\":1092:1169   */\n      0x4e487b7100000000000000000000000000000000000000000000000000000000\n        /* \"#utility.yul\":1089:1090   */\n      0x00\n        /* \"#utility.yul\":1082:1170   */\n      mstore\n        /* \"#utility.yul\":1189:1193   */\n      0x41\n        /* \"#utility.yul\":1186:1187   */\n      0x04\n        /* \"#utility.yul\":1179:1194   */\n      mstore\n        /* \"#utility.yul\":1213:1217   */\n      0x24\n        /* \"#utility.yul\":1210:1211   */\n      0x00\n        /* \"#utility.yul\":1203:1218   */\n      revert\n        /* \"#utility.yul\":1230:1511   */\n    tag_51:\n        /* \"#utility.yul\":1313:1340   */\n      tag_92\n        /* \"#utility.yul\":1335:1339   */\n      dup3\n        /* \"#utility.yul\":1313:1340   */\n      tag_49\n      jump\t// in\n    tag_92:\n        /* \"#utility.yul\":1305:1311   */\n      dup2\n        /* \"#utility.yul\":1301:1341   */\n      add\n        /* \"#utility.yul\":1443:1449   */\n      dup2\n        /* \"#utility.yul\":1431:1441   */\n      dup2\n        /* \"#utility.yul\":1428:1450   */\n      lt\n        /* \"#utility.yul\":1407:1425   */\n      0xffffffffffffffff\n        /* \"#utility.yul\":1395:1405   */\n      dup3\n        /* \"#utility.yul\":1392:1426   */\n      gt\n        /* \"#utility.yul\":1389:1451   */\n      or\n        /* \"#utility.yul\":1386:1474   */\n      iszero\n      tag_93\n      jumpi\n        /* \"#utility.yul\":1454:1472   */\n      tag_94\n      tag_50\n      jump\t// in\n    tag_94:\n        /* \"#utility.yul\":1386:1474   */\n    tag_93:\n        /* \"#utility.yul\":1494:1504   */\n      dup1\n        /* \"#utility.yul\":1490:1492   */\n      0x40\n        /* \"#utility.yul\":1483:1505   */\n      mstore\n        /* \"#utility.yul\":1273:1511   */\n      pop\n        /* \"#utility.yul\":1230:1511   */\n      pop\n      pop\n      jump\t// out\n        /* \"#utility.yul\":1517:1646   */\n    tag_52:\n        /* \"#utility.yul\":1551:1557   */\n      0x00\n        /* \"#utility.yul\":1578:1598   */\n      tag_96\n      tag_41\n      jump\t// in\n    tag_96:\n        /* \"#utility.yul\":1568:1598   */\n      swap1\n      pop\n        /* \"#utility.yul\":1607:1640   */\n      tag_97\n        /* \"#utility.yul\":1635:1639   */\n      dup3\n        /* \"#utility.yul\":1627:1633   */\n      dup3\n        /* \"#utility.yul\":1607:1640   */\n      tag_51\n      jump\t// in\n    tag_97:\n        /* \"#utility.yul\":1517:1646   */\n      swap2\n      swap1\n      pop\n      jump\t// out\n        /* \"#utility.yul\":1652:1960   */\n    tag_53:\n        /* \"#utility.yul\":1714:1718   */\n      0x00\n        /* \"#utility.yul\":1804:1822   */\n      0xffffffffffffffff\n        /* \"#utility.yul\":1796:1802   */\n      dup3\n        /* \"#utility.yul\":1793:1823   */\n      gt\n        /* \"#utility.yul\":1790:1846   */\n      iszero\n      tag_99\n      jumpi\n        /* \"#utility.yul\":1826:1844   */\n      tag_100\n      tag_50\n      jump\t// in\n    tag_100:\n        /* \"#utility.yul\":1790:1846   */\n    tag_99:\n        /* \"#utility.yul\":1864:1893   */\n      tag_101\n        /* \"#utility.yul\":1886:1892   */\n      dup3\n        /* \"#utility.yul\":1864:1893   */\n      tag_49\n      jump\t// in\n    tag_101:\n        /* \"#utility.yul\":1856:1893   */\n      swap1\n      pop\n        /* \"#utility.yul\":1948:1952   */\n      0x20\n        /* \"#utility.yul\":1942:1946   */\n      dup2\n        /* \"#utility.yul\":1938:1953   */\n      add\n        /* \"#utility.yul\":1930:1953   */\n      swap1\n      pop\n        /* \"#utility.yul\":1652:1960   */\n      swap2\n      swap1\n      pop\n      jump\t// out\n        /* \"#utility.yul\":1966:2114   */\n    tag_54:\n        /* \"#utility.yul\":2064:2070   */\n      dup3\n        /* \"#utility.yul\":2059:2062   */\n      dup2\n        /* \"#utility.yul\":2054:2057   */\n      dup4\n        /* \"#utility.yul\":2041:2071   */\n      calldatacopy\n        /* \"#utility.yul\":2105:2106   */\n      0x00\n        /* \"#utility.yul\":2096:2102   */\n      dup4\n        /* \"#utility.yul\":2091:2094   */\n      dup4\n        /* \"#utility.yul\":2087:2103   */\n      add\n        /* \"#utility.yul\":2080:2107   */\n      mstore\n        /* \"#utility.yul\":1966:2114   */\n      pop\n      pop\n      pop\n      jump\t// out\n        /* \"#utility.yul\":2120:2545   */\n    tag_55:\n        /* \"#utility.yul\":2198:2203   */\n      0x00\n        /* \"#utility.yul\":2223:2289   */\n      tag_104\n        /* \"#utility.yul\":2239:2288   */\n      tag_105\n        /* \"#utility.yul\":2281:2287   */\n      dup5\n        /* \"#utility.yul\":2239:2288   */\n      tag_53\n      jump\t// in\n    tag_105:\n        /* \"#utility.yul\":2223:2289   */\n      tag_52\n      jump\t// in\n    tag_104:\n        /* \"#utility.yul\":2214:2289   */\n      swap1\n      pop\n        /* \"#utility.yul\":2312:2318   */\n      dup3\n        /* \"#utility.yul\":2305:2310   */\n      dup2\n        /* \"#utility.yul\":2298:2319   */\n      mstore\n        /* \"#utility.yul\":2350:2354   */\n      0x20\n        /* \"#utility.yul\":2343:2348   */\n      dup2\n        /* \"#utility.yul\":2339:2355   */\n      add\n        /* \"#utility.yul\":2388:2391   */\n      dup5\n        /* \"#utility.yul\":2379:2385   */\n      dup5\n        /* \"#utility.yul\":2374:2377   */\n      dup5\n        /* \"#utility.yul\":2370:2386   */\n      add\n        /* \"#utility.yul\":2367:2392   */\n      gt\n        /* \"#utility.yul\":2364:2476   */\n      iszero\n      tag_106\n      jumpi\n        /* \"#utility.yul\":2395:2474   */\n      tag_107\n      tag_48\n      jump\t// in\n    tag_107:\n        /* \"#utility.yul\":2364:2476   */\n    tag_106:\n        /* \"#utility.yul\":2485:2539   */\n      tag_108\n        /* \"#utility.yul\":2532:2538   */\n      dup5\n        /* \"#utility.yul\":2527:2530   */\n      dup3\n        /* \"#utility.yul\":2522:2525   */\n      dup6\n        /* \"#utility.yul\":2485:2539   */\n      tag_54\n      jump\t// in\n    tag_108:\n        /* \"#utility.yul\":2204:2545   */\n      pop\n        /* \"#utility.yul\":2120:2545   */\n      swap4\n      swap3\n      pop\n      pop\n      pop\n      jump\t// out\n        /* \"#utility.yul\":2565:2905   */\n    tag_56:\n        /* \"#utility.yul\":2621:2626   */\n      0x00\n        /* \"#utility.yul\":2670:2673   */\n      dup3\n        /* \"#utility.yul\":2663:2667   */\n      0x1f\n        /* \"#utility.yul\":2655:2661   */\n      dup4\n        /* \"#utility.yul\":2651:2668   */\n      add\n        /* \"#utility.yul\":2647:2674   */\n      slt\n        /* \"#utility.yul\":2637:2759   */\n      tag_110\n      jumpi\n        /* \"#utility.yul\":2678:2757   */\n      tag_111\n      tag_47\n      jump\t// in\n    tag_111:\n        /* \"#utility.yul\":2637:2759   */\n    tag_110:\n        /* \"#utility.yul\":2795:2801   */\n      dup2\n        /* \"#utility.yul\":2782:2802   */\n      calldataload\n        /* \"#utility.yul\":2820:2899   */\n      tag_112\n        /* \"#utility.yul\":2895:2898   */\n      dup5\n        /* \"#utility.yul\":2887:2893   */\n      dup3\n        /* \"#utility.yul\":2880:2884   */\n      0x20\n        /* \"#utility.yul\":2872:2878   */\n      dup7\n        /* \"#utility.yul\":2868:2885   */\n      add\n        /* \"#utility.yul\":2820:2899   */\n      tag_55\n      jump\t// in\n    tag_112:\n        /* \"#utility.yul\":2811:2899   */\n      swap2\n      pop\n        /* \"#utility.yul\":2627:2905   */\n      pop\n        /* \"#utility.yul\":2565:2905   */\n      swap3\n      swap2\n      pop\n      pop\n      jump\t// out\n        /* \"#utility.yul\":2911:3890   */\n    tag_8:\n        /* \"#utility.yul\":3008:3014   */\n      0x00\n        /* \"#utility.yul\":3016:3022   */\n      dup1\n        /* \"#utility.yul\":3024:3030   */\n      0x00\n        /* \"#utility.yul\":3073:3075   */\n      0x60\n        /* \"#utility.yul\":3061:3070   */\n      dup5\n        /* \"#utility.yul\":3052:3059   */\n      dup7\n        /* \"#utility.yul\":3048:3071   */\n      sub\n        /* \"#utility.yul\":3044:3076   */\n      slt\n        /* \"#utility.yul\":3041:3160   */\n      iszero\n      tag_114\n      jumpi\n        /* \"#utility.yul\":3079:3158   */\n      tag_115\n      tag_42\n      jump\t// in\n    tag_115:\n        /* \"#utility.yul\":3041:3160   */\n    tag_114:\n        /* \"#utility.yul\":3199:3200   */\n      0x00\n        /* \"#utility.yul\":3224:3277   */\n      tag_116\n        /* \"#utility.yul\":3269:3276   */\n      dup7\n        /* \"#utility.yul\":3260:3266   */\n      dup3\n        /* \"#utility.yul\":3249:3258   */\n      dup8\n        /* \"#utility.yul\":3245:3267   */\n      add\n        /* \"#utility.yul\":3224:3277   */\n      tag_46\n      jump\t// in\n    tag_116:\n        /* \"#utility.yul\":3214:3277   */\n      swap4\n      pop\n        /* \"#utility.yul\":3170:3287   */\n      pop\n        /* \"#utility.yul\":3354:3356   */\n      0x20\n        /* \"#utility.yul\":3343:3352   */\n      dup5\n        /* \"#utility.yul\":3339:3357   */\n      add\n        /* \"#utility.yul\":3326:3358   */\n      calldataload\n        /* \"#utility.yul\":3385:3403   */\n      0xffffffffffffffff\n        /* \"#utility.yul\":3377:3383   */\n      dup2\n        /* \"#utility.yul\":3374:3404   */\n      gt\n        /* \"#utility.yul\":3371:3488   */\n      iszero\n      tag_117\n      jumpi\n        /* \"#utility.yul\":3407:3486   */\n      tag_118\n      tag_43\n      jump\t// in\n    tag_118:\n        /* \"#utility.yul\":3371:3488   */\n    tag_117:\n        /* \"#utility.yul\":3512:3575   */\n      tag_119\n        /* \"#utility.yul\":3567:3574   */\n      dup7\n        /* \"#utility.yul\":3558:3564   */\n      dup3\n        /* \"#utility.yul\":3547:3556   */\n      dup8\n        /* \"#utility.yul\":3543:3565   */\n      add\n        /* \"#utility.yul\":3512:3575   */\n      tag_56\n      jump\t// in\n    tag_119:\n        /* \"#utility.yul\":3502:3575   */\n      swap3\n      pop\n        /* \"#utility.yul\":3297:3585   */\n      pop\n        /* \"#utility.yul\":3652:3654   */\n      0x40\n        /* \"#utility.yul\":3641:3650   */\n      dup5\n        /* \"#utility.yul\":3637:3655   */\n      add\n        /* \"#utility.yul\":3624:3656   */\n      calldataload\n        /* \"#utility.yul\":3683:3701   */\n      0xffffffffffffffff\n        /* \"#utility.yul\":3675:3681   */\n      dup2\n        /* \"#utility.yul\":3672:3702   */\n      gt\n        /* \"#utility.yul\":3669:3786   */\n      iszero\n      tag_120\n      jumpi\n        /* \"#utility.yul\":3705:3784   */\n      tag_121\n      tag_43\n      jump\t// in\n    tag_121:\n        /* \"#utility.yul\":3669:3786   */\n    tag_120:\n        /* \"#utility.yul\":3810:3873   */\n      tag_122\n        /* \"#utility.yul\":3865:3872   */\n      dup7\n        /* \"#utility.yul\":3856:3862   */\n      dup3\n        /* \"#utility.yul\":3845:3854   */\n      dup8\n        /* \"#utility.yul\":3841:3863   */\n      add\n        /* \"#utility.yul\":3810:3873   */\n      tag_56\n      jump\t// in\n    tag_122:\n        /* \"#utility.yul\":3800:3873   */\n      swap2\n      pop\n        /* \"#utility.yul\":3595:3883   */\n      pop\n        /* \"#utility.yul\":2911:3890   */\n      swap3\n      pop\n      swap3\n      pop\n      swap3\n      jump\t// out\n        /* \"#utility.yul\":3896:4225   */\n    tag_12:\n        /* \"#utility.yul\":3955:3961   */\n      0x00\n        /* \"#utility.yul\":4004:4006   */\n      0x20\n        /* \"#utility.yul\":3992:4001   */\n      dup3\n        /* \"#utility.yul\":3983:3990   */\n      dup5\n        /* \"#utility.yul\":3979:4002   */\n      sub\n        /* \"#utility.yul\":3975:4007   */\n      slt\n        /* \"#utility.yul\":3972:4091   */\n      iszero\n      tag_124\n      jumpi\n        /* \"#utility.yul\":4010:4089   */\n      tag_125\n      tag_42\n      jump\t// in\n    tag_125:\n        /* \"#utility.yul\":3972:4091   */\n    tag_124:\n        /* \"#utility.yul\":4130:4131   */\n      0x00\n        /* \"#utility.yul\":4155:4208   */\n      tag_126\n        /* \"#utility.yul\":4200:4207   */\n      dup5\n        /* \"#utility.yul\":4191:4197   */\n      dup3\n        /* \"#utility.yul\":4180:4189   */\n      dup6\n        /* \"#utility.yul\":4176:4198   */\n      add\n        /* \"#utility.yul\":4155:4208   */\n      tag_46\n      jump\t// in\n    tag_126:\n        /* \"#utility.yul\":4145:4208   */\n      swap2\n      pop\n        /* \"#utility.yul\":4101:4218   */\n      pop\n        /* \"#utility.yul\":3896:4225   */\n      swap3\n      swap2\n      pop\n      pop\n      jump\t// out\n        /* \"#utility.yul\":4231:4330   */\n    tag_57:\n        /* \"#utility.yul\":4283:4289   */\n      0x00\n        /* \"#utility.yul\":4317:4322   */\n      dup2\n        /* \"#utility.yul\":4311:4323   */\n      mload\n        /* \"#utility.yul\":4301:4323   */\n      swap1\n      pop\n        /* \"#utility.yul\":4231:4330   */\n      swap2\n      swap1\n      pop\n      jump\t// out\n        /* \"#utility.yul\":4336:4505   */\n    tag_58:\n        /* \"#utility.yul\":4420:4431   */\n      0x00\n        /* \"#utility.yul\":4454:4460   */\n      dup3\n        /* \"#utility.yul\":4449:4452   */\n      dup3\n        /* \"#utility.yul\":4442:4461   */\n      mstore\n        /* \"#utility.yul\":4494:4498   */\n      0x20\n        /* \"#utility.yul\":4489:4492   */\n      dup3\n        /* \"#utility.yul\":4485:4499   */\n      add\n        /* \"#utility.yul\":4470:4499   */\n      swap1\n      pop\n        /* \"#utility.yul\":4336:4505   */\n      swap3\n      swap2\n      pop\n      pop\n      jump\t// out\n        /* \"#utility.yul\":4511:4650   */\n    tag_59:\n        /* \"#utility.yul\":4600:4606   */\n      dup3\n        /* \"#utility.yul\":4595:4598   */\n      dup2\n        /* \"#utility.yul\":4590:4593   */\n      dup4\n        /* \"#utility.yul\":4584:4607   */\n      mcopy\n        /* \"#utility.yul\":4641:4642   */\n      0x00\n        /* \"#utility.yul\":4632:4638   */\n      dup4\n        /* \"#utility.yul\":4627:4630   */\n      dup4\n        /* \"#utility.yul\":4623:4639   */\n      add\n        /* \"#utility.yul\":4616:4643   */\n      mstore\n        /* \"#utility.yul\":4511:4650   */\n      pop\n      pop\n      pop\n      jump\t// out\n        /* \"#utility.yul\":4656:5033   */\n    tag_60:\n        /* \"#utility.yul\":4744:4747   */\n      0x00\n        /* \"#utility.yul\":4772:4811   */\n      tag_131\n        /* \"#utility.yul\":4805:4810   */\n      dup3\n        /* \"#utility.yul\":4772:4811   */\n      tag_57\n      jump\t// in\n    tag_131:\n        /* \"#utility.yul\":4827:4898   */\n      tag_132\n        /* \"#utility.yul\":4891:4897   */\n      dup2\n        /* \"#utility.yul\":4886:4889   */\n      dup6\n        /* \"#utility.yul\":4827:4898   */\n      tag_58\n      jump\t// in\n    tag_132:\n        /* \"#utility.yul\":4820:4898   */\n      swap4\n      pop\n        /* \"#utility.yul\":4907:4972   */\n      tag_133\n        /* \"#utility.yul\":4965:4971   */\n      dup2\n        /* \"#utility.yul\":4960:4963   */\n      dup6\n        /* \"#utility.yul\":4953:4957   */\n      0x20\n        /* \"#utility.yul\":4946:4951   */\n      dup7\n        /* \"#utility.yul\":4942:4958   */\n      add\n        /* \"#utility.yul\":4907:4972   */\n      tag_59\n      jump\t// in\n    tag_133:\n        /* \"#utility.yul\":4997:5026   */\n      tag_134\n        /* \"#utility.yul\":5019:5025   */\n      dup2\n        /* \"#utility.yul\":4997:5026   */\n      tag_49\n      jump\t// in\n    tag_134:\n        /* \"#utility.yul\":4992:4995   */\n      dup5\n        /* \"#utility.yul\":4988:5027   */\n      add\n        /* \"#utility.yul\":4981:5027   */\n      swap2\n      pop\n        /* \"#utility.yul\":4748:5033   */\n      pop\n        /* \"#utility.yul\":4656:5033   */\n      swap3\n      swap2\n      pop\n      pop\n      jump\t// out\n        /* \"#utility.yul\":5039:5352   */\n    tag_15:\n        /* \"#utility.yul\":5152:5156   */\n      0x00\n        /* \"#utility.yul\":5190:5192   */\n      0x20\n        /* \"#utility.yul\":5179:5188   */\n      dup3\n        /* \"#utility.yul\":5175:5193   */\n      add\n        /* \"#utility.yul\":5167:5193   */\n      swap1\n      pop\n        /* \"#utility.yul\":5239:5248   */\n      dup2\n        /* \"#utility.yul\":5233:5237   */\n      dup2\n        /* \"#utility.yul\":5229:5249   */\n      sub\n        /* \"#utility.yul\":5225:5226   */\n      0x00\n        /* \"#utility.yul\":5214:5223   */\n      dup4\n        /* \"#utility.yul\":5210:5227   */\n      add\n        /* \"#utility.yul\":5203:5250   */\n      mstore\n        /* \"#utility.yul\":5267:5345   */\n      tag_136\n        /* \"#utility.yul\":5340:5344   */\n      dup2\n        /* \"#utility.yul\":5331:5337   */\n      dup5\n        /* \"#utility.yul\":5267:5345   */\n      tag_60\n      jump\t// in\n    tag_136:\n        /* \"#utility.yul\":5259:5345   */\n      swap1\n      pop\n        /* \"#utility.yul\":5039:5352   */\n      swap3\n      swap2\n      pop\n      pop\n      jump\t// out\n        /* \"#utility.yul\":5358:5872   */\n    tag_20:\n        /* \"#utility.yul\":5519:5523   */\n      0x00\n        /* \"#utility.yul\":5557:5559   */\n      0x40\n        /* \"#utility.yul\":5546:5555   */\n      dup3\n        /* \"#utility.yul\":5542:5560   */\n      add\n        /* \"#utility.yul\":5534:5560   */\n      swap1\n      pop\n        /* \"#utility.yul\":5606:5615   */\n      dup2\n        /* \"#utility.yul\":5600:5604   */\n      dup2\n        /* \"#utility.yul\":5596:5616   */\n      sub\n        /* \"#utility.yul\":5592:5593   */\n      0x00\n        /* \"#utility.yul\":5581:5590   */\n      dup4\n        /* \"#utility.yul\":5577:5594   */\n      add\n        /* \"#utility.yul\":5570:5617   */\n      mstore\n        /* \"#utility.yul\":5634:5712   */\n      tag_138\n        /* \"#utility.yul\":5707:5711   */\n      dup2\n        /* \"#utility.yul\":5698:5704   */\n      dup6\n        /* \"#utility.yul\":5634:5712   */\n      tag_60\n      jump\t// in\n    tag_138:\n        /* \"#utility.yul\":5626:5712   */\n      swap1\n      pop\n        /* \"#utility.yul\":5759:5768   */\n      dup2\n        /* \"#utility.yul\":5753:5757   */\n      dup2\n        /* \"#utility.yul\":5749:5769   */\n      sub\n        /* \"#utility.yul\":5744:5746   */\n      0x20\n        /* \"#utility.yul\":5733:5742   */\n      dup4\n        /* \"#utility.yul\":5729:5747   */\n      add\n        /* \"#utility.yul\":5722:5770   */\n      mstore\n        /* \"#utility.yul\":5787:5865   */\n      tag_139\n        /* \"#utility.yul\":5860:5864   */\n      dup2\n        /* \"#utility.yul\":5851:5857   */\n      dup5\n        /* \"#utility.yul\":5787:5865   */\n      tag_60\n      jump\t// in\n    tag_139:\n        /* \"#utility.yul\":5779:5865   */\n      swap1\n      pop\n        /* \"#utility.yul\":5358:5872   */\n      swap4\n      swap3\n      pop\n      pop\n      pop\n      jump\t// out\n        /* \"#utility.yul\":5878:6058   */\n    tag_61:\n        /* \"#utility.yul\":5926:6003   */\n      0x4e487b7100000000000000000000000000000000000000000000000000000000\n        /* \"#utility.yul\":5923:5924   */\n      0x00\n        /* \"#utility.yul\":5916:6004   */\n      mstore\n        /* \"#utility.yul\":6023:6027   */\n      0x22\n        /* \"#utility.yul\":6020:6021   */\n      0x04\n        /* \"#utility.yul\":6013:6028   */\n      mstore\n        /* \"#utility.yul\":6047:6051   */\n      0x24\n        /* \"#utility.yul\":6044:6045   */\n      0x00\n        /* \"#utility.yul\":6037:6052   */\n      revert\n        /* \"#utility.yul\":6064:6384   */\n    tag_26:\n        /* \"#utility.yul\":6108:6114   */\n      0x00\n        /* \"#utility.yul\":6145:6146   */\n      0x02\n        /* \"#utility.yul\":6139:6143   */\n      dup3\n        /* \"#utility.yul\":6135:6147   */\n      div\n        /* \"#utility.yul\":6125:6147   */\n      swap1\n      pop\n        /* \"#utility.yul\":6192:6193   */\n      0x01\n        /* \"#utility.yul\":6186:6190   */\n      dup3\n        /* \"#utility.yul\":6182:6194   */\n      and\n        /* \"#utility.yul\":6213:6231   */\n      dup1\n        /* \"#utility.yul\":6203:6284   */\n      tag_142\n      jumpi\n        /* \"#utility.yul\":6269:6273   */\n      0x7f\n        /* \"#utility.yul\":6261:6267   */\n      dup3\n        /* \"#utility.yul\":6257:6274   */\n      and\n        /* \"#utility.yul\":6247:6274   */\n      swap2\n      pop\n        /* \"#utility.yul\":6203:6284   */\n    tag_142:\n        /* \"#utility.yul\":6331:6333   */\n      0x20\n        /* \"#utility.yul\":6323:6329   */\n      dup3\n        /* \"#utility.yul\":6320:6334   */\n      lt\n        /* \"#utility.yul\":6300:6318   */\n      dup2\n        /* \"#utility.yul\":6297:6335   */\n      sub\n        /* \"#utility.yul\":6294:6378   */\n      tag_143\n      jumpi\n        /* \"#utility.yul\":6350:6368   */\n      tag_144\n      tag_61\n      jump\t// in\n    tag_144:\n        /* \"#utility.yul\":6294:6378   */\n    tag_143:\n        /* \"#utility.yul\":6115:6384   */\n      pop\n        /* \"#utility.yul\":6064:6384   */\n      swap2\n      swap1\n      pop\n      jump\t// out\n        /* \"#utility.yul\":6390:6531   */\n    tag_62:\n        /* \"#utility.yul\":6439:6443   */\n      0x00\n        /* \"#utility.yul\":6462:6465   */\n      dup2\n        /* \"#utility.yul\":6454:6465   */\n      swap1\n      pop\n        /* \"#utility.yul\":6485:6488   */\n      dup2\n        /* \"#utility.yul\":6482:6483   */\n      0x00\n        /* \"#utility.yul\":6475:6489   */\n      mstore\n        /* \"#utility.yul\":6519:6523   */\n      0x20\n        /* \"#utility.yul\":6516:6517   */\n      0x00\n        /* \"#utility.yul\":6506:6524   */\n      keccak256\n        /* \"#utility.yul\":6498:6524   */\n      swap1\n      pop\n        /* \"#utility.yul\":6390:6531   */\n      swap2\n      swap1\n      pop\n      jump\t// out\n        /* \"#utility.yul\":6537:6630   */\n    tag_63:\n        /* \"#utility.yul\":6574:6580   */\n      0x00\n        /* \"#utility.yul\":6621:6623   */\n      0x20\n        /* \"#utility.yul\":6616:6618   */\n      0x1f\n        /* \"#utility.yul\":6609:6614   */\n      dup4\n        /* \"#utility.yul\":6605:6619   */\n      add\n        /* \"#utility.yul\":6601:6624   */\n      div\n        /* \"#utility.yul\":6591:6624   */\n      swap1\n      pop\n        /* \"#utility.yul\":6537:6630   */\n      swap2\n      swap1\n      pop\n      jump\t// out\n        /* \"#utility.yul\":6636:6743   */\n    tag_64:\n        /* \"#utility.yul\":6680:6688   */\n      0x00\n        /* \"#utility.yul\":6730:6735   */\n      dup3\n        /* \"#utility.yul\":6724:6728   */\n      dup3\n        /* \"#utility.yul\":6720:6736   */\n      shl\n        /* \"#utility.yul\":6699:6736   */\n      swap1\n      pop\n        /* \"#utility.yul\":6636:6743   */\n      swap3\n      swap2\n      pop\n      pop\n      jump\t// out\n        /* \"#utility.yul\":6749:7142   */\n    tag_65:\n        /* \"#utility.yul\":6818:6824   */\n      0x00\n        /* \"#utility.yul\":6868:6869   */\n      0x08\n        /* \"#utility.yul\":6856:6866   */\n      dup4\n        /* \"#utility.yul\":6852:6870   */\n      mul\n        /* \"#utility.yul\":6891:6988   */\n      tag_149\n        /* \"#utility.yul\":6921:6987   */\n      0xffffffffffffffffffffffffffffffffffffffffffffffffffffffffffffffff\n        /* \"#utility.yul\":6910:6919   */\n      dup3\n        /* \"#utility.yul\":6891:6988   */\n      tag_64\n      jump\t// in\n    tag_149:\n        /* \"#utility.yul\":7009:7048   */\n      tag_150\n        /* \"#utility.yul\":7039:7047   */\n      dup7\n        /* \"#utility.yul\":7028:7037   */\n      dup4\n        /* \"#utility.yul\":7009:7048   */\n      tag_64\n      jump\t// in\n    tag_150:\n        /* \"#utility.yul\":6997:7048   */\n      swap6\n      pop\n        /* \"#utility.yul\":7081:7085   */\n      dup1\n        /* \"#utility.yul\":7077:7086   */\n      not\n        /* \"#utility.yul\":7070:7075   */\n      dup5\n        /* \"#utility.yul\":7066:7087   */\n      and\n        /* \"#utility.yul\":7057:7087   */\n      swap4\n      pop\n        /* \"#utility.yul\":7130:7134   */\n      dup1\n        /* \"#utility.yul\":7120:7128   */\n      dup7\n        /* \"#utility.yul\":7116:7135   */\n      and\n        /* \"#utility.yul\":7109:7114   */\n      dup5\n        /* \"#utility.yul\":7106:7136   */\n      or\n        /* \"#utility.yul\":7096:7136   */\n      swap3\n      pop\n        /* \"#utility.yul\":6825:7142   */\n      pop\n      pop\n        /* \"#utility.yul\":6749:7142   */\n      swap4\n      swap3\n      pop\n      pop\n      pop\n      jump\t// out\n        /* \"#utility.yul\":7148:7208   */\n    tag_66:\n        /* \"#utility.yul\":7176:7179   */\n      0x00\n        /* \"#utility.yul\":7197:7202   */\n      dup2\n        /* \"#utility.yul\":7190:7202   */\n      swap1\n      pop\n        /* \"#utility.yul\":7148:7208   */\n      swap2\n      swap1\n      pop\n      jump\t// out\n        /* \"#utility.yul\":7214:7356   */\n    tag_67:\n        /* \"#utility.yul\":7264:7273   */\n      0x00\n        /* \"#utility.yul\":7297:7350   */\n      tag_153\n        /* \"#utility.yul\":7315:7349   */\n      tag_154\n        /* \"#utility.yul\":7324:7348   */\n      tag_155\n        /* \"#utility.yul\":7342:7347   */\n      dup5\n        /* \"#utility.yul\":7324:7348   */\n      tag_44\n      jump\t// in\n    tag_155:\n        /* \"#utility.yul\":7315:7349   */\n      tag_66\n      jump\t// in\n    tag_154:\n        /* \"#utility.yul\":7297:7350   */\n      tag_44\n      jump\t// in\n    tag_153:\n        /* \"#utility.yul\":7284:7350   */\n      swap1\n      pop\n        /* \"#utility.yul\":7214:7356   */\n      swap2\n      swap1\n      pop\n      jump\t// out\n        /* \"#utility.yul\":7362:7437   */\n    tag_68:\n        /* \"#utility.yul\":7405:7408   */\n      0x00\n        /* \"#utility.yul\":7426:7431   */\n      dup2\n        /* \"#utility.yul\":7419:7431   */\n      swap1\n      pop\n        /* \"#utility.yul\":7362:7437   */\n      swap2\n      swap1\n      pop\n      jump\t// out\n        /* \"#utility.yul\":7443:7712   */\n    tag_69:\n        /* \"#utility.yul\":7553:7592   */\n      tag_158\n        /* \"#utility.yul\":7584:7591   */\n      dup4\n        /* \"#utility.yul\":7553:7592   */\n      tag_67\n      jump\t// in\n    tag_158:\n        /* \"#utility.yul\":7614:7705   */\n      tag_159\n        /* \"#utility.yul\":7663:7704   */\n      tag_160\n        /* \"#utility.yul\":7687:7703   */\n      dup3\n        /* \"#utility.yul\":7663:7704   */\n      tag_68\n      jump\t// in\n    tag_160:\n        /* \"#utility.yul\":7655:7661   */\n      dup5\n        /* \"#utility.yul\":7648:7652   */\n      dup5\n        /* \"#utility.yul\":7642:7653   */\n      sload\n        /* \"#utility.yul\":7614:7705   */\n      tag_65\n      jump\t// in\n    tag_159:\n        /* \"#utility.yul\":7608:7612   */\n      dup3\n        /* \"#utility.yul\":7601:7706   */\n      sstore\n        /* \"#utility.yul\":7519:7712   */\n      pop\n        /* \"#utility.yul\":7443:7712   */\n      pop\n      pop\n      pop\n      jump\t// out\n        /* \"#utility.yul\":7718:7791   */\n    tag_70:\n        /* \"#utility.yul\":7763:7766   */\n      0x00\n        /* \"#utility.yul\":7718:7791   */\n      swap1\n      jump\t// out\n        /* \"#utility.yul\":7797:7986   */\n    tag_71:\n        /* \"#utility.yul\":7874:7906   */\n      tag_163\n      tag_70\n      jump\t// in\n    tag_163:\n        /* \"#utility.yul\":7915:7980   */\n      tag_164\n        /* \"#utility.yul\":7973:7979   */\n      dup2\n        /* \"#utility.yul\":7965:7971   */\n      dup5\n        /* \"#utility.yul\":7959:7963   */\n      dup5\n        /* \"#utility.yul\":7915:7980   */\n      tag_69\n      jump\t// in\n    tag_164:\n        /* \"#utility.yul\":7850:7986   */\n      pop\n        /* \"#utility.yul\":7797:7986   */\n      pop\n      pop\n      jump\t// out\n        /* \"#utility.yul\":7992:8178   */\n    tag_72:\n        /* \"#utility.yul\":8052:8172   */\n    tag_166:\n        /* \"#utility.yul\":8069:8072   */\n      dup2\n        /* \"#utility.yul\":8062:8067   */\n      dup2\n        /* \"#utility.yul\":8059:8073   */\n      lt\n        /* \"#utility.yul\":8052:8172   */\n      iszero\n      tag_168\n      jumpi\n        /* \"#utility.yul\":8123:8162   */\n      tag_169\n        /* \"#utility.yul\":8160:8161   */\n      0x00\n        /* \"#utility.yul\":8153:8158   */\n      dup3\n        /* \"#utility.yul\":8123:8162   */\n      tag_71\n      jump\t// in\n    tag_169:\n        /* \"#utility.yul\":8096:8097   */\n      0x01\n        /* \"#utility.yul\":8089:8094   */\n      dup2\n        /* \"#utility.yul\":8085:8098   */\n      add\n        /* \"#utility.yul\":8076:8098   */\n      swap1\n      pop\n        /* \"#utility.yul\":8052:8172   */\n      jump(tag_166)\n    tag_168:\n        /* \"#utility.yul\":7992:8178   */\n      pop\n      pop\n      jump\t// out\n        /* \"#utility.yul\":8184:8727   */\n    tag_73:\n        /* \"#utility.yul\":8285:8287   */\n      0x1f\n        /* \"#utility.yul\":8280:8283   */\n      dup3\n        /* \"#utility.yul\":8277:8288   */\n      gt\n        /* \"#utility.yul\":8274:8720   */\n      iszero\n      tag_171\n      jumpi\n        /* \"#utility.yul\":8319:8357   */\n      tag_172\n        /* \"#utility.yul\":8351:8356   */\n      dup2\n        /* \"#utility.yul\":8319:8357   */\n      tag_62\n      jump\t// in\n    tag_172:\n        /* \"#utility.yul\":8403:8432   */\n      tag_173\n        /* \"#utility.yul\":8421:8431   */\n      dup5\n        /* \"#utility.yul\":8403:8432   */\n      tag_63\n      jump\t// in\n    tag_173:\n        /* \"#utility.yul\":8393:8401   */\n      dup2\n        /* \"#utility.yul\":8389:8433   */\n      add\n        /* \"#utility.yul\":8586:8588   */\n      0x20\n        /* \"#utility.yul\":8574:8584   */\n      dup6\n        /* \"#utility.yul\":8571:8589   */\n      lt\n        /* \"#utility.yul\":8568:8617   */\n      iszero\n      tag_174\n      jumpi\n        /* \"#utility.yul\":8607:8615   */\n      dup2\n        /* \"#utility.yul\":8592:8615   */\n      swap1\n      pop\n        /* \"#utility.yul\":8568:8617   */\n    tag_174:\n        /* \"#utility.yul\":8630:8710   */\n      tag_175\n        /* \"#utility.yul\":8686:8708   */\n      tag_176\n        /* \"#utility.yul\":8704:8707   */\n      dup6\n        /* \"#utility.yul\":8686:8708   */\n      tag_63\n      jump\t// in\n    tag_176:\n        /* \"#utility.yul\":8676:8684   */\n      dup4\n        /* \"#utility.yul\":8672:8709   */\n      add\n        /* \"#utility.yul\":8659:8670   */\n      dup3\n        /* \"#utility.yul\":8630:8710   */\n      tag_72\n      jump\t// in\n    tag_175:\n        /* \"#utility.yul\":8289:8720   */\n      pop\n      pop\n        /* \"#utility.yul\":8274:8720   */\n    tag_171:\n        /* \"#utility.yul\":8184:8727   */\n      pop\n      pop\n      pop\n      jump\t// out\n        /* \"#utility.yul\":8733:8850   */\n    tag_74:\n        /* \"#utility.yul\":8787:8795   */\n      0x00\n        /* \"#utility.yul\":8837:8842   */\n      dup3\n        /* \"#utility.yul\":8831:8835   */\n      dup3\n        /* \"#utility.yul\":8827:8843   */\n      shr\n        /* \"#utility.yul\":8806:8843   */\n      swap1\n      pop\n        /* \"#utility.yul\":8733:8850   */\n      swap3\n      swap2\n      pop\n      pop\n      jump\t// out\n        /* \"#utility.yul\":8856:9025   */\n    tag_75:\n        /* \"#utility.yul\":8900:8906   */\n      0x00\n        /* \"#utility.yul\":8933:8984   */\n      tag_179\n        /* \"#utility.yul\":8981:8982   */\n      0x00\n        /* \"#utility.yul\":8977:8983   */\n      not\n        /* \"#utility.yul\":8969:8974   */\n      dup5\n        /* \"#utility.yul\":8966:8967   */\n      0x08\n        /* \"#utility.yul\":8962:8975   */\n      mul\n        /* \"#utility.yul\":8933:8984   */\n      tag_74\n      jump\t// in\n    tag_179:\n        /* \"#utility.yul\":8929:8985   */\n      not\n        /* \"#utility.yul\":9014:9018   */\n      dup1\n        /* \"#utility.yul\":9008:9012   */\n      dup4\n        /* \"#utility.yul\":9004:9019   */\n      and\n        /* \"#utility.yul\":8994:9019   */\n      swap2\n      pop\n        /* \"#utility.yul\":8907:9025   */\n      pop\n        /* \"#utility.yul\":8856:9025   */\n      swap3\n      swap2\n      pop\n      pop\n      jump\t// out\n        /* \"#utility.yul\":9030:9325   */\n    tag_76:\n        /* \"#utility.yul\":9106:9110   */\n      0x00\n        /* \"#utility.yul\":9252:9281   */\n      tag_181\n        /* \"#utility.yul\":9277:9280   */\n      dup4\n        /* \"#utility.yul\":9271:9275   */\n      dup4\n        /* \"#utility.yul\":9252:9281   */\n      tag_75\n      jump\t// in\n    tag_181:\n        /* \"#utility.yul\":9244:9281   */\n      swap2\n      pop\n        /* \"#utility.yul\":9314:9317   */\n      dup3\n        /* \"#utility.yul\":9311:9312   */\n      0x02\n        /* \"#utility.yul\":9307:9318   */\n      mul\n        /* \"#utility.yul\":9301:9305   */\n      dup3\n        /* \"#utility.yul\":9298:9319   */\n      or\n        /* \"#utility.yul\":9290:9319   */\n      swap1\n      pop\n        /* \"#utility.yul\":9030:9325   */\n      swap3\n      swap2\n      pop\n      pop\n      jump\t// out\n        /* \"#utility.yul\":9330:10725   */\n    tag_23:\n        /* \"#utility.yul\":9447:9484   */\n      tag_183\n        /* \"#utility.yul\":9480:9483   */\n      dup3\n        /* \"#utility.yul\":9447:9484   */\n      tag_57\n      jump\t// in\n    tag_183:\n        /* \"#utility.yul\":9549:9567   */\n      0xffffffffffffffff\n        /* \"#utility.yul\":9541:9547   */\n      dup2\n        /* \"#utility.yul\":9538:9568   */\n      gt\n        /* \"#utility.yul\":9535:9591   */\n      iszero\n      tag_184\n      jumpi\n        /* \"#utility.yul\":9571:9589   */\n      tag_185\n      tag_50\n      jump\t// in\n    tag_185:\n        /* \"#utility.yul\":9535:9591   */\n    tag_184:\n        /* \"#utility.yul\":9615:9653   */\n      tag_186\n        /* \"#utility.yul\":9647:9651   */\n      dup3\n        /* \"#utility.yul\":9641:9652   */\n      sload\n        /* \"#utility.yul\":9615:9653   */\n      tag_26\n      jump\t// in\n    tag_186:\n        /* \"#utility.yul\":9700:9767   */\n      tag_187\n        /* \"#utility.yul\":9760:9766   */\n      dup3\n        /* \"#utility.yul\":9752:9758   */\n      dup3\n        /* \"#utility.yul\":9746:9750   */\n      dup6\n        /* \"#utility.yul\":9700:9767   */\n      tag_73\n      jump\t// in\n    tag_187:\n        /* \"#utility.yul\":9794:9795   */\n      0x00\n        /* \"#utility.yul\":9818:9822   */\n      0x20\n        /* \"#utility.yul\":9805:9822   */\n      swap1\n      pop\n        /* \"#utility.yul\":9850:9852   */\n      0x1f\n        /* \"#utility.yul\":9842:9848   */\n      dup4\n        /* \"#utility.yul\":9839:9853   */\n      gt\n        /* \"#utility.yul\":9867:9868   */\n      0x01\n        /* \"#utility.yul\":9862:10480   */\n      dup2\n      eq\n      tag_189\n      jumpi\n        /* \"#utility.yul\":10524:10525   */\n      0x00\n        /* \"#utility.yul\":10541:10547   */\n      dup5\n        /* \"#utility.yul\":10538:10615   */\n      iszero\n      tag_190\n      jumpi\n        /* \"#utility.yul\":10590:10599   */\n      dup3\n        /* \"#utility.yul\":10585:10588   */\n      dup8\n        /* \"#utility.yul\":10581:10600   */\n      add\n        /* \"#utility.yul\":10575:10601   */\n      mload\n        /* \"#utility.yul\":10566:10601   */\n      swap1\n      pop\n        /* \"#utility.yul\":10538:10615   */\n    tag_190:\n        /* \"#utility.yul\":10641:10708   */\n      tag_191\n        /* \"#utility.yul\":10701:10707   */\n      dup6\n        /* \"#utility.yul\":10694:10699   */\n      dup3\n        /* \"#utility.yul\":10641:10708   */\n      tag_76\n      jump\t// in\n    tag_191:\n        /* \"#utility.yul\":10635:10639   */\n      dup7\n        /* \"#utility.yul\":10628:10709   */\n      sstore\n        /* \"#utility.yul\":10497:10719   */\n      pop\n        /* \"#utility.yul\":9832:10719   */\n      jump(tag_188)\n        /* \"#utility.yul\":9862:10480   */\n    tag_189:\n        /* \"#utility.yul\":9914:9918   */\n      0x1f\n        /* \"#utility.yul\":9910:9919   */\n      not\n        /* \"#utility.yul\":9902:9908   */\n      dup5\n        /* \"#utility.yul\":9898:9920   */\n      and\n        /* \"#utility.yul\":9948:9985   */\n      tag_192\n        /* \"#utility.yul\":9980:9984   */\n      dup7\n        /* \"#utility.yul\":9948:9985   */\n      tag_62\n      jump\t// in\n    tag_192:\n        /* \"#utility.yul\":10007:10008   */\n      0x00\n        /* \"#utility.yul\":10021:10229   */\n    tag_193:\n        /* \"#utility.yul\":10035:10042   */\n      dup3\n        /* \"#utility.yul\":10032:10033   */\n      dup2\n        /* \"#utility.yul\":10029:10043   */\n      lt\n        /* \"#utility.yul\":10021:10229   */\n      iszero\n      tag_195\n      jumpi\n        /* \"#utility.yul\":10114:10123   */\n      dup5\n        /* \"#utility.yul\":10109:10112   */\n      dup10\n        /* \"#utility.yul\":10105:10124   */\n      add\n        /* \"#utility.yul\":10099:10125   */\n      mload\n        /* \"#utility.yul\":10091:10097   */\n      dup3\n        /* \"#utility.yul\":10084:10126   */\n      sstore\n        /* \"#utility.yul\":10165:10166   */\n      0x01\n        /* \"#utility.yul\":10157:10163   */\n      dup3\n        /* \"#utility.yul\":10153:10167   */\n      add\n        /* \"#utility.yul\":10143:10167   */\n      swap2\n      pop\n        /* \"#utility.yul\":10212:10214   */\n      0x20\n        /* \"#utility.yul\":10201:10210   */\n      dup6\n        /* \"#utility.yul\":10197:10215   */\n      add\n        /* \"#utility.yul\":10184:10215   */\n      swap5\n      pop\n        /* \"#utility.yul\":10058:10062   */\n      0x20\n        /* \"#utility.yul\":10055:10056   */\n      dup2\n        /* \"#utility.yul\":10051:10063   */\n      add\n        /* \"#utility.yul\":10046:10063   */\n      swap1\n      pop\n        /* \"#utility.yul\":10021:10229   */\n      jump(tag_193)\n    tag_195:\n        /* \"#utility.yul\":10257:10263   */\n      dup7\n        /* \"#utility.yul\":10248:10255   */\n      dup4\n        /* \"#utility.yul\":10245:10264   */\n      lt\n        /* \"#utility.yul\":10242:10421   */\n      iszero\n      tag_196\n      jumpi\n        /* \"#utility.yul\":10315:10324   */\n      dup5\n        /* \"#utility.yul\":10310:10313   */\n      dup10\n        /* \"#utility.yul\":10306:10325   */\n      add\n        /* \"#utility.yul\":10300:10326   */\n      mload\n        /* \"#utility.yul\":10358:10406   */\n      tag_197\n        /* \"#utility.yul\":10400:10404   */\n      0x1f\n        /* \"#utility.yul\":10392:10398   */\n      dup10\n        /* \"#utility.yul\":10388:10405   */\n      and\n        /* \"#utility.yul\":10377:10386   */\n      dup3\n        /* \"#utility.yul\":10358:10406   */\n      tag_75\n      jump\t// in\n    tag_197:\n        /* \"#utility.yul\":10350:10356   */\n      dup4\n        /* \"#utility.yul\":10343:10407   */\n      sstore\n        /* \"#utility.yul\":10265:10421   */\n      pop\n        /* \"#utility.yul\":10242:10421   */\n    tag_196:\n        /* \"#utility.yul\":10467:10468   */\n      0x01\n        /* \"#utility.yul\":10463:10464   */\n      0x02\n        /* \"#utility.yul\":10455:10461   */\n      dup9\n        /* \"#utility.yul\":10451:10465   */\n      mul\n        /* \"#utility.yul\":10447:10469   */\n      add\n        /* \"#utility.yul\":10441:10445   */\n      dup9\n        /* \"#utility.yul\":10434:10470   */\n      sstore\n        /* \"#utility.yul\":9869:10480   */\n      pop\n      pop\n      pop\n        /* \"#utility.yul\":9832:10719   */\n    tag_188:\n      pop\n        /* \"#utility.yul\":9422:10725   */\n      pop\n      pop\n      pop\n        /* \"#utility.yul\":9330:10725   */\n      pop\n      pop\n      jump\t// out\n\n    auxdata: 0xa2646970667358221220daab4c407b171fb36d1a3008af1d51ed94d4c2d09b48675f592bc0a6acfb982c64736f6c63430008190033\n}\n",
				"bytecode": {
					"linkReferences": {},
					"object": "608060405234801561000f575f80fd5b506040518060400160405280600481526020017f4164616d000000000000000000000000000000000000000000000000000000008152505f80600181526020019081526020015f209081610063919061034b565b506040518060400160405280600581526020017f42727563650000000000000000000000000000000000000000000000000000008152505f80600281526020019081526020015f2090816100b7919061034b565b506040518060400160405280600481526020017f4361726c000000000000000000000000000000000000000000000000000000008152505f80600381526020019081526020015f20908161010b919061034b565b5061041a565b5f81519050919050565b7f4e487b71000000000000000000000000000000000000000000000000000000005f52604160045260245ffd5b7f4e487b71000000000000000000000000000000000000000000000000000000005f52602260045260245ffd5b5f600282049050600182168061018c57607f821691505b60208210810361019f5761019e610148565b5b50919050565b5f819050815f5260205f209050919050565b5f6020601f8301049050919050565b5f82821b905092915050565b5f600883026102017fffffffffffffffffffffffffffffffffffffffffffffffffffffffffffffffff826101c6565b61020b86836101c6565b95508019841693508086168417925050509392505050565b5f819050919050565b5f819050919050565b5f61024f61024a61024584610223565b61022c565b610223565b9050919050565b5f819050919050565b61026883610235565b61027c61027482610256565b8484546101d2565b825550505050565b5f90565b610290610284565b61029b81848461025f565b505050565b5b818110156102be576102b35f82610288565b6001810190506102a1565b5050565b601f821115610303576102d4816101a5565b6102dd846101b7565b810160208510156102ec578190505b6103006102f8856101b7565b8301826102a0565b50505b505050565b5f82821c905092915050565b5f6103235f1984600802610308565b1980831691505092915050565b5f61033b8383610314565b9150826002028217905092915050565b61035482610111565b67ffffffffffffffff81111561036d5761036c61011b565b5b6103778254610175565b6103828282856102c2565b5f60209050601f8311600181146103b3575f84156103a1578287015190505b6103ab8582610330565b865550610412565b601f1984166103c1866101a5565b5f5b828110156103e8578489015182556001820191506020850194506020810190506103c3565b868310156104055784890151610401601f891682610314565b8355505b6001600288020188555050505b505050505050565b6108c5806104275f395ff3fe608060405234801561000f575f80fd5b506004361061003f575f3560e01c8063306c5a2d146100435780634622ab031461005f578063687440461461008f575b5f80fd5b61005d6004803603810190610058919061045e565b6100c0565b005b610079600480360381019061007491906104e6565b610118565b6040516100869190610571565b60405180910390f35b6100a960048036038101906100a491906104e6565b6101b2565b6040516100b7929190610591565b60405180910390f35b60405180604001604052808381526020018281525060015f8581526020019081526020015f205f820151815f0190816100f991906107c0565b50602082015181600101908161010f91906107c0565b50905050505050565b5f602052805f5260405f205f915090508054610133906105f3565b80601f016020809104026020016040519081016040528092919081815260200182805461015f906105f3565b80156101aa5780601f10610181576101008083540402835291602001916101aa565b820191905f5260205f20905b81548152906001019060200180831161018d57829003601f168201915b505050505081565b6001602052805f5260405f205f91509050805f0180546101d1906105f3565b80601f01602080910402602001604051908101604052809291908181526020018280546101fd906105f3565b80156102485780601f1061021f57610100808354040283529160200191610248565b820191905f5260205f20905b81548152906001019060200180831161022b57829003601f168201915b50505050509080600101805461025d906105f3565b80601f0160208091040260200160405190810160405280929190818152602001828054610289906105f3565b80156102d45780601f106102ab576101008083540402835291602001916102d4565b820191905f5260205f20905b8154815290600101906020018083116102b757829003601f168201915b5050505050905082565b5f604051905090565b5f80fd5b5f80fd5b5f819050919050565b610301816102ef565b811461030b575f80fd5b50565b5f8135905061031c816102f8565b92915050565b5f80fd5b5f80fd5b5f601f19601f8301169050919050565b7f4e487b71000000000000000000000000000000000000000000000000000000005f52604160045260245ffd5b6103708261032a565b810181811067ffffffffffffffff8211171561038f5761038e61033a565b5b80604052505050565b5f6103a16102de565b90506103ad8282610367565b919050565b5f67ffffffffffffffff8211156103cc576103cb61033a565b5b6103d58261032a565b9050602081019050919050565b828183375f83830152505050565b5f6104026103fd846103b2565b610398565b90508281526020810184848401111561041e5761041d610326565b5b6104298482856103e2565b509392505050565b5f82601f83011261044557610444610322565b5b81356104558482602086016103f0565b91505092915050565b5f805f60608486031215610475576104746102e7565b5b5f6104828682870161030e565b935050602084013567ffffffffffffffff8111156104a3576104a26102eb565b5b6104af86828701610431565b925050604084013567ffffffffffffffff8111156104d0576104cf6102eb565b5b6104dc86828701610431565b9150509250925092565b5f602082840312156104fb576104fa6102e7565b5b5f6105088482850161030e565b91505092915050565b5f81519050919050565b5f82825260208201905092915050565b8281835e5f83830152505050565b5f61054382610511565b61054d818561051b565b935061055d81856020860161052b565b6105668161032a565b840191505092915050565b5f6020820190508181035f8301526105898184610539565b905092915050565b5f6040820190508181035f8301526105a98185610539565b905081810360208301526105bd8184610539565b90509392505050565b7f4e487b71000000000000000000000000000000000000000000000000000000005f52602260045260245ffd5b5f600282049050600182168061060a57607f821691505b60208210810361061d5761061c6105c6565b5b50919050565b5f819050815f5260205f209050919050565b5f6020601f8301049050919050565b5f82821b905092915050565b5f6008830261067f7fffffffffffffffffffffffffffffffffffffffffffffffffffffffffffffffff82610644565b6106898683610644565b95508019841693508086168417925050509392505050565b5f819050919050565b5f6106c46106bf6106ba846102ef565b6106a1565b6102ef565b9050919050565b5f819050919050565b6106dd836106aa565b6106f16106e9826106cb565b848454610650565b825550505050565b5f90565b6107056106f9565b6107108184846106d4565b505050565b5b81811015610733576107285f826106fd565b600181019050610716565b5050565b601f8211156107785761074981610623565b61075284610635565b81016020851015610761578190505b61077561076d85610635565b830182610715565b50505b505050565b5f82821c905092915050565b5f6107985f198460080261077d565b1980831691505092915050565b5f6107b08383610789565b9150826002028217905092915050565b6107c982610511565b67ffffffffffffffff8111156107e2576107e161033a565b5b6107ec82546105f3565b6107f7828285610737565b5f60209050601f831160018114610828575f8415610816578287015190505b61082085826107a5565b865550610887565b601f19841661083686610623565b5f5b8281101561085d57848901518255600182019150602085019450602081019050610838565b8683101561087a5784890151610876601f891682610789565b8355505b6001600288020188555050505b50505050505056fea2646970667358221220daab4c407b171fb36d1a3008af1d51ed94d4c2d09b48675f592bc0a6acfb982c64736f6c63430008190033",
					"opcodes": "PUSH1 0x80 PUSH1 0x40 MSTORE CALLVALUE DUP1 ISZERO PUSH2 0xF JUMPI PUSH0 DUP1 REVERT JUMPDEST POP PUSH1 0x40 MLOAD DUP1 PUSH1 0x40 ADD PUSH1 0x40 MSTORE DUP1 PUSH1 0x4 DUP2 MSTORE PUSH1 0x20 ADD PUSH32 0x4164616D00000000000000000000000000000000000000000000000000000000 DUP2 MSTORE POP PUSH0 DUP1 PUSH1 0x1 DUP2 MSTORE PUSH1 0x20 ADD SWAP1 DUP2 MSTORE PUSH1 0x20 ADD PUSH0 KECCAK256 SWAP1 DUP2 PUSH2 0x63 SWAP2 SWAP1 PUSH2 0x34B JUMP JUMPDEST POP PUSH1 0x40 MLOAD DUP1 PUSH1 0x40 ADD PUSH1 0x40 MSTORE DUP1 PUSH1 0x5 DUP2 MSTORE PUSH1 0x20 ADD PUSH32 0x4272756365000000000000000000000000000000000000000000000000000000 DUP2 MSTORE POP PUSH0 DUP1 PUSH1 0x2 DUP2 MSTORE PUSH1 0x20 ADD SWAP1 DUP2 MSTORE PUSH1 0x20 ADD PUSH0 KECCAK256 SWAP1 DUP2 PUSH2 0xB7 SWAP2 SWAP1 PUSH2 0x34B JUMP JUMPDEST POP PUSH1 0x40 MLOAD DUP1 PUSH1 0x40 ADD PUSH1 0x40 MSTORE DUP1 PUSH1 0x4 DUP2 MSTORE PUSH1 0x20 ADD PUSH32 0x4361726C00000000000000000000000000000000000000000000000000000000 DUP2 MSTORE POP PUSH0 DUP1 PUSH1 0x3 DUP2 MSTORE PUSH1 0x20 ADD SWAP1 DUP2 MSTORE PUSH1 0x20 ADD PUSH0 KECCAK256 SWAP1 DUP2 PUSH2 0x10B SWAP2 SWAP1 PUSH2 0x34B JUMP JUMPDEST POP PUSH2 0x41A JUMP JUMPDEST PUSH0 DUP2 MLOAD SWAP1 POP SWAP2 SWAP1 POP JUMP JUMPDEST PUSH32 0x4E487B7100000000000000000000000000000000000000000000000000000000 PUSH0 MSTORE PUSH1 0x41 PUSH1 0x4 MSTORE PUSH1 0x24 PUSH0 REVERT JUMPDEST PUSH32 0x4E487B7100000000000000000000000000000000000000000000000000000000 PUSH0 MSTORE PUSH1 0x22 PUSH1 0x4 MSTORE PUSH1 0x24 PUSH0 REVERT JUMPDEST PUSH0 PUSH1 0x2 DUP3 DIV SWAP1 POP PUSH1 0x1 DUP3 AND DUP1 PUSH2 0x18C JUMPI PUSH1 0x7F DUP3 AND SWAP2 POP JUMPDEST PUSH1 0x20 DUP3 LT DUP2 SUB PUSH2 0x19F JUMPI PUSH2 0x19E PUSH2 0x148 JUMP JUMPDEST JUMPDEST POP SWAP2 SWAP1 POP JUMP JUMPDEST PUSH0 DUP2 SWAP1 POP DUP2 PUSH0 MSTORE PUSH1 0x20 PUSH0 KECCAK256 SWAP1 POP SWAP2 SWAP1 POP JUMP JUMPDEST PUSH0 PUSH1 0x20 PUSH1 0x1F DUP4 ADD DIV SWAP1 POP SWAP2 SWAP1 POP JUMP JUMPDEST PUSH0 DUP3 DUP3 SHL SWAP1 POP SWAP3 SWAP2 POP POP JUMP JUMPDEST PUSH0 PUSH1 0x8 DUP4 MUL PUSH2 0x201 PUSH32 0xFFFFFFFFFFFFFFFFFFFFFFFFFFFFFFFFFFFFFFFFFFFFFFFFFFFFFFFFFFFFFFFF DUP3 PUSH2 0x1C6 JUMP JUMPDEST PUSH2 0x20B DUP7 DUP4 PUSH2 0x1C6 JUMP JUMPDEST SWAP6 POP DUP1 NOT DUP5 AND SWAP4 POP DUP1 DUP7 AND DUP5 OR SWAP3 POP POP POP SWAP4 SWAP3 POP POP POP JUMP JUMPDEST PUSH0 DUP2 SWAP1 POP SWAP2 SWAP1 POP JUMP JUMPDEST PUSH0 DUP2 SWAP1 POP SWAP2 SWAP1 POP JUMP JUMPDEST PUSH0 PUSH2 0x24F PUSH2 0x24A PUSH2 0x245 DUP5 PUSH2 0x223 JUMP JUMPDEST PUSH2 0x22C JUMP JUMPDEST PUSH2 0x223 JUMP JUMPDEST SWAP1 POP SWAP2 SWAP1 POP JUMP JUMPDEST PUSH0 DUP2 SWAP1 POP SWAP2 SWAP1 POP JUMP JUMPDEST PUSH2 0x268 DUP4 PUSH2 0x235 JUMP JUMPDEST PUSH2 0x27C PUSH2 0x274 DUP3 PUSH2 0x256 JUMP JUMPDEST DUP5 DUP5 SLOAD PUSH2 0x1D2 JUMP JUMPDEST DUP3 SSTORE POP POP POP POP JUMP JUMPDEST PUSH0 SWAP1 JUMP JUMPDEST PUSH2 0x290 PUSH2 0x284 JUMP JUMPDEST PUSH2 0x29B DUP2 DUP5 DUP5 PUSH2 0x25F JUMP JUMPDEST POP POP POP JUMP JUMPDEST JUMPDEST DUP2 DUP2 LT ISZERO PUSH2 0x2BE JUMPI PUSH2 0x2B3 PUSH0 DUP3 PUSH2 0x288 JUMP JUMPDEST PUSH1 0x1 DUP2 ADD SWAP1 POP PUSH2 0x2A1 JUMP JUMPDEST POP POP JUMP JUMPDEST PUSH1 0x1F DUP3 GT ISZERO PUSH2 0x303 JUMPI PUSH2 0x2D4 DUP2 PUSH2 0x1A5 JUMP JUMPDEST PUSH2 0x2DD DUP5 PUSH2 0x1B7 JUMP JUMPDEST DUP2 ADD PUSH1 0x20 DUP6 LT ISZERO PUSH2 0x2EC JUMPI DUP2 SWAP1 POP JUMPDEST PUSH2 0x300 PUSH2 0x2F8 DUP6 PUSH2 0x1B7 JUMP JUMPDEST DUP4 ADD DUP3 PUSH2 0x2A0 JUMP JUMPDEST POP POP JUMPDEST POP POP POP JUMP JUMPDEST PUSH0 DUP3 DUP3 SHR SWAP1 POP SWAP3 SWAP2 POP POP JUMP JUMPDEST PUSH0 PUSH2 0x323 PUSH0 NOT DUP5 PUSH1 0x8 MUL PUSH2 0x308 JUMP JUMPDEST NOT DUP1 DUP4 AND SWAP2 POP POP SWAP3 SWAP2 POP POP JUMP JUMPDEST PUSH0 PUSH2 0x33B DUP4 DUP4 PUSH2 0x314 JUMP JUMPDEST SWAP2 POP DUP3 PUSH1 0x2 MUL DUP3 OR SWAP1 POP SWAP3 SWAP2 POP POP JUMP JUMPDEST PUSH2 0x354 DUP3 PUSH2 0x111 JUMP JUMPDEST PUSH8 0xFFFFFFFFFFFFFFFF DUP2 GT ISZERO PUSH2 0x36D JUMPI PUSH2 0x36C PUSH2 0x11B JUMP JUMPDEST JUMPDEST PUSH2 0x377 DUP3 SLOAD PUSH2 0x175 JUMP JUMPDEST PUSH2 0x382 DUP3 DUP3 DUP6 PUSH2 0x2C2 JUMP JUMPDEST PUSH0 PUSH1 0x20 SWAP1 POP PUSH1 0x1F DUP4 GT PUSH1 0x1 DUP2 EQ PUSH2 0x3B3 JUMPI PUSH0 DUP5 ISZERO PUSH2 0x3A1 JUMPI DUP3 DUP8 ADD MLOAD SWAP1 POP JUMPDEST PUSH2 0x3AB DUP6 DUP3 PUSH2 0x330 JUMP JUMPDEST DUP7 SSTORE POP PUSH2 0x412 JUMP JUMPDEST PUSH1 0x1F NOT DUP5 AND PUSH2 0x3C1 DUP7 PUSH2 0x1A5 JUMP JUMPDEST PUSH0 JUMPDEST DUP3 DUP2 LT ISZERO PUSH2 0x3E8 JUMPI DUP5 DUP10 ADD MLOAD DUP3 SSTORE PUSH1 0x1 DUP3 ADD SWAP2 POP PUSH1 0x20 DUP6 ADD SWAP5 POP PUSH1 0x20 DUP2 ADD SWAP1 POP PUSH2 0x3C3 JUMP JUMPDEST DUP7 DUP4 LT ISZERO PUSH2 0x405 JUMPI DUP5 DUP10 ADD MLOAD PUSH2 0x401 PUSH1 0x1F DUP10 AND DUP3 PUSH2 0x314 JUMP JUMPDEST DUP4 SSTORE POP JUMPDEST PUSH1 0x1 PUSH1 0x2 DUP9 MUL ADD DUP9 SSTORE POP POP POP JUMPDEST POP POP POP POP POP POP JUMP JUMPDEST PUSH2 0x8C5 DUP1 PUSH2 0x427 PUSH0 CODECOPY PUSH0 RETURN INVALID PUSH1 0x80 PUSH1 0x40 MSTORE CALLVALUE DUP1 ISZERO PUSH2 0xF JUMPI PUSH0 DUP1 REVERT JUMPDEST POP PUSH1 0x4 CALLDATASIZE LT PUSH2 0x3F JUMPI PUSH0 CALLDATALOAD PUSH1 0xE0 SHR DUP1 PUSH4 0x306C5A2D EQ PUSH2 0x43 JUMPI DUP1 PUSH4 0x4622AB03 EQ PUSH2 0x5F JUMPI DUP1 PUSH4 0x68744046 EQ PUSH2 0x8F JUMPI JUMPDEST PUSH0 DUP1 REVERT JUMPDEST PUSH2 0x5D PUSH1 0x4 DUP1 CALLDATASIZE SUB DUP2 ADD SWAP1 PUSH2 0x58 SWAP2 SWAP1 PUSH2 0x45E JUMP JUMPDEST PUSH2 0xC0 JUMP JUMPDEST STOP JUMPDEST PUSH2 0x79 PUSH1 0x4 DUP1 CALLDATASIZE SUB DUP2 ADD SWAP1 PUSH2 0x74 SWAP2 SWAP1 PUSH2 0x4E6 JUMP JUMPDEST PUSH2 0x118 JUMP JUMPDEST PUSH1 0x40 MLOAD PUSH2 0x86 SWAP2 SWAP1 PUSH2 0x571 JUMP JUMPDEST PUSH1 0x40 MLOAD DUP1 SWAP2 SUB SWAP1 RETURN JUMPDEST PUSH2 0xA9 PUSH1 0x4 DUP1 CALLDATASIZE SUB DUP2 ADD SWAP1 PUSH2 0xA4 SWAP2 SWAP1 PUSH2 0x4E6 JUMP JUMPDEST PUSH2 0x1B2 JUMP JUMPDEST PUSH1 0x40 MLOAD PUSH2 0xB7 SWAP3 SWAP2 SWAP1 PUSH2 0x591 JUMP JUMPDEST PUSH1 0x40 MLOAD DUP1 SWAP2 SUB SWAP1 RETURN JUMPDEST PUSH1 0x40 MLOAD DUP1 PUSH1 0x40 ADD PUSH1 0x40 MSTORE DUP1 DUP4 DUP2 MSTORE PUSH1 0x20 ADD DUP3 DUP2 MSTORE POP PUSH1 0x1 PUSH0 DUP6 DUP2 MSTORE PUSH1 0x20 ADD SWAP1 DUP2 MSTORE PUSH1 0x20 ADD PUSH0 KECCAK256 PUSH0 DUP3 ADD MLOAD DUP2 PUSH0 ADD SWAP1 DUP2 PUSH2 0xF9 SWAP2 SWAP1 PUSH2 0x7C0 JUMP JUMPDEST POP PUSH1 0x20 DUP3 ADD MLOAD DUP2 PUSH1 0x1 ADD SWAP1 DUP2 PUSH2 0x10F SWAP2 SWAP1 PUSH2 0x7C0 JUMP JUMPDEST POP SWAP1 POP POP POP POP POP JUMP JUMPDEST PUSH0 PUSH1 0x20 MSTORE DUP1 PUSH0 MSTORE PUSH1 0x40 PUSH0 KECCAK256 PUSH0 SWAP2 POP SWAP1 POP DUP1 SLOAD PUSH2 0x133 SWAP1 PUSH2 0x5F3 JUMP JUMPDEST DUP1 PUSH1 0x1F ADD PUSH1 0x20 DUP1 SWAP2 DIV MUL PUSH1 0x20 ADD PUSH1 0x40 MLOAD SWAP1 DUP2 ADD PUSH1 0x40 MSTORE DUP1 SWAP3 SWAP2 SWAP1 DUP2 DUP2 MSTORE PUSH1 0x20 ADD DUP3 DUP1 SLOAD PUSH2 0x15F SWAP1 PUSH2 0x5F3 JUMP JUMPDEST DUP1 ISZERO PUSH2 0x1AA JUMPI DUP1 PUSH1 0x1F LT PUSH2 0x181 JUMPI PUSH2 0x100 DUP1 DUP4 SLOAD DIV MUL DUP4 MSTORE SWAP2 PUSH1 0x20 ADD SWAP2 PUSH2 0x1AA JUMP JUMPDEST DUP3 ADD SWAP2 SWAP1 PUSH0 MSTORE PUSH1 0x20 PUSH0 KECCAK256 SWAP1 JUMPDEST DUP2 SLOAD DUP2 MSTORE SWAP1 PUSH1 0x1 ADD SWAP1 PUSH1 0x20 ADD DUP1 DUP4 GT PUSH2 0x18D JUMPI DUP3 SWAP1 SUB PUSH1 0x1F AND DUP3 ADD SWAP2 JUMPDEST POP POP POP POP POP DUP2 JUMP JUMPDEST PUSH1 0x1 PUSH1 0x20 MSTORE DUP1 PUSH0 MSTORE PUSH1 0x40 PUSH0 KECCAK256 PUSH0 SWAP2 POP SWAP1 POP DUP1 PUSH0 ADD DUP1 SLOAD PUSH2 0x1D1 SWAP1 PUSH2 0x5F3 JUMP JUMPDEST DUP1 PUSH1 0x1F ADD PUSH1 0x20 DUP1 SWAP2 DIV MUL PUSH1 0x20 ADD PUSH1 0x40 MLOAD SWAP1 DUP2 ADD PUSH1 0x40 MSTORE DUP1 SWAP3 SWAP2 SWAP1 DUP2 DUP2 MSTORE PUSH1 0x20 ADD DUP3 DUP1 SLOAD PUSH2 0x1FD SWAP1 PUSH2 0x5F3 JUMP JUMPDEST DUP1 ISZERO PUSH2 0x248 JUMPI DUP1 PUSH1 0x1F LT PUSH2 0x21F JUMPI PUSH2 0x100 DUP1 DUP4 SLOAD DIV MUL DUP4 MSTORE SWAP2 PUSH1 0x20 ADD SWAP2 PUSH2 0x248 JUMP JUMPDEST DUP3 ADD SWAP2 SWAP1 PUSH0 MSTORE PUSH1 0x20 PUSH0 KECCAK256 SWAP1 JUMPDEST DUP2 SLOAD DUP2 MSTORE SWAP1 PUSH1 0x1 ADD SWAP1 PUSH1 0x20 ADD DUP1 DUP4 GT PUSH2 0x22B JUMPI DUP3 SWAP1 SUB PUSH1 0x1F AND DUP3 ADD SWAP2 JUMPDEST POP POP POP POP POP SWAP1 DUP1 PUSH1 0x1 ADD DUP1 SLOAD PUSH2 0x25D SWAP1 PUSH2 0x5F3 JUMP JUMPDEST DUP1 PUSH1 0x1F ADD PUSH1 0x20 DUP1 SWAP2 DIV MUL PUSH1 0x20 ADD PUSH1 0x40 MLOAD SWAP1 DUP2 ADD PUSH1 0x40 MSTORE DUP1 SWAP3 SWAP2 SWAP1 DUP2 DUP2 MSTORE PUSH1 0x20 ADD DUP3 DUP1 SLOAD PUSH2 0x289 SWAP1 PUSH2 0x5F3 JUMP JUMPDEST DUP1 ISZERO PUSH2 0x2D4 JUMPI DUP1 PUSH1 0x1F LT PUSH2 0x2AB JUMPI PUSH2 0x100 DUP1 DUP4 SLOAD DIV MUL DUP4 MSTORE SWAP2 PUSH1 0x20 ADD SWAP2 PUSH2 0x2D4 JUMP JUMPDEST DUP3 ADD SWAP2 SWAP1 PUSH0 MSTORE PUSH1 0x20 PUSH0 KECCAK256 SWAP1 JUMPDEST DUP2 SLOAD DUP2 MSTORE SWAP1 PUSH1 0x1 ADD SWAP1 PUSH1 0x20 ADD DUP1 DUP4 GT PUSH2 0x2B7 JUMPI DUP3 SWAP1 SUB PUSH1 0x1F AND DUP3 ADD SWAP2 JUMPDEST POP POP POP POP POP SWAP1 POP DUP3 JUMP JUMPDEST PUSH0 PUSH1 0x40 MLOAD SWAP1 POP SWAP1 JUMP JUMPDEST PUSH0 DUP1 REVERT JUMPDEST PUSH0 DUP1 REVERT JUMPDEST PUSH0 DUP2 SWAP1 POP SWAP2 SWAP1 POP JUMP JUMPDEST PUSH2 0x301 DUP2 PUSH2 0x2EF JUMP JUMPDEST DUP2 EQ PUSH2 0x30B JUMPI PUSH0 DUP1 REVERT JUMPDEST POP JUMP JUMPDEST PUSH0 DUP2 CALLDATALOAD SWAP1 POP PUSH2 0x31C DUP2 PUSH2 0x2F8 JUMP JUMPDEST SWAP3 SWAP2 POP POP JUMP JUMPDEST PUSH0 DUP1 REVERT JUMPDEST PUSH0 DUP1 REVERT JUMPDEST PUSH0 PUSH1 0x1F NOT PUSH1 0x1F DUP4 ADD AND SWAP1 POP SWAP2 SWAP1 POP JUMP JUMPDEST PUSH32 0x4E487B7100000000000000000000000000000000000000000000000000000000 PUSH0 MSTORE PUSH1 0x41 PUSH1 0x4 MSTORE PUSH1 0x24 PUSH0 REVERT JUMPDEST PUSH2 0x370 DUP3 PUSH2 0x32A JUMP JUMPDEST DUP2 ADD DUP2 DUP2 LT PUSH8 0xFFFFFFFFFFFFFFFF DUP3 GT OR ISZERO PUSH2 0x38F JUMPI PUSH2 0x38E PUSH2 0x33A JUMP JUMPDEST JUMPDEST DUP1 PUSH1 0x40 MSTORE POP POP POP JUMP JUMPDEST PUSH0 PUSH2 0x3A1 PUSH2 0x2DE JUMP JUMPDEST SWAP1 POP PUSH2 0x3AD DUP3 DUP3 PUSH2 0x367 JUMP JUMPDEST SWAP2 SWAP1 POP JUMP JUMPDEST PUSH0 PUSH8 0xFFFFFFFFFFFFFFFF DUP3 GT ISZERO PUSH2 0x3CC JUMPI PUSH2 0x3CB PUSH2 0x33A JUMP JUMPDEST JUMPDEST PUSH2 0x3D5 DUP3 PUSH2 0x32A JUMP JUMPDEST SWAP1 POP PUSH1 0x20 DUP2 ADD SWAP1 POP SWAP2 SWAP1 POP JUMP JUMPDEST DUP3 DUP2 DUP4 CALLDATACOPY PUSH0 DUP4 DUP4 ADD MSTORE POP POP POP JUMP JUMPDEST PUSH0 PUSH2 0x402 PUSH2 0x3FD DUP5 PUSH2 0x3B2 JUMP JUMPDEST PUSH2 0x398 JUMP JUMPDEST SWAP1 POP DUP3 DUP2 MSTORE PUSH1 0x20 DUP2 ADD DUP5 DUP5 DUP5 ADD GT ISZERO PUSH2 0x41E JUMPI PUSH2 0x41D PUSH2 0x326 JUMP JUMPDEST JUMPDEST PUSH2 0x429 DUP5 DUP3 DUP6 PUSH2 0x3E2 JUMP JUMPDEST POP SWAP4 SWAP3 POP POP POP JUMP JUMPDEST PUSH0 DUP3 PUSH1 0x1F DUP4 ADD SLT PUSH2 0x445 JUMPI PUSH2 0x444 PUSH2 0x322 JUMP JUMPDEST JUMPDEST DUP2 CALLDATALOAD PUSH2 0x455 DUP5 DUP3 PUSH1 0x20 DUP7 ADD PUSH2 0x3F0 JUMP JUMPDEST SWAP2 POP POP SWAP3 SWAP2 POP POP JUMP JUMPDEST PUSH0 DUP1 PUSH0 PUSH1 0x60 DUP5 DUP7 SUB SLT ISZERO PUSH2 0x475 JUMPI PUSH2 0x474 PUSH2 0x2E7 JUMP JUMPDEST JUMPDEST PUSH0 PUSH2 0x482 DUP7 DUP3 DUP8 ADD PUSH2 0x30E JUMP JUMPDEST SWAP4 POP POP PUSH1 0x20 DUP5 ADD CALLDATALOAD PUSH8 0xFFFFFFFFFFFFFFFF DUP2 GT ISZERO PUSH2 0x4A3 JUMPI PUSH2 0x4A2 PUSH2 0x2EB JUMP JUMPDEST JUMPDEST PUSH2 0x4AF DUP7 DUP3 DUP8 ADD PUSH2 0x431 JUMP JUMPDEST SWAP3 POP POP PUSH1 0x40 DUP5 ADD CALLDATALOAD PUSH8 0xFFFFFFFFFFFFFFFF DUP2 GT ISZERO PUSH2 0x4D0 JUMPI PUSH2 0x4CF PUSH2 0x2EB JUMP JUMPDEST JUMPDEST PUSH2 0x4DC DUP7 DUP3 DUP8 ADD PUSH2 0x431 JUMP JUMPDEST SWAP2 POP POP SWAP3 POP SWAP3 POP SWAP3 JUMP JUMPDEST PUSH0 PUSH1 0x20 DUP3 DUP5 SUB SLT ISZERO PUSH2 0x4FB JUMPI PUSH2 0x4FA PUSH2 0x2E7 JUMP JUMPDEST JUMPDEST PUSH0 PUSH2 0x508 DUP5 DUP3 DUP6 ADD PUSH2 0x30E JUMP JUMPDEST SWAP2 POP POP SWAP3 SWAP2 POP POP JUMP JUMPDEST PUSH0 DUP2 MLOAD SWAP1 POP SWAP2 SWAP1 POP JUMP JUMPDEST PUSH0 DUP3 DUP3 MSTORE PUSH1 0x20 DUP3 ADD SWAP1 POP SWAP3 SWAP2 POP POP JUMP JUMPDEST DUP3 DUP2 DUP4 MCOPY PUSH0 DUP4 DUP4 ADD MSTORE POP POP POP JUMP JUMPDEST PUSH0 PUSH2 0x543 DUP3 PUSH2 0x511 JUMP JUMPDEST PUSH2 0x54D DUP2 DUP6 PUSH2 0x51B JUMP JUMPDEST SWAP4 POP PUSH2 0x55D DUP2 DUP6 PUSH1 0x20 DUP7 ADD PUSH2 0x52B JUMP JUMPDEST PUSH2 0x566 DUP2 PUSH2 0x32A JUMP JUMPDEST DUP5 ADD SWAP2 POP POP SWAP3 SWAP2 POP POP JUMP JUMPDEST PUSH0 PUSH1 0x20 DUP3 ADD SWAP1 POP DUP2 DUP2 SUB PUSH0 DUP4 ADD MSTORE PUSH2 0x589 DUP2 DUP5 PUSH2 0x539 JUMP JUMPDEST SWAP1 POP SWAP3 SWAP2 POP POP JUMP JUMPDEST PUSH0 PUSH1 0x40 DUP3 ADD SWAP1 POP DUP2 DUP2 SUB PUSH0 DUP4 ADD MSTORE PUSH2 0x5A9 DUP2 DUP6 PUSH2 0x539 JUMP JUMPDEST SWAP1 POP DUP2 DUP2 SUB PUSH1 0x20 DUP4 ADD MSTORE PUSH2 0x5BD DUP2 DUP5 PUSH2 0x539 JUMP JUMPDEST SWAP1 POP SWAP4 SWAP3 POP POP POP JUMP JUMPDEST PUSH32 0x4E487B7100000000000000000000000000000000000000000000000000000000 PUSH0 MSTORE PUSH1 0x22 PUSH1 0x4 MSTORE PUSH1 0x24 PUSH0 REVERT JUMPDEST PUSH0 PUSH1 0x2 DUP3 DIV SWAP1 POP PUSH1 0x1 DUP3 AND DUP1 PUSH2 0x60A JUMPI PUSH1 0x7F DUP3 AND SWAP2 POP JUMPDEST PUSH1 0x20 DUP3 LT DUP2 SUB PUSH2 0x61D JUMPI PUSH2 0x61C PUSH2 0x5C6 JUMP JUMPDEST JUMPDEST POP SWAP2 SWAP1 POP JUMP JUMPDEST PUSH0 DUP2 SWAP1 POP DUP2 PUSH0 MSTORE PUSH1 0x20 PUSH0 KECCAK256 SWAP1 POP SWAP2 SWAP1 POP JUMP JUMPDEST PUSH0 PUSH1 0x20 PUSH1 0x1F DUP4 ADD DIV SWAP1 POP SWAP2 SWAP1 POP JUMP JUMPDEST PUSH0 DUP3 DUP3 SHL SWAP1 POP SWAP3 SWAP2 POP POP JUMP JUMPDEST PUSH0 PUSH1 0x8 DUP4 MUL PUSH2 0x67F PUSH32 0xFFFFFFFFFFFFFFFFFFFFFFFFFFFFFFFFFFFFFFFFFFFFFFFFFFFFFFFFFFFFFFFF DUP3 PUSH2 0x644 JUMP JUMPDEST PUSH2 0x689 DUP7 DUP4 PUSH2 0x644 JUMP JUMPDEST SWAP6 POP DUP1 NOT DUP5 AND SWAP4 POP DUP1 DUP7 AND DUP5 OR SWAP3 POP POP POP SWAP4 SWAP3 POP POP POP JUMP JUMPDEST PUSH0 DUP2 SWAP1 POP SWAP2 SWAP1 POP JUMP JUMPDEST PUSH0 PUSH2 0x6C4 PUSH2 0x6BF PUSH2 0x6BA DUP5 PUSH2 0x2EF JUMP JUMPDEST PUSH2 0x6A1 JUMP JUMPDEST PUSH2 0x2EF JUMP JUMPDEST SWAP1 POP SWAP2 SWAP1 POP JUMP JUMPDEST PUSH0 DUP2 SWAP1 POP SWAP2 SWAP1 POP JUMP JUMPDEST PUSH2 0x6DD DUP4 PUSH2 0x6AA JUMP JUMPDEST PUSH2 0x6F1 PUSH2 0x6E9 DUP3 PUSH2 0x6CB JUMP JUMPDEST DUP5 DUP5 SLOAD PUSH2 0x650 JUMP JUMPDEST DUP3 SSTORE POP POP POP POP JUMP JUMPDEST PUSH0 SWAP1 JUMP JUMPDEST PUSH2 0x705 PUSH2 0x6F9 JUMP JUMPDEST PUSH2 0x710 DUP2 DUP5 DUP5 PUSH2 0x6D4 JUMP JUMPDEST POP POP POP JUMP JUMPDEST JUMPDEST DUP2 DUP2 LT ISZERO PUSH2 0x733 JUMPI PUSH2 0x728 PUSH0 DUP3 PUSH2 0x6FD JUMP JUMPDEST PUSH1 0x1 DUP2 ADD SWAP1 POP PUSH2 0x716 JUMP JUMPDEST POP POP JUMP JUMPDEST PUSH1 0x1F DUP3 GT ISZERO PUSH2 0x778 JUMPI PUSH2 0x749 DUP2 PUSH2 0x623 JUMP JUMPDEST PUSH2 0x752 DUP5 PUSH2 0x635 JUMP JUMPDEST DUP2 ADD PUSH1 0x20 DUP6 LT ISZERO PUSH2 0x761 JUMPI DUP2 SWAP1 POP JUMPDEST PUSH2 0x775 PUSH2 0x76D DUP6 PUSH2 0x635 JUMP JUMPDEST DUP4 ADD DUP3 PUSH2 0x715 JUMP JUMPDEST POP POP JUMPDEST POP POP POP JUMP JUMPDEST PUSH0 DUP3 DUP3 SHR SWAP1 POP SWAP3 SWAP2 POP POP JUMP JUMPDEST PUSH0 PUSH2 0x798 PUSH0 NOT DUP5 PUSH1 0x8 MUL PUSH2 0x77D JUMP JUMPDEST NOT DUP1 DUP4 AND SWAP2 POP POP SWAP3 SWAP2 POP POP JUMP JUMPDEST PUSH0 PUSH2 0x7B0 DUP4 DUP4 PUSH2 0x789 JUMP JUMPDEST SWAP2 POP DUP3 PUSH1 0x2 MUL DUP3 OR SWAP1 POP SWAP3 SWAP2 POP POP JUMP JUMPDEST PUSH2 0x7C9 DUP3 PUSH2 0x511 JUMP JUMPDEST PUSH8 0xFFFFFFFFFFFFFFFF DUP2 GT ISZERO PUSH2 0x7E2 JUMPI PUSH2 0x7E1 PUSH2 0x33A JUMP JUMPDEST JUMPDEST PUSH2 0x7EC DUP3 SLOAD PUSH2 0x5F3 JUMP JUMPDEST PUSH2 0x7F7 DUP3 DUP3 DUP6 PUSH2 0x737 JUMP JUMPDEST PUSH0 PUSH1 0x20 SWAP1 POP PUSH1 0x1F DUP4 GT PUSH1 0x1 DUP2 EQ PUSH2 0x828 JUMPI PUSH0 DUP5 ISZERO PUSH2 0x816 JUMPI DUP3 DUP8 ADD MLOAD SWAP1 POP JUMPDEST PUSH2 0x820 DUP6 DUP3 PUSH2 0x7A5 JUMP JUMPDEST DUP7 SSTORE POP PUSH2 0x887 JUMP JUMPDEST PUSH1 0x1F NOT DUP5 AND PUSH2 0x836 DUP7 PUSH2 0x623 JUMP JUMPDEST PUSH0 JUMPDEST DUP3 DUP2 LT ISZERO PUSH2 0x85D JUMPI DUP5 DUP10 ADD MLOAD DUP3 SSTORE PUSH1 0x1 DUP3 ADD SWAP2 POP PUSH1 0x20 DUP6 ADD SWAP5 POP PUSH1 0x20 DUP2 ADD SWAP1 POP PUSH2 0x838 JUMP JUMPDEST DUP7 DUP4 LT ISZERO PUSH2 0x87A JUMPI DUP5 DUP10 ADD MLOAD PUSH2 0x876 PUSH1 0x1F DUP10 AND DUP3 PUSH2 0x789 JUMP JUMPDEST DUP4 SSTORE POP JUMPDEST PUSH1 0x1 PUSH1 0x2 DUP9 MUL ADD DUP9 SSTORE POP POP POP JUMPDEST POP POP POP POP POP POP JUMP INVALID LOG2 PUSH5 0x6970667358 0x22 SLT KECCAK256 0xDA 0xAB 0x4C BLOCKHASH PUSH28 0x171FB36D1A3008AF1D51ED94D4C2D09B48675F592BC0A6ACFB982C64 PUSH20 0x6F6C634300081900330000000000000000000000 "
				},
				"gasEstimates": {
					"creation": {
						"codeDepositCost": "449000",
						"executionCost": "infinite",
						"totalCost": "infinite"
					},
					"external": {
						"addBooks(uint256,string,string)": "infinite",
						"books(uint256)": "infinite",
						"names(uint256)": "infinite"
					}
				},
				"methodIdentifiers": {
					"addBooks(uint256,string,string)": "306c5a2d",
					"books(uint256)": "68744046",
					"names(uint256)": "4622ab03"
				}
			},
			"storageLayout": {
				"storage": [
					{
						"astId": 5,
						"contract": "contracts/MyArray.sol:MyMapping",
						"label": "names",
						"offset": 0,
						"slot": "0",
						"type": "t_mapping(t_uint256,t_string_storage)"
					},
					{
						"astId": 10,
						"contract": "contracts/MyArray.sol:MyMapping",
						"label": "books",
						"offset": 0,
						"slot": "1",
						"type": "t_mapping(t_uint256,t_struct(Book)37_storage)"
					}
				],
				"types": {
					"t_mapping(t_uint256,t_string_storage)": {
						"encoding": "mapping",
						"key": "t_uint256",
						"label": "mapping(uint256 => string)",
						"numberOfBytes": "32",
						"value": "t_string_storage"
					},
					"t_mapping(t_uint256,t_struct(Book)37_storage)": {
						"encoding": "mapping",
						"key": "t_uint256",
						"label": "mapping(uint256 => struct MyMapping.Book)",
						"numberOfBytes": "32",
						"value": "t_struct(Book)37_storage"
					},
					"t_string_storage": {
						"encoding": "bytes",
						"label": "string",
						"numberOfBytes": "32"
					},
					"t_struct(Book)37_storage": {
						"encoding": "inplace",
						"label": "struct MyMapping.Book",
						"members": [
							{
								"astId": 34,
								"contract": "contracts/MyArray.sol:MyMapping",
								"label": "title",
								"offset": 0,
								"slot": "0",
								"type": "t_string_storage"
							},
							{
								"astId": 36,
								"contract": "contracts/MyArray.sol:MyMapping",
								"label": "author",
								"offset": 0,
								"slot": "1",
								"type": "t_string_storage"
							}
						],
						"numberOfBytes": "64"
					},
					"t_uint256": {
						"encoding": "inplace",
						"label": "uint256",
						"numberOfBytes": "32"
					}
				}
			},
			"userdoc": {
				"kind": "user",
				"methods": {},
				"version": 1
			}
		}
	}
}