{
	"contracts/MyMapping.sol": {
		"MyMapping": {
			"abi": [
				{
					"inputs": [],
					"stateMutability": "nonpayable",
					"type": "constructor"
				},
				{
					"inputs": [
						{
							"internalType": "uint256",
							"name": "_id",
							"type": "uint256"
						},
						{
							"internalType": "string",
							"name": "_title",
							"type": "string"
						},
						{
							"internalType": "string",
							"name": "_author",
							"type": "string"
						}
					],
					"name": "addBooks",
					"outputs": [],
					"stateMutability": "nonpayable",
					"type": "function"
				},
				{
					"inputs": [
						{
							"internalType": "uint256",
							"name": "_id",
							"type": "uint256"
						},
						{
							"internalType": "string",
							"name": "_title",
							"type": "string"
						},
						{
							"internalType": "string",
							"name": "_author",
							"type": "string"
						}
					],
					"name": "addMyBooks",
					"outputs": [],
					"stateMutability": "nonpayable",
					"type": "function"
				},
				{
					"inputs": [
						{
							"internalType": "uint256",
							"name": "",
							"type": "uint256"
						}
					],
					"name": "books",
					"outputs": [
						{
							"internalType": "string",
							"name": "title",
							"type": "string"
						},
						{
							"internalType": "string",
							"name": "author",
							"type": "string"
						}
					],
					"stateMutability": "view",
					"type": "function"
				},
				{
					"inputs": [
						{
							"internalType": "address",
							"name": "",
							"type": "address"
						},
						{
							"internalType": "uint256",
							"name": "",
							"type": "uint256"
						}
					],
					"name": "myBooks",
					"outputs": [
						{
							"internalType": "string",
							"name": "title",
							"type": "string"
						},
						{
							"internalType": "string",
							"name": "author",
							"type": "string"
						}
					],
					"stateMutability": "view",
					"type": "function"
				},
				{
					"inputs": [
						{
							"internalType": "uint256",
							"name": "",
							"type": "uint256"
						}
					],
					"name": "names",
					"outputs": [
						{
							"internalType": "string",
							"name": "",
							"type": "string"
						}
					],
					"stateMutability": "view",
					"type": "function"
				}
			],
			"devdoc": {
				"kind": "dev",
				"methods": {},
				"version": 1
			},
			"evm": {
				"assembly": "    /* \"contracts/MyMapping.sol\":57:807  contract MyMapping {... */\n  mstore(0x40, 0x80)\n    /* \"contracts/MyMapping.sol\":187:290  constructor() {... */\n  callvalue\n  dup1\n  iszero\n  tag_1\n  jumpi\n  0x00\n  dup1\n  revert\ntag_1:\n  pop\n    /* \"contracts/MyMapping.sol\":211:228  names[1] = \"Adam\" */\n  mload(0x40)\n  dup1\n  0x40\n  add\n  0x40\n  mstore\n  dup1\n  0x04\n  dup2\n  mstore\n  0x20\n  add\n  0x4164616d00000000000000000000000000000000000000000000000000000000\n  dup2\n  mstore\n  pop\n    /* \"contracts/MyMapping.sol\":211:216  names */\n  0x00\n    /* \"contracts/MyMapping.sol\":211:219  names[1] */\n  dup1\n    /* \"contracts/MyMapping.sol\":217:218  1 */\n  0x01\n    /* \"contracts/MyMapping.sol\":211:219  names[1] */\n  dup2\n  mstore\n  0x20\n  add\n  swap1\n  dup2\n  mstore\n  0x20\n  add\n  0x00\n  keccak256\n    /* \"contracts/MyMapping.sol\":211:228  names[1] = \"Adam\" */\n  swap1\n  dup2\n  tag_4\n  swap2\n  swap1\n  tag_5\n  jump\t// in\ntag_4:\n  pop\n    /* \"contracts/MyMapping.sol\":238:256  names[2] = \"Bruce\" */\n  mload(0x40)\n  dup1\n  0x40\n  add\n  0x40\n  mstore\n  dup1\n  0x05\n  dup2\n  mstore\n  0x20\n  add\n  0x4272756365000000000000000000000000000000000000000000000000000000\n  dup2\n  mstore\n  pop\n    /* \"contracts/MyMapping.sol\":238:243  names */\n  0x00\n    /* \"contracts/MyMapping.sol\":238:246  names[2] */\n  dup1\n    /* \"contracts/MyMapping.sol\":244:245  2 */\n  0x02\n    /* \"contracts/MyMapping.sol\":238:246  names[2] */\n  dup2\n  mstore\n  0x20\n  add\n  swap1\n  dup2\n  mstore\n  0x20\n  add\n  0x00\n  keccak256\n    /* \"contracts/MyMapping.sol\":238:256  names[2] = \"Bruce\" */\n  swap1\n  dup2\n  tag_6\n  swap2\n  swap1\n  tag_5\n  jump\t// in\ntag_6:\n  pop\n    /* \"contracts/MyMapping.sol\":266:283  names[3] = \"Carl\" */\n  mload(0x40)\n  dup1\n  0x40\n  add\n  0x40\n  mstore\n  dup1\n  0x04\n  dup2\n  mstore\n  0x20\n  add\n  0x4361726c00000000000000000000000000000000000000000000000000000000\n  dup2\n  mstore\n  pop\n    /* \"contracts/MyMapping.sol\":266:271  names */\n  0x00\n    /* \"contracts/MyMapping.sol\":266:274  names[3] */\n  dup1\n    /* \"contracts/MyMapping.sol\":272:273  3 */\n  0x03\n    /* \"contracts/MyMapping.sol\":266:274  names[3] */\n  dup2\n  mstore\n  0x20\n  add\n  swap1\n  dup2\n  mstore\n  0x20\n  add\n  0x00\n  keccak256\n    /* \"contracts/MyMapping.sol\":266:283  names[3] = \"Carl\" */\n  swap1\n  dup2\n  tag_7\n  swap2\n  swap1\n  tag_5\n  jump\t// in\ntag_7:\n  pop\n    /* \"contracts/MyMapping.sol\":57:807  contract MyMapping {... */\n  jump(tag_8)\n    /* \"#utility.yul\":7:106   */\ntag_9:\n    /* \"#utility.yul\":59:65   */\n  0x00\n    /* \"#utility.yul\":93:98   */\n  dup2\n    /* \"#utility.yul\":87:99   */\n  mload\n    /* \"#utility.yul\":77:99   */\n  swap1\n  pop\n    /* \"#utility.yul\":7:106   */\n  swap2\n  swap1\n  pop\n  jump\t// out\n    /* \"#utility.yul\":112:292   */\ntag_10:\n    /* \"#utility.yul\":160:237   */\n  0x4e487b7100000000000000000000000000000000000000000000000000000000\n    /* \"#utility.yul\":157:158   */\n  0x00\n    /* \"#utility.yul\":150:238   */\n  mstore\n    /* \"#utility.yul\":257:261   */\n  0x41\n    /* \"#utility.yul\":254:255   */\n  0x04\n    /* \"#utility.yul\":247:262   */\n  mstore\n    /* \"#utility.yul\":281:285   */\n  0x24\n    /* \"#utility.yul\":278:279   */\n  0x00\n    /* \"#utility.yul\":271:286   */\n  revert\n    /* \"#utility.yul\":298:478   */\ntag_11:\n    /* \"#utility.yul\":346:423   */\n  0x4e487b7100000000000000000000000000000000000000000000000000000000\n    /* \"#utility.yul\":343:344   */\n  0x00\n    /* \"#utility.yul\":336:424   */\n  mstore\n    /* \"#utility.yul\":443:447   */\n  0x22\n    /* \"#utility.yul\":440:441   */\n  0x04\n    /* \"#utility.yul\":433:448   */\n  mstore\n    /* \"#utility.yul\":467:471   */\n  0x24\n    /* \"#utility.yul\":464:465   */\n  0x00\n    /* \"#utility.yul\":457:472   */\n  revert\n    /* \"#utility.yul\":484:804   */\ntag_12:\n    /* \"#utility.yul\":528:534   */\n  0x00\n    /* \"#utility.yul\":565:566   */\n  0x02\n    /* \"#utility.yul\":559:563   */\n  dup3\n    /* \"#utility.yul\":555:567   */\n  div\n    /* \"#utility.yul\":545:567   */\n  swap1\n  pop\n    /* \"#utility.yul\":612:613   */\n  0x01\n    /* \"#utility.yul\":606:610   */\n  dup3\n    /* \"#utility.yul\":602:614   */\n  and\n    /* \"#utility.yul\":633:651   */\n  dup1\n    /* \"#utility.yul\":623:704   */\n  tag_34\n  jumpi\n    /* \"#utility.yul\":689:693   */\n  0x7f\n    /* \"#utility.yul\":681:687   */\n  dup3\n    /* \"#utility.yul\":677:694   */\n  and\n    /* \"#utility.yul\":667:694   */\n  swap2\n  pop\n    /* \"#utility.yul\":623:704   */\ntag_34:\n    /* \"#utility.yul\":751:753   */\n  0x20\n    /* \"#utility.yul\":743:749   */\n  dup3\n    /* \"#utility.yul\":740:754   */\n  lt\n    /* \"#utility.yul\":720:738   */\n  dup2\n    /* \"#utility.yul\":717:755   */\n  sub\n    /* \"#utility.yul\":714:798   */\n  tag_35\n  jumpi\n    /* \"#utility.yul\":770:788   */\n  tag_36\n  tag_11\n  jump\t// in\ntag_36:\n    /* \"#utility.yul\":714:798   */\ntag_35:\n    /* \"#utility.yul\":535:804   */\n  pop\n    /* \"#utility.yul\":484:804   */\n  swap2\n  swap1\n  pop\n  jump\t// out\n    /* \"#utility.yul\":810:951   */\ntag_13:\n    /* \"#utility.yul\":859:863   */\n  0x00\n    /* \"#utility.yul\":882:885   */\n  dup2\n    /* \"#utility.yul\":874:885   */\n  swap1\n  pop\n    /* \"#utility.yul\":905:908   */\n  dup2\n    /* \"#utility.yul\":902:903   */\n  0x00\n    /* \"#utility.yul\":895:909   */\n  mstore\n    /* \"#utility.yul\":939:943   */\n  0x20\n    /* \"#utility.yul\":936:937   */\n  0x00\n    /* \"#utility.yul\":926:944   */\n  keccak256\n    /* \"#utility.yul\":918:944   */\n  swap1\n  pop\n    /* \"#utility.yul\":810:951   */\n  swap2\n  swap1\n  pop\n  jump\t// out\n    /* \"#utility.yul\":957:1050   */\ntag_14:\n    /* \"#utility.yul\":994:1000   */\n  0x00\n    /* \"#utility.yul\":1041:1043   */\n  0x20\n    /* \"#utility.yul\":1036:1038   */\n  0x1f\n    /* \"#utility.yul\":1029:1034   */\n  dup4\n    /* \"#utility.yul\":1025:1039   */\n  add\n    /* \"#utility.yul\":1021:1044   */\n  div\n    /* \"#utility.yul\":1011:1044   */\n  swap1\n  pop\n    /* \"#utility.yul\":957:1050   */\n  swap2\n  swap1\n  pop\n  jump\t// out\n    /* \"#utility.yul\":1056:1163   */\ntag_15:\n    /* \"#utility.yul\":1100:1108   */\n  0x00\n    /* \"#utility.yul\":1150:1155   */\n  dup3\n    /* \"#utility.yul\":1144:1148   */\n  dup3\n    /* \"#utility.yul\":1140:1156   */\n  shl\n    /* \"#utility.yul\":1119:1156   */\n  swap1\n  pop\n    /* \"#utility.yul\":1056:1163   */\n  swap3\n  swap2\n  pop\n  pop\n  jump\t// out\n    /* \"#utility.yul\":1169:1562   */\ntag_16:\n    /* \"#utility.yul\":1238:1244   */\n  0x00\n    /* \"#utility.yul\":1288:1289   */\n  0x08\n    /* \"#utility.yul\":1276:1286   */\n  dup4\n    /* \"#utility.yul\":1272:1290   */\n  mul\n    /* \"#utility.yul\":1311:1408   */\n  tag_41\n    /* \"#utility.yul\":1341:1407   */\n  0xffffffffffffffffffffffffffffffffffffffffffffffffffffffffffffffff\n    /* \"#utility.yul\":1330:1339   */\n  dup3\n    /* \"#utility.yul\":1311:1408   */\n  tag_15\n  jump\t// in\ntag_41:\n    /* \"#utility.yul\":1429:1468   */\n  tag_42\n    /* \"#utility.yul\":1459:1467   */\n  dup7\n    /* \"#utility.yul\":1448:1457   */\n  dup4\n    /* \"#utility.yul\":1429:1468   */\n  tag_15\n  jump\t// in\ntag_42:\n    /* \"#utility.yul\":1417:1468   */\n  swap6\n  pop\n    /* \"#utility.yul\":1501:1505   */\n  dup1\n    /* \"#utility.yul\":1497:1506   */\n  not\n    /* \"#utility.yul\":1490:1495   */\n  dup5\n    /* \"#utility.yul\":1486:1507   */\n  and\n    /* \"#utility.yul\":1477:1507   */\n  swap4\n  pop\n    /* \"#utility.yul\":1550:1554   */\n  dup1\n    /* \"#utility.yul\":1540:1548   */\n  dup7\n    /* \"#utility.yul\":1536:1555   */\n  and\n    /* \"#utility.yul\":1529:1534   */\n  dup5\n    /* \"#utility.yul\":1526:1556   */\n  or\n    /* \"#utility.yul\":1516:1556   */\n  swap3\n  pop\n    /* \"#utility.yul\":1245:1562   */\n  pop\n  pop\n    /* \"#utility.yul\":1169:1562   */\n  swap4\n  swap3\n  pop\n  pop\n  pop\n  jump\t// out\n    /* \"#utility.yul\":1568:1645   */\ntag_17:\n    /* \"#utility.yul\":1605:1612   */\n  0x00\n    /* \"#utility.yul\":1634:1639   */\n  dup2\n    /* \"#utility.yul\":1623:1639   */\n  swap1\n  pop\n    /* \"#utility.yul\":1568:1645   */\n  swap2\n  swap1\n  pop\n  jump\t// out\n    /* \"#utility.yul\":1651:1711   */\ntag_18:\n    /* \"#utility.yul\":1679:1682   */\n  0x00\n    /* \"#utility.yul\":1700:1705   */\n  dup2\n    /* \"#utility.yul\":1693:1705   */\n  swap1\n  pop\n    /* \"#utility.yul\":1651:1711   */\n  swap2\n  swap1\n  pop\n  jump\t// out\n    /* \"#utility.yul\":1717:1859   */\ntag_19:\n    /* \"#utility.yul\":1767:1776   */\n  0x00\n    /* \"#utility.yul\":1800:1853   */\n  tag_46\n    /* \"#utility.yul\":1818:1852   */\n  tag_47\n    /* \"#utility.yul\":1827:1851   */\n  tag_48\n    /* \"#utility.yul\":1845:1850   */\n  dup5\n    /* \"#utility.yul\":1827:1851   */\n  tag_17\n  jump\t// in\ntag_48:\n    /* \"#utility.yul\":1818:1852   */\n  tag_18\n  jump\t// in\ntag_47:\n    /* \"#utility.yul\":1800:1853   */\n  tag_17\n  jump\t// in\ntag_46:\n    /* \"#utility.yul\":1787:1853   */\n  swap1\n  pop\n    /* \"#utility.yul\":1717:1859   */\n  swap2\n  swap1\n  pop\n  jump\t// out\n    /* \"#utility.yul\":1865:1940   */\ntag_20:\n    /* \"#utility.yul\":1908:1911   */\n  0x00\n    /* \"#utility.yul\":1929:1934   */\n  dup2\n    /* \"#utility.yul\":1922:1934   */\n  swap1\n  pop\n    /* \"#utility.yul\":1865:1940   */\n  swap2\n  swap1\n  pop\n  jump\t// out\n    /* \"#utility.yul\":1946:2215   */\ntag_21:\n    /* \"#utility.yul\":2056:2095   */\n  tag_51\n    /* \"#utility.yul\":2087:2094   */\n  dup4\n    /* \"#utility.yul\":2056:2095   */\n  tag_19\n  jump\t// in\ntag_51:\n    /* \"#utility.yul\":2117:2208   */\n  tag_52\n    /* \"#utility.yul\":2166:2207   */\n  tag_53\n    /* \"#utility.yul\":2190:2206   */\n  dup3\n    /* \"#utility.yul\":2166:2207   */\n  tag_20\n  jump\t// in\ntag_53:\n    /* \"#utility.yul\":2158:2164   */\n  dup5\n    /* \"#utility.yul\":2151:2155   */\n  dup5\n    /* \"#utility.yul\":2145:2156   */\n  sload\n    /* \"#utility.yul\":2117:2208   */\n  tag_16\n  jump\t// in\ntag_52:\n    /* \"#utility.yul\":2111:2115   */\n  dup3\n    /* \"#utility.yul\":2104:2209   */\n  sstore\n    /* \"#utility.yul\":2022:2215   */\n  pop\n    /* \"#utility.yul\":1946:2215   */\n  pop\n  pop\n  pop\n  jump\t// out\n    /* \"#utility.yul\":2221:2294   */\ntag_22:\n    /* \"#utility.yul\":2266:2269   */\n  0x00\n    /* \"#utility.yul\":2221:2294   */\n  swap1\n  jump\t// out\n    /* \"#utility.yul\":2300:2489   */\ntag_23:\n    /* \"#utility.yul\":2377:2409   */\n  tag_56\n  tag_22\n  jump\t// in\ntag_56:\n    /* \"#utility.yul\":2418:2483   */\n  tag_57\n    /* \"#utility.yul\":2476:2482   */\n  dup2\n    /* \"#utility.yul\":2468:2474   */\n  dup5\n    /* \"#utility.yul\":2462:2466   */\n  dup5\n    /* \"#utility.yul\":2418:2483   */\n  tag_21\n  jump\t// in\ntag_57:\n    /* \"#utility.yul\":2353:2489   */\n  pop\n    /* \"#utility.yul\":2300:2489   */\n  pop\n  pop\n  jump\t// out\n    /* \"#utility.yul\":2495:2681   */\ntag_24:\n    /* \"#utility.yul\":2555:2675   */\ntag_59:\n    /* \"#utility.yul\":2572:2575   */\n  dup2\n    /* \"#utility.yul\":2565:2570   */\n  dup2\n    /* \"#utility.yul\":2562:2576   */\n  lt\n    /* \"#utility.yul\":2555:2675   */\n  iszero\n  tag_61\n  jumpi\n    /* \"#utility.yul\":2626:2665   */\n  tag_62\n    /* \"#utility.yul\":2663:2664   */\n  0x00\n    /* \"#utility.yul\":2656:2661   */\n  dup3\n    /* \"#utility.yul\":2626:2665   */\n  tag_23\n  jump\t// in\ntag_62:\n    /* \"#utility.yul\":2599:2600   */\n  0x01\n    /* \"#utility.yul\":2592:2597   */\n  dup2\n    /* \"#utility.yul\":2588:2601   */\n  add\n    /* \"#utility.yul\":2579:2601   */\n  swap1\n  pop\n    /* \"#utility.yul\":2555:2675   */\n  jump(tag_59)\ntag_61:\n    /* \"#utility.yul\":2495:2681   */\n  pop\n  pop\n  jump\t// out\n    /* \"#utility.yul\":2687:3230   */\ntag_25:\n    /* \"#utility.yul\":2788:2790   */\n  0x1f\n    /* \"#utility.yul\":2783:2786   */\n  dup3\n    /* \"#utility.yul\":2780:2791   */\n  gt\n    /* \"#utility.yul\":2777:3223   */\n  iszero\n  tag_64\n  jumpi\n    /* \"#utility.yul\":2822:2860   */\n  tag_65\n    /* \"#utility.yul\":2854:2859   */\n  dup2\n    /* \"#utility.yul\":2822:2860   */\n  tag_13\n  jump\t// in\ntag_65:\n    /* \"#utility.yul\":2906:2935   */\n  tag_66\n    /* \"#utility.yul\":2924:2934   */\n  dup5\n    /* \"#utility.yul\":2906:2935   */\n  tag_14\n  jump\t// in\ntag_66:\n    /* \"#utility.yul\":2896:2904   */\n  dup2\n    /* \"#utility.yul\":2892:2936   */\n  add\n    /* \"#utility.yul\":3089:3091   */\n  0x20\n    /* \"#utility.yul\":3077:3087   */\n  dup6\n    /* \"#utility.yul\":3074:3092   */\n  lt\n    /* \"#utility.yul\":3071:3120   */\n  iszero\n  tag_67\n  jumpi\n    /* \"#utility.yul\":3110:3118   */\n  dup2\n    /* \"#utility.yul\":3095:3118   */\n  swap1\n  pop\n    /* \"#utility.yul\":3071:3120   */\ntag_67:\n    /* \"#utility.yul\":3133:3213   */\n  tag_68\n    /* \"#utility.yul\":3189:3211   */\n  tag_69\n    /* \"#utility.yul\":3207:3210   */\n  dup6\n    /* \"#utility.yul\":3189:3211   */\n  tag_14\n  jump\t// in\ntag_69:\n    /* \"#utility.yul\":3179:3187   */\n  dup4\n    /* \"#utility.yul\":3175:3212   */\n  add\n    /* \"#utility.yul\":3162:3173   */\n  dup3\n    /* \"#utility.yul\":3133:3213   */\n  tag_24\n  jump\t// in\ntag_68:\n    /* \"#utility.yul\":2792:3223   */\n  pop\n  pop\n    /* \"#utility.yul\":2777:3223   */\ntag_64:\n    /* \"#utility.yul\":2687:3230   */\n  pop\n  pop\n  pop\n  jump\t// out\n    /* \"#utility.yul\":3236:3353   */\ntag_26:\n    /* \"#utility.yul\":3290:3298   */\n  0x00\n    /* \"#utility.yul\":3340:3345   */\n  dup3\n    /* \"#utility.yul\":3334:3338   */\n  dup3\n    /* \"#utility.yul\":3330:3346   */\n  shr\n    /* \"#utility.yul\":3309:3346   */\n  swap1\n  pop\n    /* \"#utility.yul\":3236:3353   */\n  swap3\n  swap2\n  pop\n  pop\n  jump\t// out\n    /* \"#utility.yul\":3359:3528   */\ntag_27:\n    /* \"#utility.yul\":3403:3409   */\n  0x00\n    /* \"#utility.yul\":3436:3487   */\n  tag_72\n    /* \"#utility.yul\":3484:3485   */\n  0x00\n    /* \"#utility.yul\":3480:3486   */\n  not\n    /* \"#utility.yul\":3472:3477   */\n  dup5\n    /* \"#utility.yul\":3469:3470   */\n  0x08\n    /* \"#utility.yul\":3465:3478   */\n  mul\n    /* \"#utility.yul\":3436:3487   */\n  tag_26\n  jump\t// in\ntag_72:\n    /* \"#utility.yul\":3432:3488   */\n  not\n    /* \"#utility.yul\":3517:3521   */\n  dup1\n    /* \"#utility.yul\":3511:3515   */\n  dup4\n    /* \"#utility.yul\":3507:3522   */\n  and\n    /* \"#utility.yul\":3497:3522   */\n  swap2\n  pop\n    /* \"#utility.yul\":3410:3528   */\n  pop\n    /* \"#utility.yul\":3359:3528   */\n  swap3\n  swap2\n  pop\n  pop\n  jump\t// out\n    /* \"#utility.yul\":3533:3828   */\ntag_28:\n    /* \"#utility.yul\":3609:3613   */\n  0x00\n    /* \"#utility.yul\":3755:3784   */\n  tag_74\n    /* \"#utility.yul\":3780:3783   */\n  dup4\n    /* \"#utility.yul\":3774:3778   */\n  dup4\n    /* \"#utility.yul\":3755:3784   */\n  tag_27\n  jump\t// in\ntag_74:\n    /* \"#utility.yul\":3747:3784   */\n  swap2\n  pop\n    /* \"#utility.yul\":3817:3820   */\n  dup3\n    /* \"#utility.yul\":3814:3815   */\n  0x02\n    /* \"#utility.yul\":3810:3821   */\n  mul\n    /* \"#utility.yul\":3804:3808   */\n  dup3\n    /* \"#utility.yul\":3801:3822   */\n  or\n    /* \"#utility.yul\":3793:3822   */\n  swap1\n  pop\n    /* \"#utility.yul\":3533:3828   */\n  swap3\n  swap2\n  pop\n  pop\n  jump\t// out\n    /* \"#utility.yul\":3833:5228   */\ntag_5:\n    /* \"#utility.yul\":3950:3987   */\n  tag_76\n    /* \"#utility.yul\":3983:3986   */\n  dup3\n    /* \"#utility.yul\":3950:3987   */\n  tag_9\n  jump\t// in\ntag_76:\n    /* \"#utility.yul\":4052:4070   */\n  0xffffffffffffffff\n    /* \"#utility.yul\":4044:4050   */\n  dup2\n    /* \"#utility.yul\":4041:4071   */\n  gt\n    /* \"#utility.yul\":4038:4094   */\n  iszero\n  tag_77\n  jumpi\n    /* \"#utility.yul\":4074:4092   */\n  tag_78\n  tag_10\n  jump\t// in\ntag_78:\n    /* \"#utility.yul\":4038:4094   */\ntag_77:\n    /* \"#utility.yul\":4118:4156   */\n  tag_79\n    /* \"#utility.yul\":4150:4154   */\n  dup3\n    /* \"#utility.yul\":4144:4155   */\n  sload\n    /* \"#utility.yul\":4118:4156   */\n  tag_12\n  jump\t// in\ntag_79:\n    /* \"#utility.yul\":4203:4270   */\n  tag_80\n    /* \"#utility.yul\":4263:4269   */\n  dup3\n    /* \"#utility.yul\":4255:4261   */\n  dup3\n    /* \"#utility.yul\":4249:4253   */\n  dup6\n    /* \"#utility.yul\":4203:4270   */\n  tag_25\n  jump\t// in\ntag_80:\n    /* \"#utility.yul\":4297:4298   */\n  0x00\n    /* \"#utility.yul\":4321:4325   */\n  0x20\n    /* \"#utility.yul\":4308:4325   */\n  swap1\n  pop\n    /* \"#utility.yul\":4353:4355   */\n  0x1f\n    /* \"#utility.yul\":4345:4351   */\n  dup4\n    /* \"#utility.yul\":4342:4356   */\n  gt\n    /* \"#utility.yul\":4370:4371   */\n  0x01\n    /* \"#utility.yul\":4365:4983   */\n  dup2\n  eq\n  tag_82\n  jumpi\n    /* \"#utility.yul\":5027:5028   */\n  0x00\n    /* \"#utility.yul\":5044:5050   */\n  dup5\n    /* \"#utility.yul\":5041:5118   */\n  iszero\n  tag_83\n  jumpi\n    /* \"#utility.yul\":5093:5102   */\n  dup3\n    /* \"#utility.yul\":5088:5091   */\n  dup8\n    /* \"#utility.yul\":5084:5103   */\n  add\n    /* \"#utility.yul\":5078:5104   */\n  mload\n    /* \"#utility.yul\":5069:5104   */\n  swap1\n  pop\n    /* \"#utility.yul\":5041:5118   */\ntag_83:\n    /* \"#utility.yul\":5144:5211   */\n  tag_84\n    /* \"#utility.yul\":5204:5210   */\n  dup6\n    /* \"#utility.yul\":5197:5202   */\n  dup3\n    /* \"#utility.yul\":5144:5211   */\n  tag_28\n  jump\t// in\ntag_84:\n    /* \"#utility.yul\":5138:5142   */\n  dup7\n    /* \"#utility.yul\":5131:5212   */\n  sstore\n    /* \"#utility.yul\":5000:5222   */\n  pop\n    /* \"#utility.yul\":4335:5222   */\n  jump(tag_81)\n    /* \"#utility.yul\":4365:4983   */\ntag_82:\n    /* \"#utility.yul\":4417:4421   */\n  0x1f\n    /* \"#utility.yul\":4413:4422   */\n  not\n    /* \"#utility.yul\":4405:4411   */\n  dup5\n    /* \"#utility.yul\":4401:4423   */\n  and\n    /* \"#utility.yul\":4451:4488   */\n  tag_85\n    /* \"#utility.yul\":4483:4487   */\n  dup7\n    /* \"#utility.yul\":4451:4488   */\n  tag_13\n  jump\t// in\ntag_85:\n    /* \"#utility.yul\":4510:4511   */\n  0x00\n    /* \"#utility.yul\":4524:4732   */\ntag_86:\n    /* \"#utility.yul\":4538:4545   */\n  dup3\n    /* \"#utility.yul\":4535:4536   */\n  dup2\n    /* \"#utility.yul\":4532:4546   */\n  lt\n    /* \"#utility.yul\":4524:4732   */\n  iszero\n  tag_88\n  jumpi\n    /* \"#utility.yul\":4617:4626   */\n  dup5\n    /* \"#utility.yul\":4612:4615   */\n  dup10\n    /* \"#utility.yul\":4608:4627   */\n  add\n    /* \"#utility.yul\":4602:4628   */\n  mload\n    /* \"#utility.yul\":4594:4600   */\n  dup3\n    /* \"#utility.yul\":4587:4629   */\n  sstore\n    /* \"#utility.yul\":4668:4669   */\n  0x01\n    /* \"#utility.yul\":4660:4666   */\n  dup3\n    /* \"#utility.yul\":4656:4670   */\n  add\n    /* \"#utility.yul\":4646:4670   */\n  swap2\n  pop\n    /* \"#utility.yul\":4715:4717   */\n  0x20\n    /* \"#utility.yul\":4704:4713   */\n  dup6\n    /* \"#utility.yul\":4700:4718   */\n  add\n    /* \"#utility.yul\":4687:4718   */\n  swap5\n  pop\n    /* \"#utility.yul\":4561:4565   */\n  0x20\n    /* \"#utility.yul\":4558:4559   */\n  dup2\n    /* \"#utility.yul\":4554:4566   */\n  add\n    /* \"#utility.yul\":4549:4566   */\n  swap1\n  pop\n    /* \"#utility.yul\":4524:4732   */\n  jump(tag_86)\ntag_88:\n    /* \"#utility.yul\":4760:4766   */\n  dup7\n    /* \"#utility.yul\":4751:4758   */\n  dup4\n    /* \"#utility.yul\":4748:4767   */\n  lt\n    /* \"#utility.yul\":4745:4924   */\n  iszero\n  tag_89\n  jumpi\n    /* \"#utility.yul\":4818:4827   */\n  dup5\n    /* \"#utility.yul\":4813:4816   */\n  dup10\n    /* \"#utility.yul\":4809:4828   */\n  add\n    /* \"#utility.yul\":4803:4829   */\n  mload\n    /* \"#utility.yul\":4861:4909   */\n  tag_90\n    /* \"#utility.yul\":4903:4907   */\n  0x1f\n    /* \"#utility.yul\":4895:4901   */\n  dup10\n    /* \"#utility.yul\":4891:4908   */\n  and\n    /* \"#utility.yul\":4880:4889   */\n  dup3\n    /* \"#utility.yul\":4861:4909   */\n  tag_27\n  jump\t// in\ntag_90:\n    /* \"#utility.yul\":4853:4859   */\n  dup4\n    /* \"#utility.yul\":4846:4910   */\n  sstore\n    /* \"#utility.yul\":4768:4924   */\n  pop\n    /* \"#utility.yul\":4745:4924   */\ntag_89:\n    /* \"#utility.yul\":4970:4971   */\n  0x01\n    /* \"#utility.yul\":4966:4967   */\n  0x02\n    /* \"#utility.yul\":4958:4964   */\n  dup9\n    /* \"#utility.yul\":4954:4968   */\n  mul\n    /* \"#utility.yul\":4950:4972   */\n  add\n    /* \"#utility.yul\":4944:4948   */\n  dup9\n    /* \"#utility.yul\":4937:4973   */\n  sstore\n    /* \"#utility.yul\":4372:4983   */\n  pop\n  pop\n  pop\n    /* \"#utility.yul\":4335:5222   */\ntag_81:\n  pop\n    /* \"#utility.yul\":3925:5228   */\n  pop\n  pop\n  pop\n    /* \"#utility.yul\":3833:5228   */\n  pop\n  pop\n  jump\t// out\n    /* \"contracts/MyMapping.sol\":57:807  contract MyMapping {... */\ntag_8:\n  dataSize(sub_0)\n  dup1\n  dataOffset(sub_0)\n  0x00\n  codecopy\n  0x00\n  return\nstop\n\nsub_0: assembly {\n        /* \"contracts/MyMapping.sol\":57:807  contract MyMapping {... */\n      mstore(0x40, 0x80)\n      callvalue\n      dup1\n      iszero\n      tag_1\n      jumpi\n      0x00\n      dup1\n      revert\n    tag_1:\n      pop\n      jumpi(tag_2, lt(calldatasize, 0x04))\n      shr(0xe0, calldataload(0x00))\n      dup1\n      0x27d3553f\n      eq\n      tag_3\n      jumpi\n      dup1\n      0x306c5a2d\n      eq\n      tag_4\n      jumpi\n      dup1\n      0x4622ab03\n      eq\n      tag_5\n      jumpi\n      dup1\n      0x68744046\n      eq\n      tag_6\n      jumpi\n      dup1\n      0x8f0a0350\n      eq\n      tag_7\n      jumpi\n    tag_2:\n      0x00\n      dup1\n      revert\n        /* \"contracts/MyMapping.sol\":560:618  mapping (address => mapping (uint => Book)) public myBooks */\n    tag_3:\n      tag_8\n      0x04\n      dup1\n      calldatasize\n      sub\n      dup2\n      add\n      swap1\n      tag_9\n      swap2\n      swap1\n      tag_10\n      jump\t// in\n    tag_9:\n      tag_11\n      jump\t// in\n    tag_8:\n      mload(0x40)\n      tag_12\n      swap3\n      swap2\n      swap1\n      tag_13\n      jump\t// in\n    tag_12:\n      mload(0x40)\n      dup1\n      swap2\n      sub\n      swap1\n      return\n        /* \"contracts/MyMapping.sol\":366:530  function addBooks(... */\n    tag_4:\n      tag_14\n      0x04\n      dup1\n      calldatasize\n      sub\n      dup2\n      add\n      swap1\n      tag_15\n      swap2\n      swap1\n      tag_16\n      jump\t// in\n    tag_15:\n      tag_17\n      jump\t// in\n    tag_14:\n      stop\n        /* \"contracts/MyMapping.sol\":98:137  mapping(uint256 => string) public names */\n    tag_5:\n      tag_18\n      0x04\n      dup1\n      calldatasize\n      sub\n      dup2\n      add\n      swap1\n      tag_19\n      swap2\n      swap1\n      tag_20\n      jump\t// in\n    tag_19:\n      tag_21\n      jump\t// in\n    tag_18:\n      mload(0x40)\n      tag_22\n      swap2\n      swap1\n      tag_23\n      jump\t// in\n    tag_22:\n      mload(0x40)\n      dup1\n      swap2\n      sub\n      swap1\n      return\n        /* \"contracts/MyMapping.sol\":143:180  mapping(uint256 => Book) public books */\n    tag_6:\n      tag_24\n      0x04\n      dup1\n      calldatasize\n      sub\n      dup2\n      add\n      swap1\n      tag_25\n      swap2\n      swap1\n      tag_20\n      jump\t// in\n    tag_25:\n      tag_26\n      jump\t// in\n    tag_24:\n      mload(0x40)\n      tag_27\n      swap3\n      swap2\n      swap1\n      tag_13\n      jump\t// in\n    tag_27:\n      mload(0x40)\n      dup1\n      swap2\n      sub\n      swap1\n      return\n        /* \"contracts/MyMapping.sol\":624:804  function addMyBooks(... */\n    tag_7:\n      tag_28\n      0x04\n      dup1\n      calldatasize\n      sub\n      dup2\n      add\n      swap1\n      tag_29\n      swap2\n      swap1\n      tag_16\n      jump\t// in\n    tag_29:\n      tag_30\n      jump\t// in\n    tag_28:\n      stop\n        /* \"contracts/MyMapping.sol\":560:618  mapping (address => mapping (uint => Book)) public myBooks */\n    tag_11:\n      mstore(0x20, 0x02)\n      dup2\n      0x00\n      mstore\n      mstore(0x20, keccak256(0x00, 0x40))\n      dup1\n      0x00\n      mstore\n      keccak256(0x00, 0x40)\n      0x00\n      swap2\n      pop\n      swap2\n      pop\n      pop\n      dup1\n      0x00\n      add\n      dup1\n      sload\n      tag_31\n      swap1\n      tag_32\n      jump\t// in\n    tag_31:\n      dup1\n      0x1f\n      add\n      0x20\n      dup1\n      swap2\n      div\n      mul\n      0x20\n      add\n      mload(0x40)\n      swap1\n      dup2\n      add\n      0x40\n      mstore\n      dup1\n      swap3\n      swap2\n      swap1\n      dup2\n      dup2\n      mstore\n      0x20\n      add\n      dup3\n      dup1\n      sload\n      tag_33\n      swap1\n      tag_32\n      jump\t// in\n    tag_33:\n      dup1\n      iszero\n      tag_34\n      jumpi\n      dup1\n      0x1f\n      lt\n      tag_35\n      jumpi\n      0x0100\n      dup1\n      dup4\n      sload\n      div\n      mul\n      dup4\n      mstore\n      swap2\n      0x20\n      add\n      swap2\n      jump(tag_34)\n    tag_35:\n      dup3\n      add\n      swap2\n      swap1\n      0x00\n      mstore\n      keccak256(0x00, 0x20)\n      swap1\n    tag_36:\n      dup2\n      sload\n      dup2\n      mstore\n      swap1\n      0x01\n      add\n      swap1\n      0x20\n      add\n      dup1\n      dup4\n      gt\n      tag_36\n      jumpi\n      dup3\n      swap1\n      sub\n      0x1f\n      and\n      dup3\n      add\n      swap2\n    tag_34:\n      pop\n      pop\n      pop\n      pop\n      pop\n      swap1\n      dup1\n      0x01\n      add\n      dup1\n      sload\n      tag_37\n      swap1\n      tag_32\n      jump\t// in\n    tag_37:\n      dup1\n      0x1f\n      add\n      0x20\n      dup1\n      swap2\n      div\n      mul\n      0x20\n      add\n      mload(0x40)\n      swap1\n      dup2\n      add\n      0x40\n      mstore\n      dup1\n      swap3\n      swap2\n      swap1\n      dup2\n      dup2\n      mstore\n      0x20\n      add\n      dup3\n      dup1\n      sload\n      tag_38\n      swap1\n      tag_32\n      jump\t// in\n    tag_38:\n      dup1\n      iszero\n      tag_39\n      jumpi\n      dup1\n      0x1f\n      lt\n      tag_40\n      jumpi\n      0x0100\n      dup1\n      dup4\n      sload\n      div\n      mul\n      dup4\n      mstore\n      swap2\n      0x20\n      add\n      swap2\n      jump(tag_39)\n    tag_40:\n      dup3\n      add\n      swap2\n      swap1\n      0x00\n      mstore\n      keccak256(0x00, 0x20)\n      swap1\n    tag_41:\n      dup2\n      sload\n      dup2\n      mstore\n      swap1\n      0x01\n      add\n      swap1\n      0x20\n      add\n      dup1\n      dup4\n      gt\n      tag_41\n      jumpi\n      dup3\n      swap1\n      sub\n      0x1f\n      and\n      dup3\n      add\n      swap2\n    tag_39:\n      pop\n      pop\n      pop\n      pop\n      pop\n      swap1\n      pop\n      dup3\n      jump\t// out\n        /* \"contracts/MyMapping.sol\":366:530  function addBooks(... */\n    tag_17:\n        /* \"contracts/MyMapping.sol\":502:523  Book(_title, _author) */\n      mload(0x40)\n      dup1\n      0x40\n      add\n      0x40\n      mstore\n      dup1\n        /* \"contracts/MyMapping.sol\":507:513  _title */\n      dup4\n        /* \"contracts/MyMapping.sol\":502:523  Book(_title, _author) */\n      dup2\n      mstore\n      0x20\n      add\n        /* \"contracts/MyMapping.sol\":515:522  _author */\n      dup3\n        /* \"contracts/MyMapping.sol\":502:523  Book(_title, _author) */\n      dup2\n      mstore\n      pop\n        /* \"contracts/MyMapping.sol\":489:494  books */\n      0x01\n        /* \"contracts/MyMapping.sol\":489:499  books[_id] */\n      0x00\n        /* \"contracts/MyMapping.sol\":495:498  _id */\n      dup6\n        /* \"contracts/MyMapping.sol\":489:499  books[_id] */\n      dup2\n      mstore\n      0x20\n      add\n      swap1\n      dup2\n      mstore\n      0x20\n      add\n      0x00\n      keccak256\n        /* \"contracts/MyMapping.sol\":489:523  books[_id] = Book(_title, _author) */\n      0x00\n      dup3\n      add\n      mload\n      dup2\n      0x00\n      add\n      swap1\n      dup2\n      tag_43\n      swap2\n      swap1\n      tag_44\n      jump\t// in\n    tag_43:\n      pop\n      0x20\n      dup3\n      add\n      mload\n      dup2\n      0x01\n      add\n      swap1\n      dup2\n      tag_45\n      swap2\n      swap1\n      tag_44\n      jump\t// in\n    tag_45:\n      pop\n      swap1\n      pop\n      pop\n        /* \"contracts/MyMapping.sol\":366:530  function addBooks(... */\n      pop\n      pop\n      pop\n      jump\t// out\n        /* \"contracts/MyMapping.sol\":98:137  mapping(uint256 => string) public names */\n    tag_21:\n      mstore(0x20, 0x00)\n      dup1\n      0x00\n      mstore\n      keccak256(0x00, 0x40)\n      0x00\n      swap2\n      pop\n      swap1\n      pop\n      dup1\n      sload\n      tag_46\n      swap1\n      tag_32\n      jump\t// in\n    tag_46:\n      dup1\n      0x1f\n      add\n      0x20\n      dup1\n      swap2\n      div\n      mul\n      0x20\n      add\n      mload(0x40)\n      swap1\n      dup2\n      add\n      0x40\n      mstore\n      dup1\n      swap3\n      swap2\n      swap1\n      dup2\n      dup2\n      mstore\n      0x20\n      add\n      dup3\n      dup1\n      sload\n      tag_47\n      swap1\n      tag_32\n      jump\t// in\n    tag_47:\n      dup1\n      iszero\n      tag_48\n      jumpi\n      dup1\n      0x1f\n      lt\n      tag_49\n      jumpi\n      0x0100\n      dup1\n      dup4\n      sload\n      div\n      mul\n      dup4\n      mstore\n      swap2\n      0x20\n      add\n      swap2\n      jump(tag_48)\n    tag_49:\n      dup3\n      add\n      swap2\n      swap1\n      0x00\n      mstore\n      keccak256(0x00, 0x20)\n      swap1\n    tag_50:\n      dup2\n      sload\n      dup2\n      mstore\n      swap1\n      0x01\n      add\n      swap1\n      0x20\n      add\n      dup1\n      dup4\n      gt\n      tag_50\n      jumpi\n      dup3\n      swap1\n      sub\n      0x1f\n      and\n      dup3\n      add\n      swap2\n    tag_48:\n      pop\n      pop\n      pop\n      pop\n      pop\n      dup2\n      jump\t// out\n        /* \"contracts/MyMapping.sol\":143:180  mapping(uint256 => Book) public books */\n    tag_26:\n      mstore(0x20, 0x01)\n      dup1\n      0x00\n      mstore\n      keccak256(0x00, 0x40)\n      0x00\n      swap2\n      pop\n      swap1\n      pop\n      dup1\n      0x00\n      add\n      dup1\n      sload\n      tag_51\n      swap1\n      tag_32\n      jump\t// in\n    tag_51:\n      dup1\n      0x1f\n      add\n      0x20\n      dup1\n      swap2\n      div\n      mul\n      0x20\n      add\n      mload(0x40)\n      swap1\n      dup2\n      add\n      0x40\n      mstore\n      dup1\n      swap3\n      swap2\n      swap1\n      dup2\n      dup2\n      mstore\n      0x20\n      add\n      dup3\n      dup1\n      sload\n      tag_52\n      swap1\n      tag_32\n      jump\t// in\n    tag_52:\n      dup1\n      iszero\n      tag_53\n      jumpi\n      dup1\n      0x1f\n      lt\n      tag_54\n      jumpi\n      0x0100\n      dup1\n      dup4\n      sload\n      div\n      mul\n      dup4\n      mstore\n      swap2\n      0x20\n      add\n      swap2\n      jump(tag_53)\n    tag_54:\n      dup3\n      add\n      swap2\n      swap1\n      0x00\n      mstore\n      keccak256(0x00, 0x20)\n      swap1\n    tag_55:\n      dup2\n      sload\n      dup2\n      mstore\n      swap1\n      0x01\n      add\n      swap1\n      0x20\n      add\n      dup1\n      dup4\n      gt\n      tag_55\n      jumpi\n      dup3\n      swap1\n      sub\n      0x1f\n      and\n      dup3\n      add\n      swap2\n    tag_53:\n      pop\n      pop\n      pop\n      pop\n      pop\n      swap1\n      dup1\n      0x01\n      add\n      dup1\n      sload\n      tag_56\n      swap1\n      tag_32\n      jump\t// in\n    tag_56:\n      dup1\n      0x1f\n      add\n      0x20\n      dup1\n      swap2\n      div\n      mul\n      0x20\n      add\n      mload(0x40)\n      swap1\n      dup2\n      add\n      0x40\n      mstore\n      dup1\n      swap3\n      swap2\n      swap1\n      dup2\n      dup2\n      mstore\n      0x20\n      add\n      dup3\n      dup1\n      sload\n      tag_57\n      swap1\n      tag_32\n      jump\t// in\n    tag_57:\n      dup1\n      iszero\n      tag_58\n      jumpi\n      dup1\n      0x1f\n      lt\n      tag_59\n      jumpi\n      0x0100\n      dup1\n      dup4\n      sload\n      div\n      mul\n      dup4\n      mstore\n      swap2\n      0x20\n      add\n      swap2\n      jump(tag_58)\n    tag_59:\n      dup3\n      add\n      swap2\n      swap1\n      0x00\n      mstore\n      keccak256(0x00, 0x20)\n      swap1\n    tag_60:\n      dup2\n      sload\n      dup2\n      mstore\n      swap1\n      0x01\n      add\n      swap1\n      0x20\n      add\n      dup1\n      dup4\n      gt\n      tag_60\n      jumpi\n      dup3\n      swap1\n      sub\n      0x1f\n      and\n      dup3\n      add\n      swap2\n    tag_58:\n      pop\n      pop\n      pop\n      pop\n      pop\n      swap1\n      pop\n      dup3\n      jump\t// out\n        /* \"contracts/MyMapping.sol\":624:804  function addMyBooks(... */\n    tag_30:\n        /* \"contracts/MyMapping.sol\":776:797  Book(_title, _author) */\n      mload(0x40)\n      dup1\n      0x40\n      add\n      0x40\n      mstore\n      dup1\n        /* \"contracts/MyMapping.sol\":781:787  _title */\n      dup4\n        /* \"contracts/MyMapping.sol\":776:797  Book(_title, _author) */\n      dup2\n      mstore\n      0x20\n      add\n        /* \"contracts/MyMapping.sol\":789:796  _author */\n      dup3\n        /* \"contracts/MyMapping.sol\":776:797  Book(_title, _author) */\n      dup2\n      mstore\n      pop\n        /* \"contracts/MyMapping.sol\":749:756  myBooks */\n      0x02\n        /* \"contracts/MyMapping.sol\":749:768  myBooks[msg.sender] */\n      0x00\n        /* \"contracts/MyMapping.sol\":757:767  msg.sender */\n      caller\n        /* \"contracts/MyMapping.sol\":749:768  myBooks[msg.sender] */\n      0xffffffffffffffffffffffffffffffffffffffff\n      and\n      0xffffffffffffffffffffffffffffffffffffffff\n      and\n      dup2\n      mstore\n      0x20\n      add\n      swap1\n      dup2\n      mstore\n      0x20\n      add\n      0x00\n      keccak256\n        /* \"contracts/MyMapping.sol\":749:773  myBooks[msg.sender][_id] */\n      0x00\n        /* \"contracts/MyMapping.sol\":769:772  _id */\n      dup6\n        /* \"contracts/MyMapping.sol\":749:773  myBooks[msg.sender][_id] */\n      dup2\n      mstore\n      0x20\n      add\n      swap1\n      dup2\n      mstore\n      0x20\n      add\n      0x00\n      keccak256\n        /* \"contracts/MyMapping.sol\":749:797  myBooks[msg.sender][_id] = Book(_title, _author) */\n      0x00\n      dup3\n      add\n      mload\n      dup2\n      0x00\n      add\n      swap1\n      dup2\n      tag_62\n      swap2\n      swap1\n      tag_44\n      jump\t// in\n    tag_62:\n      pop\n      0x20\n      dup3\n      add\n      mload\n      dup2\n      0x01\n      add\n      swap1\n      dup2\n      tag_63\n      swap2\n      swap1\n      tag_44\n      jump\t// in\n    tag_63:\n      pop\n      swap1\n      pop\n      pop\n        /* \"contracts/MyMapping.sol\":624:804  function addMyBooks(... */\n      pop\n      pop\n      pop\n      jump\t// out\n        /* \"#utility.yul\":7:82   */\n    tag_64:\n        /* \"#utility.yul\":40:46   */\n      0x00\n        /* \"#utility.yul\":73:75   */\n      0x40\n        /* \"#utility.yul\":67:76   */\n      mload\n        /* \"#utility.yul\":57:76   */\n      swap1\n      pop\n        /* \"#utility.yul\":7:82   */\n      swap1\n      jump\t// out\n        /* \"#utility.yul\":88:205   */\n    tag_65:\n        /* \"#utility.yul\":197:198   */\n      0x00\n        /* \"#utility.yul\":194:195   */\n      dup1\n        /* \"#utility.yul\":187:199   */\n      revert\n        /* \"#utility.yul\":211:328   */\n    tag_66:\n        /* \"#utility.yul\":320:321   */\n      0x00\n        /* \"#utility.yul\":317:318   */\n      dup1\n        /* \"#utility.yul\":310:322   */\n      revert\n        /* \"#utility.yul\":334:460   */\n    tag_67:\n        /* \"#utility.yul\":371:378   */\n      0x00\n        /* \"#utility.yul\":411:453   */\n      0xffffffffffffffffffffffffffffffffffffffff\n        /* \"#utility.yul\":404:409   */\n      dup3\n        /* \"#utility.yul\":400:454   */\n      and\n        /* \"#utility.yul\":389:454   */\n      swap1\n      pop\n        /* \"#utility.yul\":334:460   */\n      swap2\n      swap1\n      pop\n      jump\t// out\n        /* \"#utility.yul\":466:562   */\n    tag_68:\n        /* \"#utility.yul\":503:510   */\n      0x00\n        /* \"#utility.yul\":532:556   */\n      tag_110\n        /* \"#utility.yul\":550:555   */\n      dup3\n        /* \"#utility.yul\":532:556   */\n      tag_67\n      jump\t// in\n    tag_110:\n        /* \"#utility.yul\":521:556   */\n      swap1\n      pop\n        /* \"#utility.yul\":466:562   */\n      swap2\n      swap1\n      pop\n      jump\t// out\n        /* \"#utility.yul\":568:690   */\n    tag_69:\n        /* \"#utility.yul\":641:665   */\n      tag_112\n        /* \"#utility.yul\":659:664   */\n      dup2\n        /* \"#utility.yul\":641:665   */\n      tag_68\n      jump\t// in\n    tag_112:\n        /* \"#utility.yul\":634:639   */\n      dup2\n        /* \"#utility.yul\":631:666   */\n      eq\n        /* \"#utility.yul\":621:684   */\n      tag_113\n      jumpi\n        /* \"#utility.yul\":680:681   */\n      0x00\n        /* \"#utility.yul\":677:678   */\n      dup1\n        /* \"#utility.yul\":670:682   */\n      revert\n        /* \"#utility.yul\":621:684   */\n    tag_113:\n        /* \"#utility.yul\":568:690   */\n      pop\n      jump\t// out\n        /* \"#utility.yul\":696:835   */\n    tag_70:\n        /* \"#utility.yul\":742:747   */\n      0x00\n        /* \"#utility.yul\":780:786   */\n      dup2\n        /* \"#utility.yul\":767:787   */\n      calldataload\n        /* \"#utility.yul\":758:787   */\n      swap1\n      pop\n        /* \"#utility.yul\":796:829   */\n      tag_115\n        /* \"#utility.yul\":823:828   */\n      dup2\n        /* \"#utility.yul\":796:829   */\n      tag_69\n      jump\t// in\n    tag_115:\n        /* \"#utility.yul\":696:835   */\n      swap3\n      swap2\n      pop\n      pop\n      jump\t// out\n        /* \"#utility.yul\":841:918   */\n    tag_71:\n        /* \"#utility.yul\":878:885   */\n      0x00\n        /* \"#utility.yul\":907:912   */\n      dup2\n        /* \"#utility.yul\":896:912   */\n      swap1\n      pop\n        /* \"#utility.yul\":841:918   */\n      swap2\n      swap1\n      pop\n      jump\t// out\n        /* \"#utility.yul\":924:1046   */\n    tag_72:\n        /* \"#utility.yul\":997:1021   */\n      tag_118\n        /* \"#utility.yul\":1015:1020   */\n      dup2\n        /* \"#utility.yul\":997:1021   */\n      tag_71\n      jump\t// in\n    tag_118:\n        /* \"#utility.yul\":990:995   */\n      dup2\n        /* \"#utility.yul\":987:1022   */\n      eq\n        /* \"#utility.yul\":977:1040   */\n      tag_119\n      jumpi\n        /* \"#utility.yul\":1036:1037   */\n      0x00\n        /* \"#utility.yul\":1033:1034   */\n      dup1\n        /* \"#utility.yul\":1026:1038   */\n      revert\n        /* \"#utility.yul\":977:1040   */\n    tag_119:\n        /* \"#utility.yul\":924:1046   */\n      pop\n      jump\t// out\n        /* \"#utility.yul\":1052:1191   */\n    tag_73:\n        /* \"#utility.yul\":1098:1103   */\n      0x00\n        /* \"#utility.yul\":1136:1142   */\n      dup2\n        /* \"#utility.yul\":1123:1143   */\n      calldataload\n        /* \"#utility.yul\":1114:1143   */\n      swap1\n      pop\n        /* \"#utility.yul\":1152:1185   */\n      tag_121\n        /* \"#utility.yul\":1179:1184   */\n      dup2\n        /* \"#utility.yul\":1152:1185   */\n      tag_72\n      jump\t// in\n    tag_121:\n        /* \"#utility.yul\":1052:1191   */\n      swap3\n      swap2\n      pop\n      pop\n      jump\t// out\n        /* \"#utility.yul\":1197:1671   */\n    tag_10:\n        /* \"#utility.yul\":1265:1271   */\n      0x00\n        /* \"#utility.yul\":1273:1279   */\n      dup1\n        /* \"#utility.yul\":1322:1324   */\n      0x40\n        /* \"#utility.yul\":1310:1319   */\n      dup4\n        /* \"#utility.yul\":1301:1308   */\n      dup6\n        /* \"#utility.yul\":1297:1320   */\n      sub\n        /* \"#utility.yul\":1293:1325   */\n      slt\n        /* \"#utility.yul\":1290:1409   */\n      iszero\n      tag_123\n      jumpi\n        /* \"#utility.yul\":1328:1407   */\n      tag_124\n      tag_65\n      jump\t// in\n    tag_124:\n        /* \"#utility.yul\":1290:1409   */\n    tag_123:\n        /* \"#utility.yul\":1448:1449   */\n      0x00\n        /* \"#utility.yul\":1473:1526   */\n      tag_125\n        /* \"#utility.yul\":1518:1525   */\n      dup6\n        /* \"#utility.yul\":1509:1515   */\n      dup3\n        /* \"#utility.yul\":1498:1507   */\n      dup7\n        /* \"#utility.yul\":1494:1516   */\n      add\n        /* \"#utility.yul\":1473:1526   */\n      tag_70\n      jump\t// in\n    tag_125:\n        /* \"#utility.yul\":1463:1526   */\n      swap3\n      pop\n        /* \"#utility.yul\":1419:1536   */\n      pop\n        /* \"#utility.yul\":1575:1577   */\n      0x20\n        /* \"#utility.yul\":1601:1654   */\n      tag_126\n        /* \"#utility.yul\":1646:1653   */\n      dup6\n        /* \"#utility.yul\":1637:1643   */\n      dup3\n        /* \"#utility.yul\":1626:1635   */\n      dup7\n        /* \"#utility.yul\":1622:1644   */\n      add\n        /* \"#utility.yul\":1601:1654   */\n      tag_73\n      jump\t// in\n    tag_126:\n        /* \"#utility.yul\":1591:1654   */\n      swap2\n      pop\n        /* \"#utility.yul\":1546:1664   */\n      pop\n        /* \"#utility.yul\":1197:1671   */\n      swap3\n      pop\n      swap3\n      swap1\n      pop\n      jump\t// out\n        /* \"#utility.yul\":1677:1776   */\n    tag_74:\n        /* \"#utility.yul\":1729:1735   */\n      0x00\n        /* \"#utility.yul\":1763:1768   */\n      dup2\n        /* \"#utility.yul\":1757:1769   */\n      mload\n        /* \"#utility.yul\":1747:1769   */\n      swap1\n      pop\n        /* \"#utility.yul\":1677:1776   */\n      swap2\n      swap1\n      pop\n      jump\t// out\n        /* \"#utility.yul\":1782:1951   */\n    tag_75:\n        /* \"#utility.yul\":1866:1877   */\n      0x00\n        /* \"#utility.yul\":1900:1906   */\n      dup3\n        /* \"#utility.yul\":1895:1898   */\n      dup3\n        /* \"#utility.yul\":1888:1907   */\n      mstore\n        /* \"#utility.yul\":1940:1944   */\n      0x20\n        /* \"#utility.yul\":1935:1938   */\n      dup3\n        /* \"#utility.yul\":1931:1945   */\n      add\n        /* \"#utility.yul\":1916:1945   */\n      swap1\n      pop\n        /* \"#utility.yul\":1782:1951   */\n      swap3\n      swap2\n      pop\n      pop\n      jump\t// out\n        /* \"#utility.yul\":1957:2096   */\n    tag_76:\n        /* \"#utility.yul\":2046:2052   */\n      dup3\n        /* \"#utility.yul\":2041:2044   */\n      dup2\n        /* \"#utility.yul\":2036:2039   */\n      dup4\n        /* \"#utility.yul\":2030:2053   */\n      mcopy\n        /* \"#utility.yul\":2087:2088   */\n      0x00\n        /* \"#utility.yul\":2078:2084   */\n      dup4\n        /* \"#utility.yul\":2073:2076   */\n      dup4\n        /* \"#utility.yul\":2069:2085   */\n      add\n        /* \"#utility.yul\":2062:2089   */\n      mstore\n        /* \"#utility.yul\":1957:2096   */\n      pop\n      pop\n      pop\n      jump\t// out\n        /* \"#utility.yul\":2102:2204   */\n    tag_77:\n        /* \"#utility.yul\":2143:2149   */\n      0x00\n        /* \"#utility.yul\":2194:2196   */\n      0x1f\n        /* \"#utility.yul\":2190:2197   */\n      not\n        /* \"#utility.yul\":2185:2187   */\n      0x1f\n        /* \"#utility.yul\":2178:2183   */\n      dup4\n        /* \"#utility.yul\":2174:2188   */\n      add\n        /* \"#utility.yul\":2170:2198   */\n      and\n        /* \"#utility.yul\":2160:2198   */\n      swap1\n      pop\n        /* \"#utility.yul\":2102:2204   */\n      swap2\n      swap1\n      pop\n      jump\t// out\n        /* \"#utility.yul\":2210:2587   */\n    tag_78:\n        /* \"#utility.yul\":2298:2301   */\n      0x00\n        /* \"#utility.yul\":2326:2365   */\n      tag_132\n        /* \"#utility.yul\":2359:2364   */\n      dup3\n        /* \"#utility.yul\":2326:2365   */\n      tag_74\n      jump\t// in\n    tag_132:\n        /* \"#utility.yul\":2381:2452   */\n      tag_133\n        /* \"#utility.yul\":2445:2451   */\n      dup2\n        /* \"#utility.yul\":2440:2443   */\n      dup6\n        /* \"#utility.yul\":2381:2452   */\n      tag_75\n      jump\t// in\n    tag_133:\n        /* \"#utility.yul\":2374:2452   */\n      swap4\n      pop\n        /* \"#utility.yul\":2461:2526   */\n      tag_134\n        /* \"#utility.yul\":2519:2525   */\n      dup2\n        /* \"#utility.yul\":2514:2517   */\n      dup6\n        /* \"#utility.yul\":2507:2511   */\n      0x20\n        /* \"#utility.yul\":2500:2505   */\n      dup7\n        /* \"#utility.yul\":2496:2512   */\n      add\n        /* \"#utility.yul\":2461:2526   */\n      tag_76\n      jump\t// in\n    tag_134:\n        /* \"#utility.yul\":2551:2580   */\n      tag_135\n        /* \"#utility.yul\":2573:2579   */\n      dup2\n        /* \"#utility.yul\":2551:2580   */\n      tag_77\n      jump\t// in\n    tag_135:\n        /* \"#utility.yul\":2546:2549   */\n      dup5\n        /* \"#utility.yul\":2542:2581   */\n      add\n        /* \"#utility.yul\":2535:2581   */\n      swap2\n      pop\n        /* \"#utility.yul\":2302:2587   */\n      pop\n        /* \"#utility.yul\":2210:2587   */\n      swap3\n      swap2\n      pop\n      pop\n      jump\t// out\n        /* \"#utility.yul\":2593:3107   */\n    tag_13:\n        /* \"#utility.yul\":2754:2758   */\n      0x00\n        /* \"#utility.yul\":2792:2794   */\n      0x40\n        /* \"#utility.yul\":2781:2790   */\n      dup3\n        /* \"#utility.yul\":2777:2795   */\n      add\n        /* \"#utility.yul\":2769:2795   */\n      swap1\n      pop\n        /* \"#utility.yul\":2841:2850   */\n      dup2\n        /* \"#utility.yul\":2835:2839   */\n      dup2\n        /* \"#utility.yul\":2831:2851   */\n      sub\n        /* \"#utility.yul\":2827:2828   */\n      0x00\n        /* \"#utility.yul\":2816:2825   */\n      dup4\n        /* \"#utility.yul\":2812:2829   */\n      add\n        /* \"#utility.yul\":2805:2852   */\n      mstore\n        /* \"#utility.yul\":2869:2947   */\n      tag_137\n        /* \"#utility.yul\":2942:2946   */\n      dup2\n        /* \"#utility.yul\":2933:2939   */\n      dup6\n        /* \"#utility.yul\":2869:2947   */\n      tag_78\n      jump\t// in\n    tag_137:\n        /* \"#utility.yul\":2861:2947   */\n      swap1\n      pop\n        /* \"#utility.yul\":2994:3003   */\n      dup2\n        /* \"#utility.yul\":2988:2992   */\n      dup2\n        /* \"#utility.yul\":2984:3004   */\n      sub\n        /* \"#utility.yul\":2979:2981   */\n      0x20\n        /* \"#utility.yul\":2968:2977   */\n      dup4\n        /* \"#utility.yul\":2964:2982   */\n      add\n        /* \"#utility.yul\":2957:3005   */\n      mstore\n        /* \"#utility.yul\":3022:3100   */\n      tag_138\n        /* \"#utility.yul\":3095:3099   */\n      dup2\n        /* \"#utility.yul\":3086:3092   */\n      dup5\n        /* \"#utility.yul\":3022:3100   */\n      tag_78\n      jump\t// in\n    tag_138:\n        /* \"#utility.yul\":3014:3100   */\n      swap1\n      pop\n        /* \"#utility.yul\":2593:3107   */\n      swap4\n      swap3\n      pop\n      pop\n      pop\n      jump\t// out\n        /* \"#utility.yul\":3113:3230   */\n    tag_79:\n        /* \"#utility.yul\":3222:3223   */\n      0x00\n        /* \"#utility.yul\":3219:3220   */\n      dup1\n        /* \"#utility.yul\":3212:3224   */\n      revert\n        /* \"#utility.yul\":3236:3353   */\n    tag_80:\n        /* \"#utility.yul\":3345:3346   */\n      0x00\n        /* \"#utility.yul\":3342:3343   */\n      dup1\n        /* \"#utility.yul\":3335:3347   */\n      revert\n        /* \"#utility.yul\":3359:3539   */\n    tag_81:\n        /* \"#utility.yul\":3407:3484   */\n      0x4e487b7100000000000000000000000000000000000000000000000000000000\n        /* \"#utility.yul\":3404:3405   */\n      0x00\n        /* \"#utility.yul\":3397:3485   */\n      mstore\n        /* \"#utility.yul\":3504:3508   */\n      0x41\n        /* \"#utility.yul\":3501:3502   */\n      0x04\n        /* \"#utility.yul\":3494:3509   */\n      mstore\n        /* \"#utility.yul\":3528:3532   */\n      0x24\n        /* \"#utility.yul\":3525:3526   */\n      0x00\n        /* \"#utility.yul\":3518:3533   */\n      revert\n        /* \"#utility.yul\":3545:3826   */\n    tag_82:\n        /* \"#utility.yul\":3628:3655   */\n      tag_143\n        /* \"#utility.yul\":3650:3654   */\n      dup3\n        /* \"#utility.yul\":3628:3655   */\n      tag_77\n      jump\t// in\n    tag_143:\n        /* \"#utility.yul\":3620:3626   */\n      dup2\n        /* \"#utility.yul\":3616:3656   */\n      add\n        /* \"#utility.yul\":3758:3764   */\n      dup2\n        /* \"#utility.yul\":3746:3756   */\n      dup2\n        /* \"#utility.yul\":3743:3765   */\n      lt\n        /* \"#utility.yul\":3722:3740   */\n      0xffffffffffffffff\n        /* \"#utility.yul\":3710:3720   */\n      dup3\n        /* \"#utility.yul\":3707:3741   */\n      gt\n        /* \"#utility.yul\":3704:3766   */\n      or\n        /* \"#utility.yul\":3701:3789   */\n      iszero\n      tag_144\n      jumpi\n        /* \"#utility.yul\":3769:3787   */\n      tag_145\n      tag_81\n      jump\t// in\n    tag_145:\n        /* \"#utility.yul\":3701:3789   */\n    tag_144:\n        /* \"#utility.yul\":3809:3819   */\n      dup1\n        /* \"#utility.yul\":3805:3807   */\n      0x40\n        /* \"#utility.yul\":3798:3820   */\n      mstore\n        /* \"#utility.yul\":3588:3826   */\n      pop\n        /* \"#utility.yul\":3545:3826   */\n      pop\n      pop\n      jump\t// out\n        /* \"#utility.yul\":3832:3961   */\n    tag_83:\n        /* \"#utility.yul\":3866:3872   */\n      0x00\n        /* \"#utility.yul\":3893:3913   */\n      tag_147\n      tag_64\n      jump\t// in\n    tag_147:\n        /* \"#utility.yul\":3883:3913   */\n      swap1\n      pop\n        /* \"#utility.yul\":3922:3955   */\n      tag_148\n        /* \"#utility.yul\":3950:3954   */\n      dup3\n        /* \"#utility.yul\":3942:3948   */\n      dup3\n        /* \"#utility.yul\":3922:3955   */\n      tag_82\n      jump\t// in\n    tag_148:\n        /* \"#utility.yul\":3832:3961   */\n      swap2\n      swap1\n      pop\n      jump\t// out\n        /* \"#utility.yul\":3967:4275   */\n    tag_84:\n        /* \"#utility.yul\":4029:4033   */\n      0x00\n        /* \"#utility.yul\":4119:4137   */\n      0xffffffffffffffff\n        /* \"#utility.yul\":4111:4117   */\n      dup3\n        /* \"#utility.yul\":4108:4138   */\n      gt\n        /* \"#utility.yul\":4105:4161   */\n      iszero\n      tag_150\n      jumpi\n        /* \"#utility.yul\":4141:4159   */\n      tag_151\n      tag_81\n      jump\t// in\n    tag_151:\n        /* \"#utility.yul\":4105:4161   */\n    tag_150:\n        /* \"#utility.yul\":4179:4208   */\n      tag_152\n        /* \"#utility.yul\":4201:4207   */\n      dup3\n        /* \"#utility.yul\":4179:4208   */\n      tag_77\n      jump\t// in\n    tag_152:\n        /* \"#utility.yul\":4171:4208   */\n      swap1\n      pop\n        /* \"#utility.yul\":4263:4267   */\n      0x20\n        /* \"#utility.yul\":4257:4261   */\n      dup2\n        /* \"#utility.yul\":4253:4268   */\n      add\n        /* \"#utility.yul\":4245:4268   */\n      swap1\n      pop\n        /* \"#utility.yul\":3967:4275   */\n      swap2\n      swap1\n      pop\n      jump\t// out\n        /* \"#utility.yul\":4281:4429   */\n    tag_85:\n        /* \"#utility.yul\":4379:4385   */\n      dup3\n        /* \"#utility.yul\":4374:4377   */\n      dup2\n        /* \"#utility.yul\":4369:4372   */\n      dup4\n        /* \"#utility.yul\":4356:4386   */\n      calldatacopy\n        /* \"#utility.yul\":4420:4421   */\n      0x00\n        /* \"#utility.yul\":4411:4417   */\n      dup4\n        /* \"#utility.yul\":4406:4409   */\n      dup4\n        /* \"#utility.yul\":4402:4418   */\n      add\n        /* \"#utility.yul\":4395:4422   */\n      mstore\n        /* \"#utility.yul\":4281:4429   */\n      pop\n      pop\n      pop\n      jump\t// out\n        /* \"#utility.yul\":4435:4860   */\n    tag_86:\n        /* \"#utility.yul\":4513:4518   */\n      0x00\n        /* \"#utility.yul\":4538:4604   */\n      tag_155\n        /* \"#utility.yul\":4554:4603   */\n      tag_156\n        /* \"#utility.yul\":4596:4602   */\n      dup5\n        /* \"#utility.yul\":4554:4603   */\n      tag_84\n      jump\t// in\n    tag_156:\n        /* \"#utility.yul\":4538:4604   */\n      tag_83\n      jump\t// in\n    tag_155:\n        /* \"#utility.yul\":4529:4604   */\n      swap1\n      pop\n        /* \"#utility.yul\":4627:4633   */\n      dup3\n        /* \"#utility.yul\":4620:4625   */\n      dup2\n        /* \"#utility.yul\":4613:4634   */\n      mstore\n        /* \"#utility.yul\":4665:4669   */\n      0x20\n        /* \"#utility.yul\":4658:4663   */\n      dup2\n        /* \"#utility.yul\":4654:4670   */\n      add\n        /* \"#utility.yul\":4703:4706   */\n      dup5\n        /* \"#utility.yul\":4694:4700   */\n      dup5\n        /* \"#utility.yul\":4689:4692   */\n      dup5\n        /* \"#utility.yul\":4685:4701   */\n      add\n        /* \"#utility.yul\":4682:4707   */\n      gt\n        /* \"#utility.yul\":4679:4791   */\n      iszero\n      tag_157\n      jumpi\n        /* \"#utility.yul\":4710:4789   */\n      tag_158\n      tag_80\n      jump\t// in\n    tag_158:\n        /* \"#utility.yul\":4679:4791   */\n    tag_157:\n        /* \"#utility.yul\":4800:4854   */\n      tag_159\n        /* \"#utility.yul\":4847:4853   */\n      dup5\n        /* \"#utility.yul\":4842:4845   */\n      dup3\n        /* \"#utility.yul\":4837:4840   */\n      dup6\n        /* \"#utility.yul\":4800:4854   */\n      tag_85\n      jump\t// in\n    tag_159:\n        /* \"#utility.yul\":4519:4860   */\n      pop\n        /* \"#utility.yul\":4435:4860   */\n      swap4\n      swap3\n      pop\n      pop\n      pop\n      jump\t// out\n        /* \"#utility.yul\":4880:5220   */\n    tag_87:\n        /* \"#utility.yul\":4936:4941   */\n      0x00\n        /* \"#utility.yul\":4985:4988   */\n      dup3\n        /* \"#utility.yul\":4978:4982   */\n      0x1f\n        /* \"#utility.yul\":4970:4976   */\n      dup4\n        /* \"#utility.yul\":4966:4983   */\n      add\n        /* \"#utility.yul\":4962:4989   */\n      slt\n        /* \"#utility.yul\":4952:5074   */\n      tag_161\n      jumpi\n        /* \"#utility.yul\":4993:5072   */\n      tag_162\n      tag_79\n      jump\t// in\n    tag_162:\n        /* \"#utility.yul\":4952:5074   */\n    tag_161:\n        /* \"#utility.yul\":5110:5116   */\n      dup2\n        /* \"#utility.yul\":5097:5117   */\n      calldataload\n        /* \"#utility.yul\":5135:5214   */\n      tag_163\n        /* \"#utility.yul\":5210:5213   */\n      dup5\n        /* \"#utility.yul\":5202:5208   */\n      dup3\n        /* \"#utility.yul\":5195:5199   */\n      0x20\n        /* \"#utility.yul\":5187:5193   */\n      dup7\n        /* \"#utility.yul\":5183:5200   */\n      add\n        /* \"#utility.yul\":5135:5214   */\n      tag_86\n      jump\t// in\n    tag_163:\n        /* \"#utility.yul\":5126:5214   */\n      swap2\n      pop\n        /* \"#utility.yul\":4942:5220   */\n      pop\n        /* \"#utility.yul\":4880:5220   */\n      swap3\n      swap2\n      pop\n      pop\n      jump\t// out\n        /* \"#utility.yul\":5226:6205   */\n    tag_16:\n        /* \"#utility.yul\":5323:5329   */\n      0x00\n        /* \"#utility.yul\":5331:5337   */\n      dup1\n        /* \"#utility.yul\":5339:5345   */\n      0x00\n        /* \"#utility.yul\":5388:5390   */\n      0x60\n        /* \"#utility.yul\":5376:5385   */\n      dup5\n        /* \"#utility.yul\":5367:5374   */\n      dup7\n        /* \"#utility.yul\":5363:5386   */\n      sub\n        /* \"#utility.yul\":5359:5391   */\n      slt\n        /* \"#utility.yul\":5356:5475   */\n      iszero\n      tag_165\n      jumpi\n        /* \"#utility.yul\":5394:5473   */\n      tag_166\n      tag_65\n      jump\t// in\n    tag_166:\n        /* \"#utility.yul\":5356:5475   */\n    tag_165:\n        /* \"#utility.yul\":5514:5515   */\n      0x00\n        /* \"#utility.yul\":5539:5592   */\n      tag_167\n        /* \"#utility.yul\":5584:5591   */\n      dup7\n        /* \"#utility.yul\":5575:5581   */\n      dup3\n        /* \"#utility.yul\":5564:5573   */\n      dup8\n        /* \"#utility.yul\":5560:5582   */\n      add\n        /* \"#utility.yul\":5539:5592   */\n      tag_73\n      jump\t// in\n    tag_167:\n        /* \"#utility.yul\":5529:5592   */\n      swap4\n      pop\n        /* \"#utility.yul\":5485:5602   */\n      pop\n        /* \"#utility.yul\":5669:5671   */\n      0x20\n        /* \"#utility.yul\":5658:5667   */\n      dup5\n        /* \"#utility.yul\":5654:5672   */\n      add\n        /* \"#utility.yul\":5641:5673   */\n      calldataload\n        /* \"#utility.yul\":5700:5718   */\n      0xffffffffffffffff\n        /* \"#utility.yul\":5692:5698   */\n      dup2\n        /* \"#utility.yul\":5689:5719   */\n      gt\n        /* \"#utility.yul\":5686:5803   */\n      iszero\n      tag_168\n      jumpi\n        /* \"#utility.yul\":5722:5801   */\n      tag_169\n      tag_66\n      jump\t// in\n    tag_169:\n        /* \"#utility.yul\":5686:5803   */\n    tag_168:\n        /* \"#utility.yul\":5827:5890   */\n      tag_170\n        /* \"#utility.yul\":5882:5889   */\n      dup7\n        /* \"#utility.yul\":5873:5879   */\n      dup3\n        /* \"#utility.yul\":5862:5871   */\n      dup8\n        /* \"#utility.yul\":5858:5880   */\n      add\n        /* \"#utility.yul\":5827:5890   */\n      tag_87\n      jump\t// in\n    tag_170:\n        /* \"#utility.yul\":5817:5890   */\n      swap3\n      pop\n        /* \"#utility.yul\":5612:5900   */\n      pop\n        /* \"#utility.yul\":5967:5969   */\n      0x40\n        /* \"#utility.yul\":5956:5965   */\n      dup5\n        /* \"#utility.yul\":5952:5970   */\n      add\n        /* \"#utility.yul\":5939:5971   */\n      calldataload\n        /* \"#utility.yul\":5998:6016   */\n      0xffffffffffffffff\n        /* \"#utility.yul\":5990:5996   */\n      dup2\n        /* \"#utility.yul\":5987:6017   */\n      gt\n        /* \"#utility.yul\":5984:6101   */\n      iszero\n      tag_171\n      jumpi\n        /* \"#utility.yul\":6020:6099   */\n      tag_172\n      tag_66\n      jump\t// in\n    tag_172:\n        /* \"#utility.yul\":5984:6101   */\n    tag_171:\n        /* \"#utility.yul\":6125:6188   */\n      tag_173\n        /* \"#utility.yul\":6180:6187   */\n      dup7\n        /* \"#utility.yul\":6171:6177   */\n      dup3\n        /* \"#utility.yul\":6160:6169   */\n      dup8\n        /* \"#utility.yul\":6156:6178   */\n      add\n        /* \"#utility.yul\":6125:6188   */\n      tag_87\n      jump\t// in\n    tag_173:\n        /* \"#utility.yul\":6115:6188   */\n      swap2\n      pop\n        /* \"#utility.yul\":5910:6198   */\n      pop\n        /* \"#utility.yul\":5226:6205   */\n      swap3\n      pop\n      swap3\n      pop\n      swap3\n      jump\t// out\n        /* \"#utility.yul\":6211:6540   */\n    tag_20:\n        /* \"#utility.yul\":6270:6276   */\n      0x00\n        /* \"#utility.yul\":6319:6321   */\n      0x20\n        /* \"#utility.yul\":6307:6316   */\n      dup3\n        /* \"#utility.yul\":6298:6305   */\n      dup5\n        /* \"#utility.yul\":6294:6317   */\n      sub\n        /* \"#utility.yul\":6290:6322   */\n      slt\n        /* \"#utility.yul\":6287:6406   */\n      iszero\n      tag_175\n      jumpi\n        /* \"#utility.yul\":6325:6404   */\n      tag_176\n      tag_65\n      jump\t// in\n    tag_176:\n        /* \"#utility.yul\":6287:6406   */\n    tag_175:\n        /* \"#utility.yul\":6445:6446   */\n      0x00\n        /* \"#utility.yul\":6470:6523   */\n      tag_177\n        /* \"#utility.yul\":6515:6522   */\n      dup5\n        /* \"#utility.yul\":6506:6512   */\n      dup3\n        /* \"#utility.yul\":6495:6504   */\n      dup6\n        /* \"#utility.yul\":6491:6513   */\n      add\n        /* \"#utility.yul\":6470:6523   */\n      tag_73\n      jump\t// in\n    tag_177:\n        /* \"#utility.yul\":6460:6523   */\n      swap2\n      pop\n        /* \"#utility.yul\":6416:6533   */\n      pop\n        /* \"#utility.yul\":6211:6540   */\n      swap3\n      swap2\n      pop\n      pop\n      jump\t// out\n        /* \"#utility.yul\":6546:6859   */\n    tag_23:\n        /* \"#utility.yul\":6659:6663   */\n      0x00\n        /* \"#utility.yul\":6697:6699   */\n      0x20\n        /* \"#utility.yul\":6686:6695   */\n      dup3\n        /* \"#utility.yul\":6682:6700   */\n      add\n        /* \"#utility.yul\":6674:6700   */\n      swap1\n      pop\n        /* \"#utility.yul\":6746:6755   */\n      dup2\n        /* \"#utility.yul\":6740:6744   */\n      dup2\n        /* \"#utility.yul\":6736:6756   */\n      sub\n        /* \"#utility.yul\":6732:6733   */\n      0x00\n        /* \"#utility.yul\":6721:6730   */\n      dup4\n        /* \"#utility.yul\":6717:6734   */\n      add\n        /* \"#utility.yul\":6710:6757   */\n      mstore\n        /* \"#utility.yul\":6774:6852   */\n      tag_179\n        /* \"#utility.yul\":6847:6851   */\n      dup2\n        /* \"#utility.yul\":6838:6844   */\n      dup5\n        /* \"#utility.yul\":6774:6852   */\n      tag_78\n      jump\t// in\n    tag_179:\n        /* \"#utility.yul\":6766:6852   */\n      swap1\n      pop\n        /* \"#utility.yul\":6546:6859   */\n      swap3\n      swap2\n      pop\n      pop\n      jump\t// out\n        /* \"#utility.yul\":6865:7045   */\n    tag_88:\n        /* \"#utility.yul\":6913:6990   */\n      0x4e487b7100000000000000000000000000000000000000000000000000000000\n        /* \"#utility.yul\":6910:6911   */\n      0x00\n        /* \"#utility.yul\":6903:6991   */\n      mstore\n        /* \"#utility.yul\":7010:7014   */\n      0x22\n        /* \"#utility.yul\":7007:7008   */\n      0x04\n        /* \"#utility.yul\":7000:7015   */\n      mstore\n        /* \"#utility.yul\":7034:7038   */\n      0x24\n        /* \"#utility.yul\":7031:7032   */\n      0x00\n        /* \"#utility.yul\":7024:7039   */\n      revert\n        /* \"#utility.yul\":7051:7371   */\n    tag_32:\n        /* \"#utility.yul\":7095:7101   */\n      0x00\n        /* \"#utility.yul\":7132:7133   */\n      0x02\n        /* \"#utility.yul\":7126:7130   */\n      dup3\n        /* \"#utility.yul\":7122:7134   */\n      div\n        /* \"#utility.yul\":7112:7134   */\n      swap1\n      pop\n        /* \"#utility.yul\":7179:7180   */\n      0x01\n        /* \"#utility.yul\":7173:7177   */\n      dup3\n        /* \"#utility.yul\":7169:7181   */\n      and\n        /* \"#utility.yul\":7200:7218   */\n      dup1\n        /* \"#utility.yul\":7190:7271   */\n      tag_182\n      jumpi\n        /* \"#utility.yul\":7256:7260   */\n      0x7f\n        /* \"#utility.yul\":7248:7254   */\n      dup3\n        /* \"#utility.yul\":7244:7261   */\n      and\n        /* \"#utility.yul\":7234:7261   */\n      swap2\n      pop\n        /* \"#utility.yul\":7190:7271   */\n    tag_182:\n        /* \"#utility.yul\":7318:7320   */\n      0x20\n        /* \"#utility.yul\":7310:7316   */\n      dup3\n        /* \"#utility.yul\":7307:7321   */\n      lt\n        /* \"#utility.yul\":7287:7305   */\n      dup2\n        /* \"#utility.yul\":7284:7322   */\n      sub\n        /* \"#utility.yul\":7281:7365   */\n      tag_183\n      jumpi\n        /* \"#utility.yul\":7337:7355   */\n      tag_184\n      tag_88\n      jump\t// in\n    tag_184:\n        /* \"#utility.yul\":7281:7365   */\n    tag_183:\n        /* \"#utility.yul\":7102:7371   */\n      pop\n        /* \"#utility.yul\":7051:7371   */\n      swap2\n      swap1\n      pop\n      jump\t// out\n        /* \"#utility.yul\":7377:7518   */\n    tag_89:\n        /* \"#utility.yul\":7426:7430   */\n      0x00\n        /* \"#utility.yul\":7449:7452   */\n      dup2\n        /* \"#utility.yul\":7441:7452   */\n      swap1\n      pop\n        /* \"#utility.yul\":7472:7475   */\n      dup2\n        /* \"#utility.yul\":7469:7470   */\n      0x00\n        /* \"#utility.yul\":7462:7476   */\n      mstore\n        /* \"#utility.yul\":7506:7510   */\n      0x20\n        /* \"#utility.yul\":7503:7504   */\n      0x00\n        /* \"#utility.yul\":7493:7511   */\n      keccak256\n        /* \"#utility.yul\":7485:7511   */\n      swap1\n      pop\n        /* \"#utility.yul\":7377:7518   */\n      swap2\n      swap1\n      pop\n      jump\t// out\n        /* \"#utility.yul\":7524:7617   */\n    tag_90:\n        /* \"#utility.yul\":7561:7567   */\n      0x00\n        /* \"#utility.yul\":7608:7610   */\n      0x20\n        /* \"#utility.yul\":7603:7605   */\n      0x1f\n        /* \"#utility.yul\":7596:7601   */\n      dup4\n        /* \"#utility.yul\":7592:7606   */\n      add\n        /* \"#utility.yul\":7588:7611   */\n      div\n        /* \"#utility.yul\":7578:7611   */\n      swap1\n      pop\n        /* \"#utility.yul\":7524:7617   */\n      swap2\n      swap1\n      pop\n      jump\t// out\n        /* \"#utility.yul\":7623:7730   */\n    tag_91:\n        /* \"#utility.yul\":7667:7675   */\n      0x00\n        /* \"#utility.yul\":7717:7722   */\n      dup3\n        /* \"#utility.yul\":7711:7715   */\n      dup3\n        /* \"#utility.yul\":7707:7723   */\n      shl\n        /* \"#utility.yul\":7686:7723   */\n      swap1\n      pop\n        /* \"#utility.yul\":7623:7730   */\n      swap3\n      swap2\n      pop\n      pop\n      jump\t// out\n        /* \"#utility.yul\":7736:8129   */\n    tag_92:\n        /* \"#utility.yul\":7805:7811   */\n      0x00\n        /* \"#utility.yul\":7855:7856   */\n      0x08\n        /* \"#utility.yul\":7843:7853   */\n      dup4\n        /* \"#utility.yul\":7839:7857   */\n      mul\n        /* \"#utility.yul\":7878:7975   */\n      tag_189\n        /* \"#utility.yul\":7908:7974   */\n      0xffffffffffffffffffffffffffffffffffffffffffffffffffffffffffffffff\n        /* \"#utility.yul\":7897:7906   */\n      dup3\n        /* \"#utility.yul\":7878:7975   */\n      tag_91\n      jump\t// in\n    tag_189:\n        /* \"#utility.yul\":7996:8035   */\n      tag_190\n        /* \"#utility.yul\":8026:8034   */\n      dup7\n        /* \"#utility.yul\":8015:8024   */\n      dup4\n        /* \"#utility.yul\":7996:8035   */\n      tag_91\n      jump\t// in\n    tag_190:\n        /* \"#utility.yul\":7984:8035   */\n      swap6\n      pop\n        /* \"#utility.yul\":8068:8072   */\n      dup1\n        /* \"#utility.yul\":8064:8073   */\n      not\n        /* \"#utility.yul\":8057:8062   */\n      dup5\n        /* \"#utility.yul\":8053:8074   */\n      and\n        /* \"#utility.yul\":8044:8074   */\n      swap4\n      pop\n        /* \"#utility.yul\":8117:8121   */\n      dup1\n        /* \"#utility.yul\":8107:8115   */\n      dup7\n        /* \"#utility.yul\":8103:8122   */\n      and\n        /* \"#utility.yul\":8096:8101   */\n      dup5\n        /* \"#utility.yul\":8093:8123   */\n      or\n        /* \"#utility.yul\":8083:8123   */\n      swap3\n      pop\n        /* \"#utility.yul\":7812:8129   */\n      pop\n      pop\n        /* \"#utility.yul\":7736:8129   */\n      swap4\n      swap3\n      pop\n      pop\n      pop\n      jump\t// out\n        /* \"#utility.yul\":8135:8195   */\n    tag_93:\n        /* \"#utility.yul\":8163:8166   */\n      0x00\n        /* \"#utility.yul\":8184:8189   */\n      dup2\n        /* \"#utility.yul\":8177:8189   */\n      swap1\n      pop\n        /* \"#utility.yul\":8135:8195   */\n      swap2\n      swap1\n      pop\n      jump\t// out\n        /* \"#utility.yul\":8201:8343   */\n    tag_94:\n        /* \"#utility.yul\":8251:8260   */\n      0x00\n        /* \"#utility.yul\":8284:8337   */\n      tag_193\n        /* \"#utility.yul\":8302:8336   */\n      tag_194\n        /* \"#utility.yul\":8311:8335   */\n      tag_195\n        /* \"#utility.yul\":8329:8334   */\n      dup5\n        /* \"#utility.yul\":8311:8335   */\n      tag_71\n      jump\t// in\n    tag_195:\n        /* \"#utility.yul\":8302:8336   */\n      tag_93\n      jump\t// in\n    tag_194:\n        /* \"#utility.yul\":8284:8337   */\n      tag_71\n      jump\t// in\n    tag_193:\n        /* \"#utility.yul\":8271:8337   */\n      swap1\n      pop\n        /* \"#utility.yul\":8201:8343   */\n      swap2\n      swap1\n      pop\n      jump\t// out\n        /* \"#utility.yul\":8349:8424   */\n    tag_95:\n        /* \"#utility.yul\":8392:8395   */\n      0x00\n        /* \"#utility.yul\":8413:8418   */\n      dup2\n        /* \"#utility.yul\":8406:8418   */\n      swap1\n      pop\n        /* \"#utility.yul\":8349:8424   */\n      swap2\n      swap1\n      pop\n      jump\t// out\n        /* \"#utility.yul\":8430:8699   */\n    tag_96:\n        /* \"#utility.yul\":8540:8579   */\n      tag_198\n        /* \"#utility.yul\":8571:8578   */\n      dup4\n        /* \"#utility.yul\":8540:8579   */\n      tag_94\n      jump\t// in\n    tag_198:\n        /* \"#utility.yul\":8601:8692   */\n      tag_199\n        /* \"#utility.yul\":8650:8691   */\n      tag_200\n        /* \"#utility.yul\":8674:8690   */\n      dup3\n        /* \"#utility.yul\":8650:8691   */\n      tag_95\n      jump\t// in\n    tag_200:\n        /* \"#utility.yul\":8642:8648   */\n      dup5\n        /* \"#utility.yul\":8635:8639   */\n      dup5\n        /* \"#utility.yul\":8629:8640   */\n      sload\n        /* \"#utility.yul\":8601:8692   */\n      tag_92\n      jump\t// in\n    tag_199:\n        /* \"#utility.yul\":8595:8599   */\n      dup3\n        /* \"#utility.yul\":8588:8693   */\n      sstore\n        /* \"#utility.yul\":8506:8699   */\n      pop\n        /* \"#utility.yul\":8430:8699   */\n      pop\n      pop\n      pop\n      jump\t// out\n        /* \"#utility.yul\":8705:8778   */\n    tag_97:\n        /* \"#utility.yul\":8750:8753   */\n      0x00\n        /* \"#utility.yul\":8705:8778   */\n      swap1\n      jump\t// out\n        /* \"#utility.yul\":8784:8973   */\n    tag_98:\n        /* \"#utility.yul\":8861:8893   */\n      tag_203\n      tag_97\n      jump\t// in\n    tag_203:\n        /* \"#utility.yul\":8902:8967   */\n      tag_204\n        /* \"#utility.yul\":8960:8966   */\n      dup2\n        /* \"#utility.yul\":8952:8958   */\n      dup5\n        /* \"#utility.yul\":8946:8950   */\n      dup5\n        /* \"#utility.yul\":8902:8967   */\n      tag_96\n      jump\t// in\n    tag_204:\n        /* \"#utility.yul\":8837:8973   */\n      pop\n        /* \"#utility.yul\":8784:8973   */\n      pop\n      pop\n      jump\t// out\n        /* \"#utility.yul\":8979:9165   */\n    tag_99:\n        /* \"#utility.yul\":9039:9159   */\n    tag_206:\n        /* \"#utility.yul\":9056:9059   */\n      dup2\n        /* \"#utility.yul\":9049:9054   */\n      dup2\n        /* \"#utility.yul\":9046:9060   */\n      lt\n        /* \"#utility.yul\":9039:9159   */\n      iszero\n      tag_208\n      jumpi\n        /* \"#utility.yul\":9110:9149   */\n      tag_209\n        /* \"#utility.yul\":9147:9148   */\n      0x00\n        /* \"#utility.yul\":9140:9145   */\n      dup3\n        /* \"#utility.yul\":9110:9149   */\n      tag_98\n      jump\t// in\n    tag_209:\n        /* \"#utility.yul\":9083:9084   */\n      0x01\n        /* \"#utility.yul\":9076:9081   */\n      dup2\n        /* \"#utility.yul\":9072:9085   */\n      add\n        /* \"#utility.yul\":9063:9085   */\n      swap1\n      pop\n        /* \"#utility.yul\":9039:9159   */\n      jump(tag_206)\n    tag_208:\n        /* \"#utility.yul\":8979:9165   */\n      pop\n      pop\n      jump\t// out\n        /* \"#utility.yul\":9171:9714   */\n    tag_100:\n        /* \"#utility.yul\":9272:9274   */\n      0x1f\n        /* \"#utility.yul\":9267:9270   */\n      dup3\n        /* \"#utility.yul\":9264:9275   */\n      gt\n        /* \"#utility.yul\":9261:9707   */\n      iszero\n      tag_211\n      jumpi\n        /* \"#utility.yul\":9306:9344   */\n      tag_212\n        /* \"#utility.yul\":9338:9343   */\n      dup2\n        /* \"#utility.yul\":9306:9344   */\n      tag_89\n      jump\t// in\n    tag_212:\n        /* \"#utility.yul\":9390:9419   */\n      tag_213\n        /* \"#utility.yul\":9408:9418   */\n      dup5\n        /* \"#utility.yul\":9390:9419   */\n      tag_90\n      jump\t// in\n    tag_213:\n        /* \"#utility.yul\":9380:9388   */\n      dup2\n        /* \"#utility.yul\":9376:9420   */\n      add\n        /* \"#utility.yul\":9573:9575   */\n      0x20\n        /* \"#utility.yul\":9561:9571   */\n      dup6\n        /* \"#utility.yul\":9558:9576   */\n      lt\n        /* \"#utility.yul\":9555:9604   */\n      iszero\n      tag_214\n      jumpi\n        /* \"#utility.yul\":9594:9602   */\n      dup2\n        /* \"#utility.yul\":9579:9602   */\n      swap1\n      pop\n        /* \"#utility.yul\":9555:9604   */\n    tag_214:\n        /* \"#utility.yul\":9617:9697   */\n      tag_215\n        /* \"#utility.yul\":9673:9695   */\n      tag_216\n        /* \"#utility.yul\":9691:9694   */\n      dup6\n        /* \"#utility.yul\":9673:9695   */\n      tag_90\n      jump\t// in\n    tag_216:\n        /* \"#utility.yul\":9663:9671   */\n      dup4\n        /* \"#utility.yul\":9659:9696   */\n      add\n        /* \"#utility.yul\":9646:9657   */\n      dup3\n        /* \"#utility.yul\":9617:9697   */\n      tag_99\n      jump\t// in\n    tag_215:\n        /* \"#utility.yul\":9276:9707   */\n      pop\n      pop\n        /* \"#utility.yul\":9261:9707   */\n    tag_211:\n        /* \"#utility.yul\":9171:9714   */\n      pop\n      pop\n      pop\n      jump\t// out\n        /* \"#utility.yul\":9720:9837   */\n    tag_101:\n        /* \"#utility.yul\":9774:9782   */\n      0x00\n        /* \"#utility.yul\":9824:9829   */\n      dup3\n        /* \"#utility.yul\":9818:9822   */\n      dup3\n        /* \"#utility.yul\":9814:9830   */\n      shr\n        /* \"#utility.yul\":9793:9830   */\n      swap1\n      pop\n        /* \"#utility.yul\":9720:9837   */\n      swap3\n      swap2\n      pop\n      pop\n      jump\t// out\n        /* \"#utility.yul\":9843:10012   */\n    tag_102:\n        /* \"#utility.yul\":9887:9893   */\n      0x00\n        /* \"#utility.yul\":9920:9971   */\n      tag_219\n        /* \"#utility.yul\":9968:9969   */\n      0x00\n        /* \"#utility.yul\":9964:9970   */\n      not\n        /* \"#utility.yul\":9956:9961   */\n      dup5\n        /* \"#utility.yul\":9953:9954   */\n      0x08\n        /* \"#utility.yul\":9949:9962   */\n      mul\n        /* \"#utility.yul\":9920:9971   */\n      tag_101\n      jump\t// in\n    tag_219:\n        /* \"#utility.yul\":9916:9972   */\n      not\n        /* \"#utility.yul\":10001:10005   */\n      dup1\n        /* \"#utility.yul\":9995:9999   */\n      dup4\n        /* \"#utility.yul\":9991:10006   */\n      and\n        /* \"#utility.yul\":9981:10006   */\n      swap2\n      pop\n        /* \"#utility.yul\":9894:10012   */\n      pop\n        /* \"#utility.yul\":9843:10012   */\n      swap3\n      swap2\n      pop\n      pop\n      jump\t// out\n        /* \"#utility.yul\":10017:10312   */\n    tag_103:\n        /* \"#utility.yul\":10093:10097   */\n      0x00\n        /* \"#utility.yul\":10239:10268   */\n      tag_221\n        /* \"#utility.yul\":10264:10267   */\n      dup4\n        /* \"#utility.yul\":10258:10262   */\n      dup4\n        /* \"#utility.yul\":10239:10268   */\n      tag_102\n      jump\t// in\n    tag_221:\n        /* \"#utility.yul\":10231:10268   */\n      swap2\n      pop\n        /* \"#utility.yul\":10301:10304   */\n      dup3\n        /* \"#utility.yul\":10298:10299   */\n      0x02\n        /* \"#utility.yul\":10294:10305   */\n      mul\n        /* \"#utility.yul\":10288:10292   */\n      dup3\n        /* \"#utility.yul\":10285:10306   */\n      or\n        /* \"#utility.yul\":10277:10306   */\n      swap1\n      pop\n        /* \"#utility.yul\":10017:10312   */\n      swap3\n      swap2\n      pop\n      pop\n      jump\t// out\n        /* \"#utility.yul\":10317:11712   */\n    tag_44:\n        /* \"#utility.yul\":10434:10471   */\n      tag_223\n        /* \"#utility.yul\":10467:10470   */\n      dup3\n        /* \"#utility.yul\":10434:10471   */\n      tag_74\n      jump\t// in\n    tag_223:\n        /* \"#utility.yul\":10536:10554   */\n      0xffffffffffffffff\n        /* \"#utility.yul\":10528:10534   */\n      dup2\n        /* \"#utility.yul\":10525:10555   */\n      gt\n        /* \"#utility.yul\":10522:10578   */\n      iszero\n      tag_224\n      jumpi\n        /* \"#utility.yul\":10558:10576   */\n      tag_225\n      tag_81\n      jump\t// in\n    tag_225:\n        /* \"#utility.yul\":10522:10578   */\n    tag_224:\n        /* \"#utility.yul\":10602:10640   */\n      tag_226\n        /* \"#utility.yul\":10634:10638   */\n      dup3\n        /* \"#utility.yul\":10628:10639   */\n      sload\n        /* \"#utility.yul\":10602:10640   */\n      tag_32\n      jump\t// in\n    tag_226:\n        /* \"#utility.yul\":10687:10754   */\n      tag_227\n        /* \"#utility.yul\":10747:10753   */\n      dup3\n        /* \"#utility.yul\":10739:10745   */\n      dup3\n        /* \"#utility.yul\":10733:10737   */\n      dup6\n        /* \"#utility.yul\":10687:10754   */\n      tag_100\n      jump\t// in\n    tag_227:\n        /* \"#utility.yul\":10781:10782   */\n      0x00\n        /* \"#utility.yul\":10805:10809   */\n      0x20\n        /* \"#utility.yul\":10792:10809   */\n      swap1\n      pop\n        /* \"#utility.yul\":10837:10839   */\n      0x1f\n        /* \"#utility.yul\":10829:10835   */\n      dup4\n        /* \"#utility.yul\":10826:10840   */\n      gt\n        /* \"#utility.yul\":10854:10855   */\n      0x01\n        /* \"#utility.yul\":10849:11467   */\n      dup2\n      eq\n      tag_229\n      jumpi\n        /* \"#utility.yul\":11511:11512   */\n      0x00\n        /* \"#utility.yul\":11528:11534   */\n      dup5\n        /* \"#utility.yul\":11525:11602   */\n      iszero\n      tag_230\n      jumpi\n        /* \"#utility.yul\":11577:11586   */\n      dup3\n        /* \"#utility.yul\":11572:11575   */\n      dup8\n        /* \"#utility.yul\":11568:11587   */\n      add\n        /* \"#utility.yul\":11562:11588   */\n      mload\n        /* \"#utility.yul\":11553:11588   */\n      swap1\n      pop\n        /* \"#utility.yul\":11525:11602   */\n    tag_230:\n        /* \"#utility.yul\":11628:11695   */\n      tag_231\n        /* \"#utility.yul\":11688:11694   */\n      dup6\n        /* \"#utility.yul\":11681:11686   */\n      dup3\n        /* \"#utility.yul\":11628:11695   */\n      tag_103\n      jump\t// in\n    tag_231:\n        /* \"#utility.yul\":11622:11626   */\n      dup7\n        /* \"#utility.yul\":11615:11696   */\n      sstore\n        /* \"#utility.yul\":11484:11706   */\n      pop\n        /* \"#utility.yul\":10819:11706   */\n      jump(tag_228)\n        /* \"#utility.yul\":10849:11467   */\n    tag_229:\n        /* \"#utility.yul\":10901:10905   */\n      0x1f\n        /* \"#utility.yul\":10897:10906   */\n      not\n        /* \"#utility.yul\":10889:10895   */\n      dup5\n        /* \"#utility.yul\":10885:10907   */\n      and\n        /* \"#utility.yul\":10935:10972   */\n      tag_232\n        /* \"#utility.yul\":10967:10971   */\n      dup7\n        /* \"#utility.yul\":10935:10972   */\n      tag_89\n      jump\t// in\n    tag_232:\n        /* \"#utility.yul\":10994:10995   */\n      0x00\n        /* \"#utility.yul\":11008:11216   */\n    tag_233:\n        /* \"#utility.yul\":11022:11029   */\n      dup3\n        /* \"#utility.yul\":11019:11020   */\n      dup2\n        /* \"#utility.yul\":11016:11030   */\n      lt\n        /* \"#utility.yul\":11008:11216   */\n      iszero\n      tag_235\n      jumpi\n        /* \"#utility.yul\":11101:11110   */\n      dup5\n        /* \"#utility.yul\":11096:11099   */\n      dup10\n        /* \"#utility.yul\":11092:11111   */\n      add\n        /* \"#utility.yul\":11086:11112   */\n      mload\n        /* \"#utility.yul\":11078:11084   */\n      dup3\n        /* \"#utility.yul\":11071:11113   */\n      sstore\n        /* \"#utility.yul\":11152:11153   */\n      0x01\n        /* \"#utility.yul\":11144:11150   */\n      dup3\n        /* \"#utility.yul\":11140:11154   */\n      add\n        /* \"#utility.yul\":11130:11154   */\n      swap2\n      pop\n        /* \"#utility.yul\":11199:11201   */\n      0x20\n        /* \"#utility.yul\":11188:11197   */\n      dup6\n        /* \"#utility.yul\":11184:11202   */\n      add\n        /* \"#utility.yul\":11171:11202   */\n      swap5\n      pop\n        /* \"#utility.yul\":11045:11049   */\n      0x20\n        /* \"#utility.yul\":11042:11043   */\n      dup2\n        /* \"#utility.yul\":11038:11050   */\n      add\n        /* \"#utility.yul\":11033:11050   */\n      swap1\n      pop\n        /* \"#utility.yul\":11008:11216   */\n      jump(tag_233)\n    tag_235:\n        /* \"#utility.yul\":11244:11250   */\n      dup7\n        /* \"#utility.yul\":11235:11242   */\n      dup4\n        /* \"#utility.yul\":11232:11251   */\n      lt\n        /* \"#utility.yul\":11229:11408   */\n      iszero\n      tag_236\n      jumpi\n        /* \"#utility.yul\":11302:11311   */\n      dup5\n        /* \"#utility.yul\":11297:11300   */\n      dup10\n        /* \"#utility.yul\":11293:11312   */\n      add\n        /* \"#utility.yul\":11287:11313   */\n      mload\n        /* \"#utility.yul\":11345:11393   */\n      tag_237\n        /* \"#utility.yul\":11387:11391   */\n      0x1f\n        /* \"#utility.yul\":11379:11385   */\n      dup10\n        /* \"#utility.yul\":11375:11392   */\n      and\n        /* \"#utility.yul\":11364:11373   */\n      dup3\n        /* \"#utility.yul\":11345:11393   */\n      tag_102\n      jump\t// in\n    tag_237:\n        /* \"#utility.yul\":11337:11343   */\n      dup4\n        /* \"#utility.yul\":11330:11394   */\n      sstore\n        /* \"#utility.yul\":11252:11408   */\n      pop\n        /* \"#utility.yul\":11229:11408   */\n    tag_236:\n        /* \"#utility.yul\":11454:11455   */\n      0x01\n        /* \"#utility.yul\":11450:11451   */\n      0x02\n        /* \"#utility.yul\":11442:11448   */\n      dup9\n        /* \"#utility.yul\":11438:11452   */\n      mul\n        /* \"#utility.yul\":11434:11456   */\n      add\n        /* \"#utility.yul\":11428:11432   */\n      dup9\n        /* \"#utility.yul\":11421:11457   */\n      sstore\n        /* \"#utility.yul\":10856:11467   */\n      pop\n      pop\n      pop\n        /* \"#utility.yul\":10819:11706   */\n    tag_228:\n      pop\n        /* \"#utility.yul\":10409:11712   */\n      pop\n      pop\n      pop\n        /* \"#utility.yul\":10317:11712   */\n      pop\n      pop\n      jump\t// out\n\n    auxdata: 0xa264697066735822122013c02f579dcbb18fca41b541f65ddbd2f747bc730b43e31fc7c5fd8adcfe172464736f6c63430008190033\n}\n",
				"bytecode": {
					"linkReferences": {},
					"object": "608060405234801561000f575f80fd5b506040518060400160405280600481526020017f4164616d000000000000000000000000000000000000000000000000000000008152505f80600181526020019081526020015f209081610063919061034b565b506040518060400160405280600581526020017f42727563650000000000000000000000000000000000000000000000000000008152505f80600281526020019081526020015f2090816100b7919061034b565b506040518060400160405280600481526020017f4361726c000000000000000000000000000000000000000000000000000000008152505f80600381526020019081526020015f20908161010b919061034b565b5061041a565b5f81519050919050565b7f4e487b71000000000000000000000000000000000000000000000000000000005f52604160045260245ffd5b7f4e487b71000000000000000000000000000000000000000000000000000000005f52602260045260245ffd5b5f600282049050600182168061018c57607f821691505b60208210810361019f5761019e610148565b5b50919050565b5f819050815f5260205f209050919050565b5f6020601f8301049050919050565b5f82821b905092915050565b5f600883026102017fffffffffffffffffffffffffffffffffffffffffffffffffffffffffffffffff826101c6565b61020b86836101c6565b95508019841693508086168417925050509392505050565b5f819050919050565b5f819050919050565b5f61024f61024a61024584610223565b61022c565b610223565b9050919050565b5f819050919050565b61026883610235565b61027c61027482610256565b8484546101d2565b825550505050565b5f90565b610290610284565b61029b81848461025f565b505050565b5b818110156102be576102b35f82610288565b6001810190506102a1565b5050565b601f821115610303576102d4816101a5565b6102dd846101b7565b810160208510156102ec578190505b6103006102f8856101b7565b8301826102a0565b50505b505050565b5f82821c905092915050565b5f6103235f1984600802610308565b1980831691505092915050565b5f61033b8383610314565b9150826002028217905092915050565b61035482610111565b67ffffffffffffffff81111561036d5761036c61011b565b5b6103778254610175565b6103828282856102c2565b5f60209050601f8311600181146103b3575f84156103a1578287015190505b6103ab8582610330565b865550610412565b601f1984166103c1866101a5565b5f5b828110156103e8578489015182556001820191506020850194506020810190506103c3565b868310156104055784890151610401601f891682610314565b8355505b6001600288020188555050505b505050505050565b610b8a806104275f395ff3fe608060405234801561000f575f80fd5b5060043610610055575f3560e01c806327d3553f14610059578063306c5a2d1461008a5780634622ab03146100a657806368744046146100d65780638f0a035014610107575b5f80fd5b610073600480360381019061006e91906105a9565b610123565b604051610081929190610657565b60405180910390f35b6100a4600480360381019061009f91906107b8565b61025a565b005b6100c060048036038101906100bb9190610840565b6102b2565b6040516100cd919061086b565b60405180910390f35b6100f060048036038101906100eb9190610840565b61034c565b6040516100fe929190610657565b60405180910390f35b610121600480360381019061011c91906107b8565b610478565b005b6002602052815f5260405f20602052805f5260405f205f9150915050805f01805461014d906108b8565b80601f0160208091040260200160405190810160405280929190818152602001828054610179906108b8565b80156101c45780601f1061019b576101008083540402835291602001916101c4565b820191905f5260205f20905b8154815290600101906020018083116101a757829003601f168201915b5050505050908060010180546101d9906108b8565b80601f0160208091040260200160405190810160405280929190818152602001828054610205906108b8565b80156102505780601f1061022757610100808354040283529160200191610250565b820191905f5260205f20905b81548152906001019060200180831161023357829003601f168201915b5050505050905082565b60405180604001604052808381526020018281525060015f8581526020019081526020015f205f820151815f0190816102939190610a85565b5060208201518160010190816102a99190610a85565b50905050505050565b5f602052805f5260405f205f9150905080546102cd906108b8565b80601f01602080910402602001604051908101604052809291908181526020018280546102f9906108b8565b80156103445780601f1061031b57610100808354040283529160200191610344565b820191905f5260205f20905b81548152906001019060200180831161032757829003601f168201915b505050505081565b6001602052805f5260405f205f91509050805f01805461036b906108b8565b80601f0160208091040260200160405190810160405280929190818152602001828054610397906108b8565b80156103e25780601f106103b9576101008083540402835291602001916103e2565b820191905f5260205f20905b8154815290600101906020018083116103c557829003601f168201915b5050505050908060010180546103f7906108b8565b80601f0160208091040260200160405190810160405280929190818152602001828054610423906108b8565b801561046e5780601f106104455761010080835404028352916020019161046e565b820191905f5260205f20905b81548152906001019060200180831161045157829003601f168201915b5050505050905082565b60405180604001604052808381526020018281525060025f3373ffffffffffffffffffffffffffffffffffffffff1673ffffffffffffffffffffffffffffffffffffffff1681526020019081526020015f205f8581526020019081526020015f205f820151815f0190816104ec9190610a85565b5060208201518160010190816105029190610a85565b50905050505050565b5f604051905090565b5f80fd5b5f80fd5b5f73ffffffffffffffffffffffffffffffffffffffff82169050919050565b5f6105458261051c565b9050919050565b6105558161053b565b811461055f575f80fd5b50565b5f813590506105708161054c565b92915050565b5f819050919050565b61058881610576565b8114610592575f80fd5b50565b5f813590506105a38161057f565b92915050565b5f80604083850312156105bf576105be610514565b5b5f6105cc85828601610562565b92505060206105dd85828601610595565b9150509250929050565b5f81519050919050565b5f82825260208201905092915050565b8281835e5f83830152505050565b5f601f19601f8301169050919050565b5f610629826105e7565b61063381856105f1565b9350610643818560208601610601565b61064c8161060f565b840191505092915050565b5f6040820190508181035f83015261066f818561061f565b90508181036020830152610683818461061f565b90509392505050565b5f80fd5b5f80fd5b7f4e487b71000000000000000000000000000000000000000000000000000000005f52604160045260245ffd5b6106ca8261060f565b810181811067ffffffffffffffff821117156106e9576106e8610694565b5b80604052505050565b5f6106fb61050b565b905061070782826106c1565b919050565b5f67ffffffffffffffff82111561072657610725610694565b5b61072f8261060f565b9050602081019050919050565b828183375f83830152505050565b5f61075c6107578461070c565b6106f2565b90508281526020810184848401111561077857610777610690565b5b61078384828561073c565b509392505050565b5f82601f83011261079f5761079e61068c565b5b81356107af84826020860161074a565b91505092915050565b5f805f606084860312156107cf576107ce610514565b5b5f6107dc86828701610595565b935050602084013567ffffffffffffffff8111156107fd576107fc610518565b5b6108098682870161078b565b925050604084013567ffffffffffffffff81111561082a57610829610518565b5b6108368682870161078b565b9150509250925092565b5f6020828403121561085557610854610514565b5b5f61086284828501610595565b91505092915050565b5f6020820190508181035f830152610883818461061f565b905092915050565b7f4e487b71000000000000000000000000000000000000000000000000000000005f52602260045260245ffd5b5f60028204905060018216806108cf57607f821691505b6020821081036108e2576108e161088b565b5b50919050565b5f819050815f5260205f209050919050565b5f6020601f8301049050919050565b5f82821b905092915050565b5f600883026109447fffffffffffffffffffffffffffffffffffffffffffffffffffffffffffffffff82610909565b61094e8683610909565b95508019841693508086168417925050509392505050565b5f819050919050565b5f61098961098461097f84610576565b610966565b610576565b9050919050565b5f819050919050565b6109a28361096f565b6109b66109ae82610990565b848454610915565b825550505050565b5f90565b6109ca6109be565b6109d5818484610999565b505050565b5b818110156109f8576109ed5f826109c2565b6001810190506109db565b5050565b601f821115610a3d57610a0e816108e8565b610a17846108fa565b81016020851015610a26578190505b610a3a610a32856108fa565b8301826109da565b50505b505050565b5f82821c905092915050565b5f610a5d5f1984600802610a42565b1980831691505092915050565b5f610a758383610a4e565b9150826002028217905092915050565b610a8e826105e7565b67ffffffffffffffff811115610aa757610aa6610694565b5b610ab182546108b8565b610abc8282856109fc565b5f60209050601f831160018114610aed575f8415610adb578287015190505b610ae58582610a6a565b865550610b4c565b601f198416610afb866108e8565b5f5b82811015610b2257848901518255600182019150602085019450602081019050610afd565b86831015610b3f5784890151610b3b601f891682610a4e565b8355505b6001600288020188555050505b50505050505056fea264697066735822122013c02f579dcbb18fca41b541f65ddbd2f747bc730b43e31fc7c5fd8adcfe172464736f6c63430008190033",
					"opcodes": "PUSH1 0x80 PUSH1 0x40 MSTORE CALLVALUE DUP1 ISZERO PUSH2 0xF JUMPI PUSH0 DUP1 REVERT JUMPDEST POP PUSH1 0x40 MLOAD DUP1 PUSH1 0x40 ADD PUSH1 0x40 MSTORE DUP1 PUSH1 0x4 DUP2 MSTORE PUSH1 0x20 ADD PUSH32 0x4164616D00000000000000000000000000000000000000000000000000000000 DUP2 MSTORE POP PUSH0 DUP1 PUSH1 0x1 DUP2 MSTORE PUSH1 0x20 ADD SWAP1 DUP2 MSTORE PUSH1 0x20 ADD PUSH0 KECCAK256 SWAP1 DUP2 PUSH2 0x63 SWAP2 SWAP1 PUSH2 0x34B JUMP JUMPDEST POP PUSH1 0x40 MLOAD DUP1 PUSH1 0x40 ADD PUSH1 0x40 MSTORE DUP1 PUSH1 0x5 DUP2 MSTORE PUSH1 0x20 ADD PUSH32 0x4272756365000000000000000000000000000000000000000000000000000000 DUP2 MSTORE POP PUSH0 DUP1 PUSH1 0x2 DUP2 MSTORE PUSH1 0x20 ADD SWAP1 DUP2 MSTORE PUSH1 0x20 ADD PUSH0 KECCAK256 SWAP1 DUP2 PUSH2 0xB7 SWAP2 SWAP1 PUSH2 0x34B JUMP JUMPDEST POP PUSH1 0x40 MLOAD DUP1 PUSH1 0x40 ADD PUSH1 0x40 MSTORE DUP1 PUSH1 0x4 DUP2 MSTORE PUSH1 0x20 ADD PUSH32 0x4361726C00000000000000000000000000000000000000000000000000000000 DUP2 MSTORE POP PUSH0 DUP1 PUSH1 0x3 DUP2 MSTORE PUSH1 0x20 ADD SWAP1 DUP2 MSTORE PUSH1 0x20 ADD PUSH0 KECCAK256 SWAP1 DUP2 PUSH2 0x10B SWAP2 SWAP1 PUSH2 0x34B JUMP JUMPDEST POP PUSH2 0x41A JUMP JUMPDEST PUSH0 DUP2 MLOAD SWAP1 POP SWAP2 SWAP1 POP JUMP JUMPDEST PUSH32 0x4E487B7100000000000000000000000000000000000000000000000000000000 PUSH0 MSTORE PUSH1 0x41 PUSH1 0x4 MSTORE PUSH1 0x24 PUSH0 REVERT JUMPDEST PUSH32 0x4E487B7100000000000000000000000000000000000000000000000000000000 PUSH0 MSTORE PUSH1 0x22 PUSH1 0x4 MSTORE PUSH1 0x24 PUSH0 REVERT JUMPDEST PUSH0 PUSH1 0x2 DUP3 DIV SWAP1 POP PUSH1 0x1 DUP3 AND DUP1 PUSH2 0x18C JUMPI PUSH1 0x7F DUP3 AND SWAP2 POP JUMPDEST PUSH1 0x20 DUP3 LT DUP2 SUB PUSH2 0x19F JUMPI PUSH2 0x19E PUSH2 0x148 JUMP JUMPDEST JUMPDEST POP SWAP2 SWAP1 POP JUMP JUMPDEST PUSH0 DUP2 SWAP1 POP DUP2 PUSH0 MSTORE PUSH1 0x20 PUSH0 KECCAK256 SWAP1 POP SWAP2 SWAP1 POP JUMP JUMPDEST PUSH0 PUSH1 0x20 PUSH1 0x1F DUP4 ADD DIV SWAP1 POP SWAP2 SWAP1 POP JUMP JUMPDEST PUSH0 DUP3 DUP3 SHL SWAP1 POP SWAP3 SWAP2 POP POP JUMP JUMPDEST PUSH0 PUSH1 0x8 DUP4 MUL PUSH2 0x201 PUSH32 0xFFFFFFFFFFFFFFFFFFFFFFFFFFFFFFFFFFFFFFFFFFFFFFFFFFFFFFFFFFFFFFFF DUP3 PUSH2 0x1C6 JUMP JUMPDEST PUSH2 0x20B DUP7 DUP4 PUSH2 0x1C6 JUMP JUMPDEST SWAP6 POP DUP1 NOT DUP5 AND SWAP4 POP DUP1 DUP7 AND DUP5 OR SWAP3 POP POP POP SWAP4 SWAP3 POP POP POP JUMP JUMPDEST PUSH0 DUP2 SWAP1 POP SWAP2 SWAP1 POP JUMP JUMPDEST PUSH0 DUP2 SWAP1 POP SWAP2 SWAP1 POP JUMP JUMPDEST PUSH0 PUSH2 0x24F PUSH2 0x24A PUSH2 0x245 DUP5 PUSH2 0x223 JUMP JUMPDEST PUSH2 0x22C JUMP JUMPDEST PUSH2 0x223 JUMP JUMPDEST SWAP1 POP SWAP2 SWAP1 POP JUMP JUMPDEST PUSH0 DUP2 SWAP1 POP SWAP2 SWAP1 POP JUMP JUMPDEST PUSH2 0x268 DUP4 PUSH2 0x235 JUMP JUMPDEST PUSH2 0x27C PUSH2 0x274 DUP3 PUSH2 0x256 JUMP JUMPDEST DUP5 DUP5 SLOAD PUSH2 0x1D2 JUMP JUMPDEST DUP3 SSTORE POP POP POP POP JUMP JUMPDEST PUSH0 SWAP1 JUMP JUMPDEST PUSH2 0x290 PUSH2 0x284 JUMP JUMPDEST PUSH2 0x29B DUP2 DUP5 DUP5 PUSH2 0x25F JUMP JUMPDEST POP POP POP JUMP JUMPDEST JUMPDEST DUP2 DUP2 LT ISZERO PUSH2 0x2BE JUMPI PUSH2 0x2B3 PUSH0 DUP3 PUSH2 0x288 JUMP JUMPDEST PUSH1 0x1 DUP2 ADD SWAP1 POP PUSH2 0x2A1 JUMP JUMPDEST POP POP JUMP JUMPDEST PUSH1 0x1F DUP3 GT ISZERO PUSH2 0x303 JUMPI PUSH2 0x2D4 DUP2 PUSH2 0x1A5 JUMP JUMPDEST PUSH2 0x2DD DUP5 PUSH2 0x1B7 JUMP JUMPDEST DUP2 ADD PUSH1 0x20 DUP6 LT ISZERO PUSH2 0x2EC JUMPI DUP2 SWAP1 POP JUMPDEST PUSH2 0x300 PUSH2 0x2F8 DUP6 PUSH2 0x1B7 JUMP JUMPDEST DUP4 ADD DUP3 PUSH2 0x2A0 JUMP JUMPDEST POP POP JUMPDEST POP POP POP JUMP JUMPDEST PUSH0 DUP3 DUP3 SHR SWAP1 POP SWAP3 SWAP2 POP POP JUMP JUMPDEST PUSH0 PUSH2 0x323 PUSH0 NOT DUP5 PUSH1 0x8 MUL PUSH2 0x308 JUMP JUMPDEST NOT DUP1 DUP4 AND SWAP2 POP POP SWAP3 SWAP2 POP POP JUMP JUMPDEST PUSH0 PUSH2 0x33B DUP4 DUP4 PUSH2 0x314 JUMP JUMPDEST SWAP2 POP DUP3 PUSH1 0x2 MUL DUP3 OR SWAP1 POP SWAP3 SWAP2 POP POP JUMP JUMPDEST PUSH2 0x354 DUP3 PUSH2 0x111 JUMP JUMPDEST PUSH8 0xFFFFFFFFFFFFFFFF DUP2 GT ISZERO PUSH2 0x36D JUMPI PUSH2 0x36C PUSH2 0x11B JUMP JUMPDEST JUMPDEST PUSH2 0x377 DUP3 SLOAD PUSH2 0x175 JUMP JUMPDEST PUSH2 0x382 DUP3 DUP3 DUP6 PUSH2 0x2C2 JUMP JUMPDEST PUSH0 PUSH1 0x20 SWAP1 POP PUSH1 0x1F DUP4 GT PUSH1 0x1 DUP2 EQ PUSH2 0x3B3 JUMPI PUSH0 DUP5 ISZERO PUSH2 0x3A1 JUMPI DUP3 DUP8 ADD MLOAD SWAP1 POP JUMPDEST PUSH2 0x3AB DUP6 DUP3 PUSH2 0x330 JUMP JUMPDEST DUP7 SSTORE POP PUSH2 0x412 JUMP JUMPDEST PUSH1 0x1F NOT DUP5 AND PUSH2 0x3C1 DUP7 PUSH2 0x1A5 JUMP JUMPDEST PUSH0 JUMPDEST DUP3 DUP2 LT ISZERO PUSH2 0x3E8 JUMPI DUP5 DUP10 ADD MLOAD DUP3 SSTORE PUSH1 0x1 DUP3 ADD SWAP2 POP PUSH1 0x20 DUP6 ADD SWAP5 POP PUSH1 0x20 DUP2 ADD SWAP1 POP PUSH2 0x3C3 JUMP JUMPDEST DUP7 DUP4 LT ISZERO PUSH2 0x405 JUMPI DUP5 DUP10 ADD MLOAD PUSH2 0x401 PUSH1 0x1F DUP10 AND DUP3 PUSH2 0x314 JUMP JUMPDEST DUP4 SSTORE POP JUMPDEST PUSH1 0x1 PUSH1 0x2 DUP9 MUL ADD DUP9 SSTORE POP POP POP JUMPDEST POP POP POP POP POP POP JUMP JUMPDEST PUSH2 0xB8A DUP1 PUSH2 0x427 PUSH0 CODECOPY PUSH0 RETURN INVALID PUSH1 0x80 PUSH1 0x40 MSTORE CALLVALUE DUP1 ISZERO PUSH2 0xF JUMPI PUSH0 DUP1 REVERT JUMPDEST POP PUSH1 0x4 CALLDATASIZE LT PUSH2 0x55 JUMPI PUSH0 CALLDATALOAD PUSH1 0xE0 SHR DUP1 PUSH4 0x27D3553F EQ PUSH2 0x59 JUMPI DUP1 PUSH4 0x306C5A2D EQ PUSH2 0x8A JUMPI DUP1 PUSH4 0x4622AB03 EQ PUSH2 0xA6 JUMPI DUP1 PUSH4 0x68744046 EQ PUSH2 0xD6 JUMPI DUP1 PUSH4 0x8F0A0350 EQ PUSH2 0x107 JUMPI JUMPDEST PUSH0 DUP1 REVERT JUMPDEST PUSH2 0x73 PUSH1 0x4 DUP1 CALLDATASIZE SUB DUP2 ADD SWAP1 PUSH2 0x6E SWAP2 SWAP1 PUSH2 0x5A9 JUMP JUMPDEST PUSH2 0x123 JUMP JUMPDEST PUSH1 0x40 MLOAD PUSH2 0x81 SWAP3 SWAP2 SWAP1 PUSH2 0x657 JUMP JUMPDEST PUSH1 0x40 MLOAD DUP1 SWAP2 SUB SWAP1 RETURN JUMPDEST PUSH2 0xA4 PUSH1 0x4 DUP1 CALLDATASIZE SUB DUP2 ADD SWAP1 PUSH2 0x9F SWAP2 SWAP1 PUSH2 0x7B8 JUMP JUMPDEST PUSH2 0x25A JUMP JUMPDEST STOP JUMPDEST PUSH2 0xC0 PUSH1 0x4 DUP1 CALLDATASIZE SUB DUP2 ADD SWAP1 PUSH2 0xBB SWAP2 SWAP1 PUSH2 0x840 JUMP JUMPDEST PUSH2 0x2B2 JUMP JUMPDEST PUSH1 0x40 MLOAD PUSH2 0xCD SWAP2 SWAP1 PUSH2 0x86B JUMP JUMPDEST PUSH1 0x40 MLOAD DUP1 SWAP2 SUB SWAP1 RETURN JUMPDEST PUSH2 0xF0 PUSH1 0x4 DUP1 CALLDATASIZE SUB DUP2 ADD SWAP1 PUSH2 0xEB SWAP2 SWAP1 PUSH2 0x840 JUMP JUMPDEST PUSH2 0x34C JUMP JUMPDEST PUSH1 0x40 MLOAD PUSH2 0xFE SWAP3 SWAP2 SWAP1 PUSH2 0x657 JUMP JUMPDEST PUSH1 0x40 MLOAD DUP1 SWAP2 SUB SWAP1 RETURN JUMPDEST PUSH2 0x121 PUSH1 0x4 DUP1 CALLDATASIZE SUB DUP2 ADD SWAP1 PUSH2 0x11C SWAP2 SWAP1 PUSH2 0x7B8 JUMP JUMPDEST PUSH2 0x478 JUMP JUMPDEST STOP JUMPDEST PUSH1 0x2 PUSH1 0x20 MSTORE DUP2 PUSH0 MSTORE PUSH1 0x40 PUSH0 KECCAK256 PUSH1 0x20 MSTORE DUP1 PUSH0 MSTORE PUSH1 0x40 PUSH0 KECCAK256 PUSH0 SWAP2 POP SWAP2 POP POP DUP1 PUSH0 ADD DUP1 SLOAD PUSH2 0x14D SWAP1 PUSH2 0x8B8 JUMP JUMPDEST DUP1 PUSH1 0x1F ADD PUSH1 0x20 DUP1 SWAP2 DIV MUL PUSH1 0x20 ADD PUSH1 0x40 MLOAD SWAP1 DUP2 ADD PUSH1 0x40 MSTORE DUP1 SWAP3 SWAP2 SWAP1 DUP2 DUP2 MSTORE PUSH1 0x20 ADD DUP3 DUP1 SLOAD PUSH2 0x179 SWAP1 PUSH2 0x8B8 JUMP JUMPDEST DUP1 ISZERO PUSH2 0x1C4 JUMPI DUP1 PUSH1 0x1F LT PUSH2 0x19B JUMPI PUSH2 0x100 DUP1 DUP4 SLOAD DIV MUL DUP4 MSTORE SWAP2 PUSH1 0x20 ADD SWAP2 PUSH2 0x1C4 JUMP JUMPDEST DUP3 ADD SWAP2 SWAP1 PUSH0 MSTORE PUSH1 0x20 PUSH0 KECCAK256 SWAP1 JUMPDEST DUP2 SLOAD DUP2 MSTORE SWAP1 PUSH1 0x1 ADD SWAP1 PUSH1 0x20 ADD DUP1 DUP4 GT PUSH2 0x1A7 JUMPI DUP3 SWAP1 SUB PUSH1 0x1F AND DUP3 ADD SWAP2 JUMPDEST POP POP POP POP POP SWAP1 DUP1 PUSH1 0x1 ADD DUP1 SLOAD PUSH2 0x1D9 SWAP1 PUSH2 0x8B8 JUMP JUMPDEST DUP1 PUSH1 0x1F ADD PUSH1 0x20 DUP1 SWAP2 DIV MUL PUSH1 0x20 ADD PUSH1 0x40 MLOAD SWAP1 DUP2 ADD PUSH1 0x40 MSTORE DUP1 SWAP3 SWAP2 SWAP1 DUP2 DUP2 MSTORE PUSH1 0x20 ADD DUP3 DUP1 SLOAD PUSH2 0x205 SWAP1 PUSH2 0x8B8 JUMP JUMPDEST DUP1 ISZERO PUSH2 0x250 JUMPI DUP1 PUSH1 0x1F LT PUSH2 0x227 JUMPI PUSH2 0x100 DUP1 DUP4 SLOAD DIV MUL DUP4 MSTORE SWAP2 PUSH1 0x20 ADD SWAP2 PUSH2 0x250 JUMP JUMPDEST DUP3 ADD SWAP2 SWAP1 PUSH0 MSTORE PUSH1 0x20 PUSH0 KECCAK256 SWAP1 JUMPDEST DUP2 SLOAD DUP2 MSTORE SWAP1 PUSH1 0x1 ADD SWAP1 PUSH1 0x20 ADD DUP1 DUP4 GT PUSH2 0x233 JUMPI DUP3 SWAP1 SUB PUSH1 0x1F AND DUP3 ADD SWAP2 JUMPDEST POP POP POP POP POP SWAP1 POP DUP3 JUMP JUMPDEST PUSH1 0x40 MLOAD DUP1 PUSH1 0x40 ADD PUSH1 0x40 MSTORE DUP1 DUP4 DUP2 MSTORE PUSH1 0x20 ADD DUP3 DUP2 MSTORE POP PUSH1 0x1 PUSH0 DUP6 DUP2 MSTORE PUSH1 0x20 ADD SWAP1 DUP2 MSTORE PUSH1 0x20 ADD PUSH0 KECCAK256 PUSH0 DUP3 ADD MLOAD DUP2 PUSH0 ADD SWAP1 DUP2 PUSH2 0x293 SWAP2 SWAP1 PUSH2 0xA85 JUMP JUMPDEST POP PUSH1 0x20 DUP3 ADD MLOAD DUP2 PUSH1 0x1 ADD SWAP1 DUP2 PUSH2 0x2A9 SWAP2 SWAP1 PUSH2 0xA85 JUMP JUMPDEST POP SWAP1 POP POP POP POP POP JUMP JUMPDEST PUSH0 PUSH1 0x20 MSTORE DUP1 PUSH0 MSTORE PUSH1 0x40 PUSH0 KECCAK256 PUSH0 SWAP2 POP SWAP1 POP DUP1 SLOAD PUSH2 0x2CD SWAP1 PUSH2 0x8B8 JUMP JUMPDEST DUP1 PUSH1 0x1F ADD PUSH1 0x20 DUP1 SWAP2 DIV MUL PUSH1 0x20 ADD PUSH1 0x40 MLOAD SWAP1 DUP2 ADD PUSH1 0x40 MSTORE DUP1 SWAP3 SWAP2 SWAP1 DUP2 DUP2 MSTORE PUSH1 0x20 ADD DUP3 DUP1 SLOAD PUSH2 0x2F9 SWAP1 PUSH2 0x8B8 JUMP JUMPDEST DUP1 ISZERO PUSH2 0x344 JUMPI DUP1 PUSH1 0x1F LT PUSH2 0x31B JUMPI PUSH2 0x100 DUP1 DUP4 SLOAD DIV MUL DUP4 MSTORE SWAP2 PUSH1 0x20 ADD SWAP2 PUSH2 0x344 JUMP JUMPDEST DUP3 ADD SWAP2 SWAP1 PUSH0 MSTORE PUSH1 0x20 PUSH0 KECCAK256 SWAP1 JUMPDEST DUP2 SLOAD DUP2 MSTORE SWAP1 PUSH1 0x1 ADD SWAP1 PUSH1 0x20 ADD DUP1 DUP4 GT PUSH2 0x327 JUMPI DUP3 SWAP1 SUB PUSH1 0x1F AND DUP3 ADD SWAP2 JUMPDEST POP POP POP POP POP DUP2 JUMP JUMPDEST PUSH1 0x1 PUSH1 0x20 MSTORE DUP1 PUSH0 MSTORE PUSH1 0x40 PUSH0 KECCAK256 PUSH0 SWAP2 POP SWAP1 POP DUP1 PUSH0 ADD DUP1 SLOAD PUSH2 0x36B SWAP1 PUSH2 0x8B8 JUMP JUMPDEST DUP1 PUSH1 0x1F ADD PUSH1 0x20 DUP1 SWAP2 DIV MUL PUSH1 0x20 ADD PUSH1 0x40 MLOAD SWAP1 DUP2 ADD PUSH1 0x40 MSTORE DUP1 SWAP3 SWAP2 SWAP1 DUP2 DUP2 MSTORE PUSH1 0x20 ADD DUP3 DUP1 SLOAD PUSH2 0x397 SWAP1 PUSH2 0x8B8 JUMP JUMPDEST DUP1 ISZERO PUSH2 0x3E2 JUMPI DUP1 PUSH1 0x1F LT PUSH2 0x3B9 JUMPI PUSH2 0x100 DUP1 DUP4 SLOAD DIV MUL DUP4 MSTORE SWAP2 PUSH1 0x20 ADD SWAP2 PUSH2 0x3E2 JUMP JUMPDEST DUP3 ADD SWAP2 SWAP1 PUSH0 MSTORE PUSH1 0x20 PUSH0 KECCAK256 SWAP1 JUMPDEST DUP2 SLOAD DUP2 MSTORE SWAP1 PUSH1 0x1 ADD SWAP1 PUSH1 0x20 ADD DUP1 DUP4 GT PUSH2 0x3C5 JUMPI DUP3 SWAP1 SUB PUSH1 0x1F AND DUP3 ADD SWAP2 JUMPDEST POP POP POP POP POP SWAP1 DUP1 PUSH1 0x1 ADD DUP1 SLOAD PUSH2 0x3F7 SWAP1 PUSH2 0x8B8 JUMP JUMPDEST DUP1 PUSH1 0x1F ADD PUSH1 0x20 DUP1 SWAP2 DIV MUL PUSH1 0x20 ADD PUSH1 0x40 MLOAD SWAP1 DUP2 ADD PUSH1 0x40 MSTORE DUP1 SWAP3 SWAP2 SWAP1 DUP2 DUP2 MSTORE PUSH1 0x20 ADD DUP3 DUP1 SLOAD PUSH2 0x423 SWAP1 PUSH2 0x8B8 JUMP JUMPDEST DUP1 ISZERO PUSH2 0x46E JUMPI DUP1 PUSH1 0x1F LT PUSH2 0x445 JUMPI PUSH2 0x100 DUP1 DUP4 SLOAD DIV MUL DUP4 MSTORE SWAP2 PUSH1 0x20 ADD SWAP2 PUSH2 0x46E JUMP JUMPDEST DUP3 ADD SWAP2 SWAP1 PUSH0 MSTORE PUSH1 0x20 PUSH0 KECCAK256 SWAP1 JUMPDEST DUP2 SLOAD DUP2 MSTORE SWAP1 PUSH1 0x1 ADD SWAP1 PUSH1 0x20 ADD DUP1 DUP4 GT PUSH2 0x451 JUMPI DUP3 SWAP1 SUB PUSH1 0x1F AND DUP3 ADD SWAP2 JUMPDEST POP POP POP POP POP SWAP1 POP DUP3 JUMP JUMPDEST PUSH1 0x40 MLOAD DUP1 PUSH1 0x40 ADD PUSH1 0x40 MSTORE DUP1 DUP4 DUP2 MSTORE PUSH1 0x20 ADD DUP3 DUP2 MSTORE POP PUSH1 0x2 PUSH0 CALLER PUSH20 0xFFFFFFFFFFFFFFFFFFFFFFFFFFFFFFFFFFFFFFFF AND PUSH20 0xFFFFFFFFFFFFFFFFFFFFFFFFFFFFFFFFFFFFFFFF AND DUP2 MSTORE PUSH1 0x20 ADD SWAP1 DUP2 MSTORE PUSH1 0x20 ADD PUSH0 KECCAK256 PUSH0 DUP6 DUP2 MSTORE PUSH1 0x20 ADD SWAP1 DUP2 MSTORE PUSH1 0x20 ADD PUSH0 KECCAK256 PUSH0 DUP3 ADD MLOAD DUP2 PUSH0 ADD SWAP1 DUP2 PUSH2 0x4EC SWAP2 SWAP1 PUSH2 0xA85 JUMP JUMPDEST POP PUSH1 0x20 DUP3 ADD MLOAD DUP2 PUSH1 0x1 ADD SWAP1 DUP2 PUSH2 0x502 SWAP2 SWAP1 PUSH2 0xA85 JUMP JUMPDEST POP SWAP1 POP POP POP POP POP JUMP JUMPDEST PUSH0 PUSH1 0x40 MLOAD SWAP1 POP SWAP1 JUMP JUMPDEST PUSH0 DUP1 REVERT JUMPDEST PUSH0 DUP1 REVERT JUMPDEST PUSH0 PUSH20 0xFFFFFFFFFFFFFFFFFFFFFFFFFFFFFFFFFFFFFFFF DUP3 AND SWAP1 POP SWAP2 SWAP1 POP JUMP JUMPDEST PUSH0 PUSH2 0x545 DUP3 PUSH2 0x51C JUMP JUMPDEST SWAP1 POP SWAP2 SWAP1 POP JUMP JUMPDEST PUSH2 0x555 DUP2 PUSH2 0x53B JUMP JUMPDEST DUP2 EQ PUSH2 0x55F JUMPI PUSH0 DUP1 REVERT JUMPDEST POP JUMP JUMPDEST PUSH0 DUP2 CALLDATALOAD SWAP1 POP PUSH2 0x570 DUP2 PUSH2 0x54C JUMP JUMPDEST SWAP3 SWAP2 POP POP JUMP JUMPDEST PUSH0 DUP2 SWAP1 POP SWAP2 SWAP1 POP JUMP JUMPDEST PUSH2 0x588 DUP2 PUSH2 0x576 JUMP JUMPDEST DUP2 EQ PUSH2 0x592 JUMPI PUSH0 DUP1 REVERT JUMPDEST POP JUMP JUMPDEST PUSH0 DUP2 CALLDATALOAD SWAP1 POP PUSH2 0x5A3 DUP2 PUSH2 0x57F JUMP JUMPDEST SWAP3 SWAP2 POP POP JUMP JUMPDEST PUSH0 DUP1 PUSH1 0x40 DUP4 DUP6 SUB SLT ISZERO PUSH2 0x5BF JUMPI PUSH2 0x5BE PUSH2 0x514 JUMP JUMPDEST JUMPDEST PUSH0 PUSH2 0x5CC DUP6 DUP3 DUP7 ADD PUSH2 0x562 JUMP JUMPDEST SWAP3 POP POP PUSH1 0x20 PUSH2 0x5DD DUP6 DUP3 DUP7 ADD PUSH2 0x595 JUMP JUMPDEST SWAP2 POP POP SWAP3 POP SWAP3 SWAP1 POP JUMP JUMPDEST PUSH0 DUP2 MLOAD SWAP1 POP SWAP2 SWAP1 POP JUMP JUMPDEST PUSH0 DUP3 DUP3 MSTORE PUSH1 0x20 DUP3 ADD SWAP1 POP SWAP3 SWAP2 POP POP JUMP JUMPDEST DUP3 DUP2 DUP4 MCOPY PUSH0 DUP4 DUP4 ADD MSTORE POP POP POP JUMP JUMPDEST PUSH0 PUSH1 0x1F NOT PUSH1 0x1F DUP4 ADD AND SWAP1 POP SWAP2 SWAP1 POP JUMP JUMPDEST PUSH0 PUSH2 0x629 DUP3 PUSH2 0x5E7 JUMP JUMPDEST PUSH2 0x633 DUP2 DUP6 PUSH2 0x5F1 JUMP JUMPDEST SWAP4 POP PUSH2 0x643 DUP2 DUP6 PUSH1 0x20 DUP7 ADD PUSH2 0x601 JUMP JUMPDEST PUSH2 0x64C DUP2 PUSH2 0x60F JUMP JUMPDEST DUP5 ADD SWAP2 POP POP SWAP3 SWAP2 POP POP JUMP JUMPDEST PUSH0 PUSH1 0x40 DUP3 ADD SWAP1 POP DUP2 DUP2 SUB PUSH0 DUP4 ADD MSTORE PUSH2 0x66F DUP2 DUP6 PUSH2 0x61F JUMP JUMPDEST SWAP1 POP DUP2 DUP2 SUB PUSH1 0x20 DUP4 ADD MSTORE PUSH2 0x683 DUP2 DUP5 PUSH2 0x61F JUMP JUMPDEST SWAP1 POP SWAP4 SWAP3 POP POP POP JUMP JUMPDEST PUSH0 DUP1 REVERT JUMPDEST PUSH0 DUP1 REVERT JUMPDEST PUSH32 0x4E487B7100000000000000000000000000000000000000000000000000000000 PUSH0 MSTORE PUSH1 0x41 PUSH1 0x4 MSTORE PUSH1 0x24 PUSH0 REVERT JUMPDEST PUSH2 0x6CA DUP3 PUSH2 0x60F JUMP JUMPDEST DUP2 ADD DUP2 DUP2 LT PUSH8 0xFFFFFFFFFFFFFFFF DUP3 GT OR ISZERO PUSH2 0x6E9 JUMPI PUSH2 0x6E8 PUSH2 0x694 JUMP JUMPDEST JUMPDEST DUP1 PUSH1 0x40 MSTORE POP POP POP JUMP JUMPDEST PUSH0 PUSH2 0x6FB PUSH2 0x50B JUMP JUMPDEST SWAP1 POP PUSH2 0x707 DUP3 DUP3 PUSH2 0x6C1 JUMP JUMPDEST SWAP2 SWAP1 POP JUMP JUMPDEST PUSH0 PUSH8 0xFFFFFFFFFFFFFFFF DUP3 GT ISZERO PUSH2 0x726 JUMPI PUSH2 0x725 PUSH2 0x694 JUMP JUMPDEST JUMPDEST PUSH2 0x72F DUP3 PUSH2 0x60F JUMP JUMPDEST SWAP1 POP PUSH1 0x20 DUP2 ADD SWAP1 POP SWAP2 SWAP1 POP JUMP JUMPDEST DUP3 DUP2 DUP4 CALLDATACOPY PUSH0 DUP4 DUP4 ADD MSTORE POP POP POP JUMP JUMPDEST PUSH0 PUSH2 0x75C PUSH2 0x757 DUP5 PUSH2 0x70C JUMP JUMPDEST PUSH2 0x6F2 JUMP JUMPDEST SWAP1 POP DUP3 DUP2 MSTORE PUSH1 0x20 DUP2 ADD DUP5 DUP5 DUP5 ADD GT ISZERO PUSH2 0x778 JUMPI PUSH2 0x777 PUSH2 0x690 JUMP JUMPDEST JUMPDEST PUSH2 0x783 DUP5 DUP3 DUP6 PUSH2 0x73C JUMP JUMPDEST POP SWAP4 SWAP3 POP POP POP JUMP JUMPDEST PUSH0 DUP3 PUSH1 0x1F DUP4 ADD SLT PUSH2 0x79F JUMPI PUSH2 0x79E PUSH2 0x68C JUMP JUMPDEST JUMPDEST DUP2 CALLDATALOAD PUSH2 0x7AF DUP5 DUP3 PUSH1 0x20 DUP7 ADD PUSH2 0x74A JUMP JUMPDEST SWAP2 POP POP SWAP3 SWAP2 POP POP JUMP JUMPDEST PUSH0 DUP1 PUSH0 PUSH1 0x60 DUP5 DUP7 SUB SLT ISZERO PUSH2 0x7CF JUMPI PUSH2 0x7CE PUSH2 0x514 JUMP JUMPDEST JUMPDEST PUSH0 PUSH2 0x7DC DUP7 DUP3 DUP8 ADD PUSH2 0x595 JUMP JUMPDEST SWAP4 POP POP PUSH1 0x20 DUP5 ADD CALLDATALOAD PUSH8 0xFFFFFFFFFFFFFFFF DUP2 GT ISZERO PUSH2 0x7FD JUMPI PUSH2 0x7FC PUSH2 0x518 JUMP JUMPDEST JUMPDEST PUSH2 0x809 DUP7 DUP3 DUP8 ADD PUSH2 0x78B JUMP JUMPDEST SWAP3 POP POP PUSH1 0x40 DUP5 ADD CALLDATALOAD PUSH8 0xFFFFFFFFFFFFFFFF DUP2 GT ISZERO PUSH2 0x82A JUMPI PUSH2 0x829 PUSH2 0x518 JUMP JUMPDEST JUMPDEST PUSH2 0x836 DUP7 DUP3 DUP8 ADD PUSH2 0x78B JUMP JUMPDEST SWAP2 POP POP SWAP3 POP SWAP3 POP SWAP3 JUMP JUMPDEST PUSH0 PUSH1 0x20 DUP3 DUP5 SUB SLT ISZERO PUSH2 0x855 JUMPI PUSH2 0x854 PUSH2 0x514 JUMP JUMPDEST JUMPDEST PUSH0 PUSH2 0x862 DUP5 DUP3 DUP6 ADD PUSH2 0x595 JUMP JUMPDEST SWAP2 POP POP SWAP3 SWAP2 POP POP JUMP JUMPDEST PUSH0 PUSH1 0x20 DUP3 ADD SWAP1 POP DUP2 DUP2 SUB PUSH0 DUP4 ADD MSTORE PUSH2 0x883 DUP2 DUP5 PUSH2 0x61F JUMP JUMPDEST SWAP1 POP SWAP3 SWAP2 POP POP JUMP JUMPDEST PUSH32 0x4E487B7100000000000000000000000000000000000000000000000000000000 PUSH0 MSTORE PUSH1 0x22 PUSH1 0x4 MSTORE PUSH1 0x24 PUSH0 REVERT JUMPDEST PUSH0 PUSH1 0x2 DUP3 DIV SWAP1 POP PUSH1 0x1 DUP3 AND DUP1 PUSH2 0x8CF JUMPI PUSH1 0x7F DUP3 AND SWAP2 POP JUMPDEST PUSH1 0x20 DUP3 LT DUP2 SUB PUSH2 0x8E2 JUMPI PUSH2 0x8E1 PUSH2 0x88B JUMP JUMPDEST JUMPDEST POP SWAP2 SWAP1 POP JUMP JUMPDEST PUSH0 DUP2 SWAP1 POP DUP2 PUSH0 MSTORE PUSH1 0x20 PUSH0 KECCAK256 SWAP1 POP SWAP2 SWAP1 POP JUMP JUMPDEST PUSH0 PUSH1 0x20 PUSH1 0x1F DUP4 ADD DIV SWAP1 POP SWAP2 SWAP1 POP JUMP JUMPDEST PUSH0 DUP3 DUP3 SHL SWAP1 POP SWAP3 SWAP2 POP POP JUMP JUMPDEST PUSH0 PUSH1 0x8 DUP4 MUL PUSH2 0x944 PUSH32 0xFFFFFFFFFFFFFFFFFFFFFFFFFFFFFFFFFFFFFFFFFFFFFFFFFFFFFFFFFFFFFFFF DUP3 PUSH2 0x909 JUMP JUMPDEST PUSH2 0x94E DUP7 DUP4 PUSH2 0x909 JUMP JUMPDEST SWAP6 POP DUP1 NOT DUP5 AND SWAP4 POP DUP1 DUP7 AND DUP5 OR SWAP3 POP POP POP SWAP4 SWAP3 POP POP POP JUMP JUMPDEST PUSH0 DUP2 SWAP1 POP SWAP2 SWAP1 POP JUMP JUMPDEST PUSH0 PUSH2 0x989 PUSH2 0x984 PUSH2 0x97F DUP5 PUSH2 0x576 JUMP JUMPDEST PUSH2 0x966 JUMP JUMPDEST PUSH2 0x576 JUMP JUMPDEST SWAP1 POP SWAP2 SWAP1 POP JUMP JUMPDEST PUSH0 DUP2 SWAP1 POP SWAP2 SWAP1 POP JUMP JUMPDEST PUSH2 0x9A2 DUP4 PUSH2 0x96F JUMP JUMPDEST PUSH2 0x9B6 PUSH2 0x9AE DUP3 PUSH2 0x990 JUMP JUMPDEST DUP5 DUP5 SLOAD PUSH2 0x915 JUMP JUMPDEST DUP3 SSTORE POP POP POP POP JUMP JUMPDEST PUSH0 SWAP1 JUMP JUMPDEST PUSH2 0x9CA PUSH2 0x9BE JUMP JUMPDEST PUSH2 0x9D5 DUP2 DUP5 DUP5 PUSH2 0x999 JUMP JUMPDEST POP POP POP JUMP JUMPDEST JUMPDEST DUP2 DUP2 LT ISZERO PUSH2 0x9F8 JUMPI PUSH2 0x9ED PUSH0 DUP3 PUSH2 0x9C2 JUMP JUMPDEST PUSH1 0x1 DUP2 ADD SWAP1 POP PUSH2 0x9DB JUMP JUMPDEST POP POP JUMP JUMPDEST PUSH1 0x1F DUP3 GT ISZERO PUSH2 0xA3D JUMPI PUSH2 0xA0E DUP2 PUSH2 0x8E8 JUMP JUMPDEST PUSH2 0xA17 DUP5 PUSH2 0x8FA JUMP JUMPDEST DUP2 ADD PUSH1 0x20 DUP6 LT ISZERO PUSH2 0xA26 JUMPI DUP2 SWAP1 POP JUMPDEST PUSH2 0xA3A PUSH2 0xA32 DUP6 PUSH2 0x8FA JUMP JUMPDEST DUP4 ADD DUP3 PUSH2 0x9DA JUMP JUMPDEST POP POP JUMPDEST POP POP POP JUMP JUMPDEST PUSH0 DUP3 DUP3 SHR SWAP1 POP SWAP3 SWAP2 POP POP JUMP JUMPDEST PUSH0 PUSH2 0xA5D PUSH0 NOT DUP5 PUSH1 0x8 MUL PUSH2 0xA42 JUMP JUMPDEST NOT DUP1 DUP4 AND SWAP2 POP POP SWAP3 SWAP2 POP POP JUMP JUMPDEST PUSH0 PUSH2 0xA75 DUP4 DUP4 PUSH2 0xA4E JUMP JUMPDEST SWAP2 POP DUP3 PUSH1 0x2 MUL DUP3 OR SWAP1 POP SWAP3 SWAP2 POP POP JUMP JUMPDEST PUSH2 0xA8E DUP3 PUSH2 0x5E7 JUMP JUMPDEST PUSH8 0xFFFFFFFFFFFFFFFF DUP2 GT ISZERO PUSH2 0xAA7 JUMPI PUSH2 0xAA6 PUSH2 0x694 JUMP JUMPDEST JUMPDEST PUSH2 0xAB1 DUP3 SLOAD PUSH2 0x8B8 JUMP JUMPDEST PUSH2 0xABC DUP3 DUP3 DUP6 PUSH2 0x9FC JUMP JUMPDEST PUSH0 PUSH1 0x20 SWAP1 POP PUSH1 0x1F DUP4 GT PUSH1 0x1 DUP2 EQ PUSH2 0xAED JUMPI PUSH0 DUP5 ISZERO PUSH2 0xADB JUMPI DUP3 DUP8 ADD MLOAD SWAP1 POP JUMPDEST PUSH2 0xAE5 DUP6 DUP3 PUSH2 0xA6A JUMP JUMPDEST DUP7 SSTORE POP PUSH2 0xB4C JUMP JUMPDEST PUSH1 0x1F NOT DUP5 AND PUSH2 0xAFB DUP7 PUSH2 0x8E8 JUMP JUMPDEST PUSH0 JUMPDEST DUP3 DUP2 LT ISZERO PUSH2 0xB22 JUMPI DUP5 DUP10 ADD MLOAD DUP3 SSTORE PUSH1 0x1 DUP3 ADD SWAP2 POP PUSH1 0x20 DUP6 ADD SWAP5 POP PUSH1 0x20 DUP2 ADD SWAP1 POP PUSH2 0xAFD JUMP JUMPDEST DUP7 DUP4 LT ISZERO PUSH2 0xB3F JUMPI DUP5 DUP10 ADD MLOAD PUSH2 0xB3B PUSH1 0x1F DUP10 AND DUP3 PUSH2 0xA4E JUMP JUMPDEST DUP4 SSTORE POP JUMPDEST PUSH1 0x1 PUSH1 0x2 DUP9 MUL ADD DUP9 SSTORE POP POP POP JUMPDEST POP POP POP POP POP POP JUMP INVALID LOG2 PUSH5 0x6970667358 0x22 SLT KECCAK256 SGT 0xC0 0x2F JUMPI SWAP14 0xCB 0xB1 DUP16 0xCA COINBASE 0xB5 COINBASE 0xF6 TSTORE 0xDB 0xD2 0xF7 SELFBALANCE 0xBC PUSH20 0xB43E31FC7C5FD8ADCFE172464736F6C63430008 NOT STOP CALLER "
				},
				"gasEstimates": {
					"creation": {
						"codeDepositCost": "590800",
						"executionCost": "infinite",
						"totalCost": "infinite"
					},
					"external": {
						"addBooks(uint256,string,string)": "infinite",
						"addMyBooks(uint256,string,string)": "infinite",
						"books(uint256)": "infinite",
						"myBooks(address,uint256)": "infinite",
						"names(uint256)": "infinite"
					}
				},
				"methodIdentifiers": {
					"addBooks(uint256,string,string)": "306c5a2d",
					"addMyBooks(uint256,string,string)": "8f0a0350",
					"books(uint256)": "68744046",
					"myBooks(address,uint256)": "27d3553f",
					"names(uint256)": "4622ab03"
				}
			},
			"storageLayout": {
				"storage": [
					{
						"astId": 5,
						"contract": "contracts/MyMapping.sol:MyMapping",
						"label": "names",
						"offset": 0,
						"slot": "0",
						"type": "t_mapping(t_uint256,t_string_storage)"
					},
					{
						"astId": 10,
						"contract": "contracts/MyMapping.sol:MyMapping",
						"label": "books",
						"offset": 0,
						"slot": "1",
						"type": "t_mapping(t_uint256,t_struct(Book)37_storage)"
					},
					{
						"astId": 63,
						"contract": "contracts/MyMapping.sol:MyMapping",
						"label": "myBooks",
						"offset": 0,
						"slot": "2",
						"type": "t_mapping(t_address,t_mapping(t_uint256,t_struct(Book)37_storage))"
					}
				],
				"types": {
					"t_address": {
						"encoding": "inplace",
						"label": "address",
						"numberOfBytes": "20"
					},
					"t_mapping(t_address,t_mapping(t_uint256,t_struct(Book)37_storage))": {
						"encoding": "mapping",
						"key": "t_address",
						"label": "mapping(address => mapping(uint256 => struct MyMapping.Book))",
						"numberOfBytes": "32",
						"value": "t_mapping(t_uint256,t_struct(Book)37_storage)"
					},
					"t_mapping(t_uint256,t_string_storage)": {
						"encoding": "mapping",
						"key": "t_uint256",
						"label": "mapping(uint256 => string)",
						"numberOfBytes": "32",
						"value": "t_string_storage"
					},
					"t_mapping(t_uint256,t_struct(Book)37_storage)": {
						"encoding": "mapping",
						"key": "t_uint256",
						"label": "mapping(uint256 => struct MyMapping.Book)",
						"numberOfBytes": "32",
						"value": "t_struct(Book)37_storage"
					},
					"t_string_storage": {
						"encoding": "bytes",
						"label": "string",
						"numberOfBytes": "32"
					},
					"t_struct(Book)37_storage": {
						"encoding": "inplace",
						"label": "struct MyMapping.Book",
						"members": [
							{
								"astId": 34,
								"contract": "contracts/MyMapping.sol:MyMapping",
								"label": "title",
								"offset": 0,
								"slot": "0",
								"type": "t_string_storage"
							},
							{
								"astId": 36,
								"contract": "contracts/MyMapping.sol:MyMapping",
								"label": "author",
								"offset": 0,
								"slot": "1",
								"type": "t_string_storage"
							}
						],
						"numberOfBytes": "64"
					},
					"t_uint256": {
						"encoding": "inplace",
						"label": "uint256",
						"numberOfBytes": "32"
					}
				}
			},
			"userdoc": {
				"kind": "user",
				"methods": {},
				"version": 1
			}
		}
	}
}